:020000040800F2
:10000000800800205D020008650200086702000801
:10001000690200086B0200086D0200080000000081
:100020000000000000000000000000006F02000857
:100030007102000800000000730200087502000849
:1000400077020008770200087702000877020008AC
:10005000770200087702000877020008770200089C
:10006000770200087702000877020008770200088C
:10007000770200087702000877020008770200087C
:10008000770200087702000877020008770200086C
:10009000770200087702000877020008770200085C
:1000A000770200087702000877020008770200084C
:1000B000770200087702000877020008770200083C
:1000C000770200087702000877020008770200082C
:1000D000770200087702000877020008770200081C
:1000E000770200087702000877020008770200080C
:1000F00077020008770200087702000877020008FC
:1001000077020008770200087702000877020008EB
:1001100077020008770200087702000877020008DB
:1001200077020008770200087702000877020008CB
:1001300077020008770200087702000877020008BB
:1001400077020008770200087702000877020008AB
:10015000770200087702000877020008770200089B
:10016000770200087702000877020008770200088B
:1001700077020008770200087702000800000000FC
:10018000770200087702000877020008770200086B
:1001900077020008770200087702000800000000DC
:1001A00077020008770200087702000800F002F8E2
:1001B00000F044F814A696E8000CB244B344DA45C3
:1001C00001D100F03BF8BAE80F000FA696E8300026
:1001D000A5EB040504EB0607AAEB0704A7F101074A
:1001E0004FEA15154FEA3414A4F10104AC4201D3CF
:1001F00000F024F813F0010F18BFFB1A43F00103BD
:1002000000F001F8DBE71847CC0F0000DC0F00001E
:10021000704700000023002400250026103A28BF64
:1002200078C1FBD8520728BF30C148BF0B60704768
:100230001FB500F0BEFF1FBD10B510BD00F031F8B6
:100240001146FFF7F5FF00F019FF00F04FF803B477
:10025000FFF7F2FF03BC00F057F8000009488047A1
:1002600009480047FEE7FEE7FEE7FEE7FEE7FEE798
:10027000FEE7FEE7FEE7FEE704480549054A064BB0
:100280007047000051080008AD0100088000002000
:100290008008002080040020800400207047704700
:1002A0007047754600F02CF8AE4605006946534687
:1002B00020F00700854618B020B5FFF7DDFFBDE848
:1002C00020404FF000064FF000074FF000084FF0BD
:1002D000000BAC46ACE8C009ACE8C009ACE8C0090A
:1002E000ACE8C00921F007018D46704710B50446FF
:1002F000AFF300802046BDE81040FFF7A8BF000024
:10030000004870470000002001491820ABBEFEE7FE
:1003100026000200704700002DE9F04145F200443C
:100320000025C4F20004C02646EA4507F9B220467B
:1003300000F0A0FC20B9022D05F10105F4D907E079
:1003400040F26000C2F200000121446007720170B7
:1003500040F26008C2F2000898F80000012816D0A8
:100360000026C02704F5806447EA4605E9B2204626
:1003700000F080FC20B9022E06F10106F4D906E057
:100380000120C8F8044088F8085088F8000098F860
:100390000000002808BFBDE8F081D8F8044098F8B4
:1003A0000850204629460022002300F09DFC2046EC
:1003B0002946FA22002300F097FC20462946FB221A
:1003C000002300F091FC20462946FC22002300F087
:1003D0008BFC20462946FD221023BDE8F04100F0A9
:1003E00083BC000010B540F6054000F0D3FE41F29A
:1003F0000044C4F20204204601210122102300F02F
:1004000039FB204600210222102300F05DFB20462C
:100410001021BDE8104000F02BBB0000B0B50C4629
:10042000062A054608D8DFE812F007002100500030
:100430007F00C900F800420128462146FA22002325
:1004400000F052FC28462146FB22002300F04CFC21
:1004500028462146FC22002300F046FC284621467F
:10046000FD221023BDE8B04000F03EBC28462146E6
:100470000622002300F038FC2846214607220023EC
:1004800000F032FC284621460822102300F02CFC04
:10049000284621460922002300F026FC2846214652
:1004A0000A22992300F020FC284621460B22012332
:1004B00000F01AFC284621460C22002300F014FC10
:1004C000284621460D220C23D5E028462146062247
:1004D000992300F009FC284621460722012300F059
:1004E00003FC284621460822002300F0FDFB284695
:1004F00021460922082300F0F7FB284621460A225C
:10050000992300F0F1FB284621460B22012300F03D
:10051000EBFB284621460C22002300F0E5FB284691
:1005200021460D220823A6E0284621460622002364
:1005300000F0DAFB284621460722002300F0D4FB16
:10054000284621460822102300F0CEFB28462146EB
:100550000922002300F0C8FB284621460A22002376
:1005600000F0C2FB284621460B22002300F0BCFB12
:10057000284621460C22102300F0B6FB28462146CF
:100580000D22002300F0B0FB284621460E229923BD
:1005900000F0AAFB284621460F22012300F0A4FB0D
:1005A000284621461022002300F09EFB28462146C3
:1005B00011220C23BDE8B04000F096BB284621462E
:1005C0000622002300F090FB284621460722002344
:1005D00000F08AFB284621460822102300F084FB05
:1005E000284621460922002300F07EFB28462146AA
:1005F0000A22992300F078FB284621460B2201238A
:1006000000F072FB284621460C22202300F06CFBF0
:10061000284621460D2202232DE0284621460622A7
:10062000992300F061FB284621460722012300F0B0
:100630005BFB284621460822202300F055FB284674
:1006400021460922022300F04FFB284621460A22B8
:10065000002300F049FB284621460B22002300F02E
:1006600043FB284621460C22102300F03DFB284680
:1006700021460D22002300F037FB284621460E229A
:10068000002300F031FB284621460F22002300F012
:100690002BFB284621461022102300F025FB28467C
:1006A000214611220023BDE8B04000F01DBB2846C2
:1006B00021460622002300F017FB28462146072288
:1006C000002300F011FB284621460822102300F0E9
:1006D0000BFB284621460922002300F005FB284693
:1006E00021460A22002300F0FFFA284621460B2269
:1006F000002300F0F9FA284621460C22102300F0CE
:10070000F3FA284621460D22002300F0EDFA284690
:1007100021460E22992300F0E7FA284621460F22AF
:10072000012300F0E1FA284621461022202300F0A0
:10073000DBFA2846214611220223BDE8B04000F032
:10074000D3BA00002DE9F04745F20044C4F200049A
:1007500000274FF0300804F5806A00BF48EA4705DB
:10076000EEB22046314600F085FA48B9504631468F
:1007700000F080FA30B9022F07F10107EED90AE044
:10078000204600E0504640F27001C2F2000148608D
:1007900001200D72087040F270080027C2F20008B4
:1007A0004FF0300904E000BF032F07F1010719D211
:1007B00098F800000128F7D009EB4705EEB2204673
:1007C000314600F057FA30B95046314600F052FA3F
:1007D0000028E9D054460120C8F8044088F80850A1
:1007E00088F8000098F80000002808BFBDE8F087EE
:1007F000D8F8044098F808502046294602220023E1
:1008000000F072FA204629460322FF23BDE8F04794
:1008100000F06ABA10B582B040F26C04C2F2000473
:100820004FF0010C00222346CDF800C000F062FB1F
:10083000207840F26D0200F00101C2F2000240F6A1
:10084000B830117002B0BDE8104000F0CBB8000025
:1008500080B581B04EF68851CEF200010A6843F6A9
:10086000080E42F47002C4F2020E0A605EF8081C20
:100870004FF0000C41F001014EF8081CDEF80010AA
:100880004CF24F3241F08001CEF80010CDF800C09C
:10089000009B934208D84CF2503300BF00990131BD
:1008A000009100999942F9D3DEF8001041F09001CF
:1008B000CEF80010CDF800C00099914208D84CF253
:1008C000503100BF009A01320092009A8A42F9D357
:1008D000DEF800104FF6FF7221F00301CEF8001091
:1008E0005EF8081CCFF6F66211404EF8081C5EF860
:1008F000081C21F480214EF8081C0021CEF80010BD
:10090000DEF8002043F21002C2F200424EF8042C3E
:10091000CEF804105EF8082C42F480324EF8082C11
:100920004FF6FE725EF8080C013A41F100038003B5
:1009300001D4002BF6D15EF8080C800301D400BF6F
:10094000FEE7DEF8380047F2000140F08050C4F2C4
:100950000001CEF83800086840F440400860DEF836
:100960000000CEF80000DEF8000040F40040CEF8B1
:100970000000DEF8000040F4A050CEF8000046F27F
:100980001940C0F640104EF8040C5EF8080C40F018
:1009900080704EF8080C00BF5EF8080C8001FBD593
:1009A000086840F4803008604868C003FCD50868D7
:1009B00040F40030086000BF48688003FCD5DEF8D2
:1009C000000020F00300CEF80000DEF8000040F048
:1009D0000200CEF8000000BFDEF800000007FBD5E3
:1009E00001B080BD002808BF7047002146F6605264
:1009F000013A00BFFCD101318142F7D170470000BC
:100A0000F0B5D0F820E0D0F824C000230F2700254F
:100A100005E000BF0135082D03F104030CD022FAD4
:100A200005F6F607F6D007FA03F62EEA060601FAEF
:100A300003F446EA040EEDE7082300240F2504E042
:100A40000133102B04F104040CD022FA03F6F6074C
:100A5000F6D005FA04F62CEA060701FA04F647EA8E
:100A6000060CEDE7C0F820E0C0F824C0F0BD00009F
:100A7000816270472DE9F041D0F800E0D0F80CC059
:100A800000244FF00308002605E000BF0136102EB9
:100A900004F1020412D023FA06F7FF07F6D008FA91
:100AA00004F72EEA070E01FA04F54EEA050E2CEAC9
:100AB000070702FA04F547EA050CE7E7C0F800E08B
:100AC000C0F80CC0BDE8F0810129416814BF99430A
:100AD00019434160B0B5D0F808C000214FF0030EB3
:100AE000002404E00134102C01F102010CD023FA9F
:100AF00004F5ED07F6D00EFA01F52CEA050C02FA22
:100B000001F54CEA050CEDE7C0F808C0B0BD0000E7
:100B100010B541F2150000F03DFB45F20044C4F26F
:100B2000000448F2A061C0F201012046002200F05A
:100B300037F9204600210022A02300F0CDF92046FD
:100B400000F0A0F920464FF48061BDE8104000F0AD
:100B500085B8000010B540F6014000F01BFB40F2E4
:100B60000044C4F20204204604214FF48072FFF7CF
:100B700047FF204604214FF40072FFF741FF204653
:100B8000022101224FF48073FFF774FF20460221F7
:100B900001224FF40073FFF76DFF2046012102226E
:100BA0004FF48073FFF790FF2046012102224FF49B
:100BB0000073BDE81040FFF787BF000010B541F299
:100BC000160000F0E7FA45F60004C4F2000448F20B
:100BD000A061C0F201012046002200F0E1F82046A9
:100BE00000210022A02300F077F9204600F04AF906
:100BF00020464FF48061BDE8104000F02FB800009F
:100C000010B540F6054000F0C5FA41F20044C4F2C8
:100C10000204204604210222FFF7F2FE20460421AE
:100C20000122FFF7EDFE2046022101220123FFF7FA
:100C300021FF2046022101220223FFF71BFFA4F51A
:100C40000060012102220123FFF73EFF204601211F
:100C500002220223BDE81040FFF736BF026822F4EB
:100C60008062114301607047026822F40062114300
:100C700001607047F0B581B00D460446204640F251
:100C8000016100F019F90028F8D1204600F0EAF9D6
:100C900020464FF4A06100F00FF90028F8D020465C
:100CA00029466FF001024EF6612600F00DF9B01EE4
:100CB000002587B2204640F2015100F0FDF828B926
:100CC000A8B20135B842F5D94EF66125204600F0AC
:100CD000CFF900BF20688005FCD4A9B20020B14242
:100CE00038BF012001B0F0BD2DE9F041984616460D
:100CF0000F460446204640F2016100F0DDF800286E
:100D0000F8D1204600F0AEF920464FF4A06100F083
:100D1000D3F80028F8D0204639466FF0010200F0E1
:100D2000D3F84EF6612700BF204640F2015100F093
:100D3000C3F840B90135A8B2B842F5D32046BDE8A2
:100D4000F04100F095B9204640F2015100F0A0F8C2
:100D5000204640F2075100F0AFF80128F8D12046B4
:100D6000314600F08DF800BF204640F2025100F0FD
:100D7000A3F80028F8D02046414600F081F800BFD3
:100D8000204640F2025100F097F80028F8D02046A3
:100D900000F06EF920688005FCD4BDE8F081000009
:100DA000F0B581B00446022017460D4600F094F9D4
:100DB0004DF68361C4F21B31A0FB0112910C48F285
:100DC000FF62C0F2933290420A4688BF3C226368B9
:100DD00048F2A066C0F2010623F03F03B54243EAA1
:100DE0000203636007D844F2C042C0F284329042EA
:100DF0002BD33C2131E041F68021C0F206018D4227
:100E000037D84FF49671514348F63812C0F2410278
:100E1000A1FB0212511C2162E169192221F48041D7
:100E2000002F18BF01F5804108BF0322E161E1698D
:100E30006A4341F40041B0FBF2F0E161E16902056F
:100E400008BF41F00101084312E048F27F42C0F2BE
:100E50001E0290428CBF0131022121626900B0FB69
:100E6000F1F0042898BF0420E1696FF31F300843B4
:100E7000E06101B0F0BD00000069C0B27047000041
:100E800001617047016841F0010101607047000095
:100E900040F20152914202D141698069704701F0EC
:100EA0001F0289094FF0010C0B580CFA02F223EAD9
:100EB00002020A50704700008A09105801F01F0111
:100EC000C84000F00100704721F00101023218BF54
:100ED0000131016170470000D0F800C06FF39F231B
:100EE0002CF0020C41EA0C01016043EA020181602E
:100EF000704700002DE9F047089F994690468A46C2
:100F0000044600BF204640F20161FFF7D5FF0028EC
:100F1000F8D1022F04D120464FF40061FFF7A4FE60
:100F2000204600F09FF800BF20464FF4A061FFF775
:100F3000C3FF0028F8D0204651466FF00102FFF7AA
:100F4000C3FF4EF6612500BF204640F20151FFF776
:100F5000B3FF48B90136B0B2A842F5D3204600F03D
:100F600087F80020BDE8F087204640F20151FFF7E6
:100F70008FFF00BF204640F20751FFF79DFF012879
:100F8000F8D12046FFF77EFF20464146FFF778FF65
:100F9000204640F20251FFF78FFF0028F8D020468C
:100FA00000F060F820464FF4A061FFF785FF0028AD
:100FB000F8D0204651460122FFF786FF022F03D8C2
:100FC00020460021FFF74AFE204640F20151FFF77C
:100FD00073FF0028F8D0204640F20151FFF758FF78
:100FE000012F0AD1204600F043F806E056B3204610
:100FF00040F20651FFF760FFE8B9BEB2022E0FD0F3
:10100000032EF3D1204640F20251FFF755FF00288E
:10101000F8D020460021FFF721FE022EE7D100BFC5
:10102000204640F20251FFF747FF0028F8D0204643
:1010300000F01EF8DBE72046FFF71EFF09F8010B62
:10104000013FDAE720688005FCD420464FF4806138
:10105000FFF704FE20460021FFF706FE0120BDE851
:10106000F0870000016841F4807101607047000062
:10107000016841F40071016070470000FFF7B2F9A8
:10108000FFF768FDFFF744FDFFF7BAFDFFF796FD98
:10109000FFF758FBFFF740F940F2700440F26D058E
:1010A00040F26006C2F20004C2F20005C2F200067D
:1010B0006068217AFFF7AEFB2A787068317A012ADE
:1010C0004FF0000208BF0322FFF7A8F94FF47A702F
:1010D000FFF788FCECE7000010B543F60402C4F209
:1010E000020253680146C3F3810342F20040022B1F
:1010F000C0F2F40006D0012B1FD147F64000C0F229
:101100007D101AE0D2F800C013680CF03F0CC3F356
:10111000881E13681468C3F30143640247F6400451
:10112000C0F27D1458BF0446B4FBFCF4022000EB6F
:10113000430004FB0EF3B3FBF0F0536811A4C3F3B8
:101140000313E35C546841F2CC1CC4F38224C0F660
:10115000000C1CF804E05268032907D820FA03F3B6
:10116000DFE801F00F020609184610BD002010BD8F
:1011700023FA0EF010BDC2F342301CF8000023FA2F
:1011800000F010BD00000000000000000102030498
:101190000607080943F6000300F01F018009C4F2A6
:1011A00002034FF0010CC2580CFA01F11143C15077
:1011B0007047F1EE100A4FF6FF71C0F2C03120EA1D
:1011C000010040F04070E1EE100A7047000000009E
:1011D00001020304E4110008000000208008000060
:0411E00014020008ED
:04000005080001AD41
:00000001FF
