:020000040800F2
:1000000010040020C1010008C9010008CB0100084C
:10001000CD010008CF010008D10100080000000058
:10002000000000000000000000000000D3010008F4
:10003000D501000800000000D7010008D901000820
:10004000DB010008DB010008DB010008DB01000820
:10005000DB010008DB010008DB010008DB01000810
:10006000DB010008DB010008DB010008DB01000800
:10007000DB010008DB010008DB010008DB010008F0
:10008000DB010008DB010008DB010008DB010008E0
:10009000DB010008DB010008DB010008DB010008D0
:1000A000DB01000879030008DB010008DB01000820
:1000B0009D030008DB010008DB010008DB010008EC
:1000C000DB010008DB010008DB010008DB010008A0
:1000D000DB010008DB010008DB010008DB01000890
:1000E000DB010008DB010008DB010008DB01000880
:1000F000DB010008DB010008DB010008DB01000870
:10010000DB010008DB010008DB010008DB0100085F
:10011000DB010008DB010008DB010008DB0100084F
:10012000DB010008DB010008DB010008DB0100083F
:10013000DB010008DB010008DB010008DB0100082F
:10014000DB010008DB010008DB010008DB0100081F
:10015000DB010008DB010008DB010008DB0100080F
:10016000DB010008DB010008DB010008DB010008FF
:10017000DB010008DB010008DB01000800000000D3
:10018000DB010008DB010008DB010008DB010008DF
:10019000DB010008DB010008DB01000800000000B3
:1001A000DB010008DB010008DB010008DFF80CD0F0
:1001B00000F018F800480047F10A00081004002079
:1001C0000648804706480047FEE7FEE7FEE7FEE7F1
:1001D000FEE7FEE7FEE7FEE7FEE7FEE715020008A2
:1001E000AD0100081CB5094800900948019005467A
:1001F000009C06E0E06840F0010394E8070098479F
:100200001034AC42F6D3FFF7D5FF000018100008F9
:100210002810000881B04EF68851CEF200010A681D
:1002200043F6080042F47002C4F202000A6050F87B
:10023000081C41F0010140F8081C00BF50F8081CE0
:100240008907FBD5016841F0800101600021009120
:10025000009A4F2A06D800BF009A01320092009AF5
:10026000502AF9D3026842F090020260009100998E
:100270004F2905D800990131009100995029F9D3EF
:1002800001684FF6FF7221F00301016050F8081C6D
:10029000CFF6F662114040F8081C50F8081C4FF0E9
:1002A000000C21F4802140F8081CC0F800C002684E
:1002B00043F21002C2F2004240F8042CC0F804C01D
:1002C00050F8082C42F4803240F8082C4FF6FE72A9
:1002D00050F8081C013A4CF10003890301D4002BAB
:1002E000F6D150F8081C890301D400BFFEE7826BE9
:1002F00047F2000142F08052C4F2000182630A68B2
:1003000042F440420A6002680260026842F400421D
:100310000260026842F4A052026046F21942C0F63E
:10032000401240F8042C50F8082C42F0807240F83B
:10033000082C00BF50F8082C9201FBD50A6842F443
:1003400080320A604A68D203FCD50A6842F400325F
:100350000A6000BF4A689203FCD5016821F00301DE
:100360000160016841F00201016000BF01680907F6
:10037000FCD501B07047000010B50024C4F20104A0
:100380002046012100F0D4FD002808BF10BD204602
:100390000121BDE8104000F0C7BD000080B54FF05E
:1003A0008040012100F0C4FD002808BF80BD4FF04F
:1003B0008040012100F0B8FD40F20800C2F20000C8
:1003C000018840F2DC534A1C9942028005D3002187
:1003D0000180BDE8804000F0D3BD80BD80B584B011
:1003E0004FF4805000F06AFC4FF0804000F098FC21
:1003F00041F26700009014200290002001908DF8D7
:100400000C0069464FF0804000F034FD1C200121B3
:10041000012200F0A3FB4FF08040012100F080FD9D
:100420004FF0804000F020FD04B080BD10B54FF4C7
:10043000406000F043FC0024C4F202042046022184
:100440000022012300F022F920460221002202238B
:1004500000F01CF9204602210022042300F016F9C6
:10046000204600210222012300F03AF92046002113
:100470000222022300F034F9204600210222042344
:1004800000F02EF920460121012200F0AFF82046AD
:100490000121022200F0AAF8204601210422BDE831
:1004A000104000F0A3B80000002808BF70470021EA
:1004B00046F66052013A00BFFCD101318142F7D1CA
:1004C000704700002DE9F04782B0044600F0C2F901
:1004D00041F210084FF00009C0F600080FF2480A78
:1004E0006D4658F8296000271AF80720284631463B
:1004F00000F0B8FADDE90001C4E90001607950B903
:100500000137042FF0D1B9F1000F09F10109E8D04A
:1005100002B0BDE8F087D4E900010022002300F01A
:1005200041FA02B0BDE8F087C0C2C4C62DE9F0436D
:1005300081B099461746DDF8208016010A220F2364
:100540000C46054600F02EFA284621460B220023D1
:1005500000F028FA06F10F00C3B2284621460C220B
:1005600000F020FA3B09284621460D2200F01AFA35
:100570002846214606220F234FEA091600F012FAF8
:10058000284621460722002300F00CFA06F10F004E
:10059000C3B228462146082200F004FA4FEA191394
:1005A00028462146092200F0FDF9284621460E2260
:1005B0000F234FEA081600F0F5F9284621460F22CE
:1005C000002300F0EFF906F10F00C3B228462146E0
:1005D000102200F0E7F94FEA1813284621461122AD
:1005E00001B0BDE8F04300F0DDB90000F0B5D0F88F
:1005F00020E0D0F824C000230F27002505E000BF2D
:100600000135082D03F104030CD022FA05F6F60794
:10061000F6D007FA03F62EEA060601FA03F446EAD4
:10062000040EEDE7082300240F2504E00133102B0E
:1006300004F104040CD022FA03F6F607F6D005FA0A
:1006400004F62CEA060701FA04F647EA060CEDE781
:10065000C0F820E0C0F824C0F0BD0000C1627047BF
:1006600000F13E4101F1FF71800540EA9120082828
:1006700088BF704710B500F5806084B2204600F056
:100680003DFB2046BDE8104000F028BB2DE9F041BD
:10069000D0F800E0D0F80CC000244FF0030800268A
:1006A00005E000BF0136102E04F1020412D023FA37
:1006B00006F7FF07F6D008FA04F72EEA070E01FA4C
:1006C00004F54EEA050E2CEA070702FA04F547EA9C
:1006D000050CE7E7C0F800E0C0F80CC0BDE8F08109
:1006E0000129416814BF994319434160B0B5D0F85E
:1006F00008C000214FF0030E002404E00134102C48
:1007000001F102010CD023FA04F5ED07F6D00EFA40
:1007100001F52CEA050C02FA01F54CEA050CEDE7AF
:10072000C0F808C0B0BD0000026822F48062114326
:1007300001607047F0B581B00446022017460D46AF
:1007400000F05EFA4DF68361C4F21B31A0FB01128A
:10075000910C48F2FF62C0F2933290420A4688BF81
:100760003C22636848F2A066C0F2010623F03F0312
:10077000B54243EA0203636007D844F2C042C0F2C4
:10078000843290422BD33C2131E041F68021C0F2EB
:1007900006018D4237D84FF49671514348F638120E
:1007A000C0F24102A1FB0212511C2162E16919222F
:1007B00021F48041002F18BF01F5804108BF0322BA
:1007C000E161E1696A4341F40041B0FBF2F0E161AB
:1007D000E169020508BF41F00101084312E048F257
:1007E0007F42C0F21E0290428CBF01310221216281
:1007F0006900B0FBF1F0042898BF0420E1696FF3B1
:100800001F300843E06101B0F0BD00000161704796
:10081000016841F0010101607047000040F201529F
:10082000914202D141698069704701F01F02890934
:100830004FF0010C0B580CFA02F223EA02020A50A4
:10084000704700008A09105801F01F01C84000F0ED
:100850000100704770B540F6014000F02FFA40F2F9
:100860000044C4F202042046022101224FF48073A6
:10087000FFF70CFF2046012102224FF48073FFF79F
:100880002FFF204604214FF48072FFF7AFFE204671
:10089000022101224FF40073FFF7F8FE20460121E8
:1008A00002224FF40073FFF71BFF204604214FF490
:1008B0000072FFF79BFE41F2150000F0FFF948F2CD
:1008C000A065A4F5D836C0F20105304629460022BD
:1008D000FFF730FF304600210022A02300F054F83B
:1008E00030464FF48061FFF71FFF3046FFF790FF5F
:1008F00040F6054000F0E2F904F58056304602214A
:1009000001220223FFF7C2FE304601210222022308
:10091000FFF7E6FE304604210222FFF767FE30466D
:10092000022101220123FFF7B1FE304601210222FC
:100930000123FFF7D5FE304604210122FFF756FEC2
:1009400041F2160000F0BAF9A4F5D6342046294643
:100950000022FFF7EFFE204600210022A02300F036
:1009600013F820464FF48061FFF7DEFE2046BDE815
:100970007040FFF74DBF000021F00101023218BFA7
:100980000131016170470000D0F800C06FF39F2370
:100990002CF0020C41EA0C01016043EA0201816083
:1009A00070470000F0B581B01D4616460F4604465C
:1009B000204640F20161FFF745FF0028F8D12046AC
:1009C00000F08AF820464FF4A061FFF73BFF0028B3
:1009D000F8D0F9B220466FF00102FFF7CDFF48F2E0
:1009E000A167C0F2010700BF204640F20151FFF7A6
:1009F00029FF18B9013FF7D100252DE0204640F22C
:100A00000151FFF70BFF00BF204640F20751FFF7EF
:100A100019FF0128F8D120463146FFF7F7FE00BF45
:100A2000204640F20251FFF70DFF0028F8D000BF2A
:100A3000204640F20751FFF705FF0128F8D1204674
:100A40002946FFF7E3FE00BF204640F20251FFF7C0
:100A5000F9FE0028F8D00125204600F043F828468A
:100A600001B0F0BD70B516460D4604460160027136
:100A700000206071284640F20161FFF7E3FE002884
:100A8000F8D1284600F028F828464FF4A061FFF777
:100A9000D9FE0028F8D0284631466FF00102FFF752
:100AA0006BFF48F2A166C0F2010600BF284640F283
:100AB0000151FFF7C7FE18B9013EF7D1002605E046
:100AC000284640F20151FFF7A9FE0126284600F012
:100AD00009F8667170BD0000016841F48071016021
:100AE00070470000016841F4007101607047000028
:100AF00084B002A8FFF7E6FCDDE9020140F2000540
:100B0000C2F20005C5E9000100F01EFA00F040FA4B
:100B1000FFF78CFCFFF762FC00260027D5E90001F7
:100B2000FCB2224600230096FFF700FD0A20FFF7E3
:100B3000BBFC632C07F10107F0D36424D5E9000165
:100B40000027E2B200230097FFF7F0FC0A20FFF72E
:100B5000ABFC013C2006F1D1E0E700004EF60C5C56
:100B6000CEF2000CDCF8003003F4E063B3F5E06F84
:100B700001D1042328E0DCF8003003F4E063B3F58E
:100B8000C06F01D103231FE0DCF8003003F4E06301
:100B9000B3F5A06F17D0DCF8003003F4E063B3F5D1
:100BA000806F01D101230FE0DCF8003003F4E06333
:100BB000B3F5407F01D1002306E040F20053C0F2BC
:100BC000FA53CCF80030022301FA03FCC3F104030A
:100BD0000F21D94011404EF2001241EA0C01CEF231
:100BE0000002090140EA020383F8001300F01F012C
:100BF000012303FA01F11C2303EAD000815070475E
:100C000010B543F60402C4F2020253680146C3F36E
:100C1000810342F20040022BC0F2F40006D0012B07
:100C20001FD147F64000C0F27D101AE0D2F800C094
:100C300013680CF03F0CC3F3881E13681468C3F3E9
:100C40000143640247F64004C0F27D1458BF0446D5
:100C5000B4FBFCF4022000EB430004FB0EF3B3FBF7
:100C6000F0F0536811A4C3F30313E35C546841F23A
:100C7000060CC4F38224C0F6000C1CF804E0526891
:100C8000032907D820FA03F3DFE801F00F02060971
:100C9000184610BD002010BD23FA0EF010BDC2F39F
:100CA00042301CF8000023FA00F010BD00000000E4
:100CB00000000000010203040607080943F60003D0
:100CC00000F01F018009C4F202034FF0010CC2586A
:100CD0000CFA01F11143C1507047000043F60003C4
:100CE00000F01F018009C4F202034FF0010CC2584A
:100CF0000CFA01F122EA0101C150704743F60003EA
:100D000000F01F018009C4F202034FF0010CC25829
:100D10000CFA01F11143C150704700004162704765
:100D200010B541F6FF31C4F2000188421BDC40F6E9
:100D3000FF31C4F20001884230DD41F2FF31C4F2DC
:100D40000001884250DC40F60041C4F200018842B4
:100D500069D041F20001C4F20001884240F0828073
:100D600040F6040476E040F2FF31C4F2010188420B
:100D700026DD44F2FF31C4F20101884243DC40F237
:100D80000041C4F20101884250D044F20001C4F293
:100D90000101884266D14FF411645BE0B0F1804FED
:100DA00047D040F20041C4F20001884244D040F6EE
:100DB0000001C4F20001884254D140F6020449E027
:100DC00041F60041C4F20001884238D042F20001ED
:100DD000C4F20001884235D00021C4F201018842EA
:100DE00040D14FF4106435E041F20041C4F20001FB
:100DF00088422AD041F60001C4F20001884231D174
:100E000040F6060426E044F20041C4F201018842A3
:100E10001ED044F60001C4F20101884218BF10BD83
:100E200040F6121416E040F6030413E040F60114F5
:100E300010E04FF400640DE040F601040AE040F6D3
:100E4000070407E040F6080404E040F6050401E06A
:100E500040F611142046FFF751FF2046BDE8104030
:100E6000FFF73CBF10BD0000016841F001010160C7
:100E7000704700000A8840F2004C826240F6FF3260
:100E8000C4F200029042C4F2010C0FDCB0F1804FBA
:100E900019D040F20043C4F20003984213D040F648
:100EA0000003C4F2000398420DD018E040F600435E
:100EB000C4F20003984206D0604504D00023C4F277
:100EC000010398420BD1036823F0700303604B8841
:100ED00002681A4302608A8803681A43026080B578
:100EE00041F20002D1F808E020F48063C4F200026D
:100EF0009342C0F82CE007D0026822F440720260EE
:100F0000CA8803681A43026040F48062624504BFE5
:100F1000097B0163416941F00101416180BD00002D
:100F2000C2681143C1607047C94301617047000046
:100F3000C26800690A40084018BF0120002A18BF93
:100F4000012210407047000010B540F60340FFF743
:100F5000B5FE40F60044C4F202042046FFF780FBD1
:100F60002046012100224FF40043FFF78FFB20466B
:100F7000002102224FF40043BDE81040FFF7B0BB50
:100F800040F60040C4F202004FF40041FFF766BB98
:100F900010B584B04FF48850FFF790FE0024C4F2DF
:100FA00001042046FFF7BCFE44F6206000900020BC
:100FB00041F28831019002918DF80C00694620467B
:100FC000FFF758FF20460021FFF7A8FE2046FFF755
:100FD0004BFF20460121FFF7A3FF19200121012229
:100FE000FFF7BCFD04B010BD02E008C8121F08C125
:100FF000002AFAD170477047002001E001C1121F9A
:10100000002AFBD170470000000001020304000029
:101010000054004000580040281000080000002044
:0810200010040000F80F0008A5
:04000005080001AD41
:00000001FF
