:020000040800F2
:1000000018040020C1010008C9010008CB01000844
:10001000CD010008CF010008D10100080000000058
:10002000000000000000000000000000D3010008F4
:10003000D501000800000000D7010008D901000820
:10004000DB010008DB010008DB010008DB01000820
:10005000DB010008DB010008DB010008DB01000810
:10006000DB010008DB010008DB010008DB01000800
:10007000DB010008DB010008DB010008DB010008F0
:10008000DB010008DB010008DB010008DB010008E0
:10009000DB010008DB010008DB010008DB010008D0
:1000A000DB010008B5030008DB010008DB010008E4
:1000B000DB010008DB010008DB010008DB010008B0
:1000C000DB010008DB010008DB010008DB010008A0
:1000D000DB010008DB010008DB010008DB01000890
:1000E000DB010008DB010008DB010008DB01000880
:1000F000DB010008DB010008DB010008DB01000870
:10010000DB010008DB010008DB010008DB0100085F
:10011000DB010008DB010008DB010008DB0100084F
:10012000DB010008DB010008DB010008DB0100083F
:10013000DB010008DB010008DB010008DB0100082F
:10014000DB010008DB010008DB010008DB0100081F
:10015000DB010008DB010008DB010008DB0100080F
:10016000DB010008DB010008DB010008DB010008FF
:10017000DB010008DB010008DB01000800000000D3
:10018000DB010008DB010008DB010008DB010008DF
:10019000DB010008DB010008DB01000800000000B3
:1001A000DB010008DB010008DB010008DFF80CD0F0
:1001B00000F036F800480047290D00081804002018
:1001C0000648804706480047FEE7FEE7FEE7FEE7F1
:1001D000FEE7FEE7FEE7FEE7FEE7FEE75102000866
:1001E000AD010008421C10F8011B0029FBD1801A48
:1001F000704730B50B46014600202022012409E05B
:1002000021FA02F59D4205D303FA02F5491B04FACF
:1002100002F52844151EA2F10102F1DC30BD0000F8
:100220001CB509480090094801900546009C06E06D
:10023000E06840F0010394E8070098471034AC42AE
:10024000F6D3FFF7B7FF0000BC100008CC10000881
:1002500081B04EF68851CEF200010A6843F60800DC
:1002600042F47002C4F202000A6050F8081C41F027
:10027000010140F8081C00BF50F8081C8907FBD595
:10028000016841F08001016000210091009A4F2A2D
:1002900006D800BF009A01320092009A502AF9D382
:1002A000026842F090020260009100994F2905D83F
:1002B00000990131009100995029F9D301684FF656
:1002C000FF7221F00301016050F8081CCFF6F662BE
:1002D000114040F8081C50F8081C4FF0000C21F4A5
:1002E000802140F8081CC0F800C0026843F21002E8
:1002F000C2F2004240F8042CC0F804C050F8082CA8
:1003000042F4803240F8082C4FF6FE7250F8081C78
:10031000013A4CF10003890301D4002BF6D150F8C7
:10032000081C890301D400BFFEE7826B47F200017D
:1003300042F08052C4F2000182630A6842F44042F3
:100340000A6002680260026842F4004202600268C9
:1003500042F4A052026046F21942C0F6401240F840
:10036000042C50F8082C42F0807240F8082C00BF92
:1003700050F8082C9201FBD50A6842F480320A60DA
:100380004A68D203FCD50A6842F400320A6000BF12
:100390004A689203FCD5016821F0030101600168FD
:1003A00041F00201016000BF01680907FCD501B0FE
:1003B0007047000010B50024C4F20104204601215A
:1003C00000F06EFD002808BF10BD04F586304FF424
:1003D000004100F02BFA20460121BDE8104000F05A
:1003E0005BBD0000002808BF7047002146F6605240
:1003F000013A00BFFCD101318142F7D170470000C2
:10040000F0B581B00C46511ECAB2032A05461ED86B
:1004100041F25E0C0698C0F6000C0CEB43025678D5
:1004200000284FF0020018BF04361CF8133000EB10
:100430004100032202EB4107C2B22846214600F0E8
:10044000CDFBF3B2FAB22846214600F0C7FB28469E
:100450002146812201B0BDE8F04000F03DBA000025
:100460002DE9F04782B0044600F010FB41F2B408D9
:100470004FF00009C0F600080FF2480A6D4658F820
:10048000296000271AF807202846314600F006FCAC
:10049000DDE90001C4E90001607950B90137042F9A
:1004A000F0D1B9F1000F09F10109E8D002B0BDE8BF
:1004B000F087D4E900010022002300F08FFB02B096
:1004C000BDE8F087C0C2C4C62DE9F04381B09946AB
:1004D0001746DDF8208016010A220F230C46054638
:1004E00000F07CFB284621460B22002300F076FB1F
:1004F00006F10F00C3B2284621460C2200F06EFB25
:100500003B09284621460D2200F068FB284621467B
:1005100006220F234FEA091600F060FB2846214609
:100520000722002300F05AFB06F10F00C3B2284651
:100530002146082200F052FB4FEA191328462146B3
:10054000092200F04BFB284621460E220F234FEADA
:10055000081600F043FB284621460F22002300F036
:100560003DFB06F10F00C3B228462146102200F0E1
:1005700035FB4FEA181328462146112201B0BDE889
:10058000F04300F02BBB00002DE9F04782B0044699
:1005900000F07CFA41F2B4084FF00009C0F6000800
:1005A0000FF2B40A6D4658F8296000271AF80720A0
:1005B0002846314600F072FBDDE90001C4E9000184
:1005C000607950B90137042FF0D1B9F1000F09F16A
:1005D0000109E8D002B0BDE8F087D4E90054212237
:1005E0002846214600F078F92846214602220023B9
:1005F00000F0F4FA284621460322002300F0EEFA28
:10060000284621460422002300F0E8FA2846214625
:100610000522002300F0E2FA2846214606220023A4
:1006200000F0DCFA284621460722002300F0D6FA23
:10063000284621460822002300F0D0FA2846214609
:100640000922002300F0CAFA28462146812200F040
:1006500043F902B0BDE8F087E0E2E4E62DE9F047B7
:1006600082B00646104614468846FFF7BBFD20447C
:10067000471E04254FF000094FF0010A0AE000BFB1
:10068000EAB2304641462523CDF80090FFF7B8FE88
:10069000013D32DDA742F3D33878A0F13001CBB26F
:1006A000092B09D87878EAB22E2814D13046414671
:1006B000CDF800A013E000BFA0F16101C9B2192973
:1006C00001D8573805E0A0F14101C9B219290AD86B
:1006D0003738EAB2C3B230464146CDF80090FFF752
:1006E0008FFE013FD4E72D2804D1EAB230464146BF
:1006F0002423F2E70135013FCAE702B0BDE8F087E5
:100700002DE9F04782B0044600F0C0F94FF000092F
:100710000FF24C080FF2500A6D4658F82960002776
:100720001AF807202846314600F0B8FADDE9000142
:10073000C4E90001607950B90137042FF0D1B9F153
:10074000000F09F10109E8D002B0BDE8F087D4E953
:1007500000010022002300F041FA02B0BDE8F0875A
:100760000054004000580040C8CACCCE70B50C46BA
:1007700045F629410546642A28BF6422C2EB0230AF
:10078000C0F28F21A0FB0106284621460622002345
:1007900000F024FA284621460722002300F01EFA22
:1007A000F3B228462146082200F018FA330A2846F8
:1007B00021460922BDE8704000F010BAF0B5D0F82B
:1007C00020E0D0F824C000230F27002505E000BF5B
:1007D0000135082D03F104030CD022FA05F6F607C3
:1007E000F6D007FA03F62EEA060601FA03F446EA03
:1007F000040EEDE7082300240F2504E00133102B3D
:1008000004F104040CD022FA03F6F607F6D005FA38
:1008100004F62CEA060701FA04F647EA060CEDE7AF
:10082000C0F820E0C0F824C0F0BD0000C1627047ED
:100830002DE9F041D0F800E0D0F80CC000244FF0D2
:100840000308002605E000BF0136102E04F1020463
:1008500012D023FA06F7FF07F6D008FA04F72EEABB
:10086000070E01FA04F54EEA050E2CEA070702FA14
:1008700004F547EA050CE7E7C0F800E0C0F80CC053
:10088000BDE8F0810129416814BF994319434160D3
:10089000B0B5D0F808C000214FF0030E002404E0EA
:1008A0000134102C01F102010CD023FA04F5ED07FC
:1008B000F6D00EFA01F52CEA050C02FA01F54CEA25
:1008C000050CEDE7C0F808C0B0BD0000026822F4D6
:1008D000806211430160704770B515460E460446AC
:1008E000204640F2016100F0C9F80028F8D1204606
:1008F00000F00EFA20464FF4A06100F0BFF8002887
:10090000F8D0F1B220466FF0010200F051F948F240
:10091000A166C0F2010600BF204640F2015100F07E
:10092000ADF818B9013EF7D1002519E0204640F294
:10093000015100F08FF800BF204640F2075100F04F
:100940009DF80128F8D12046294600F07BF800BF29
:10095000204640F2025100F091F80028F8D001251D
:10096000204600F0DBF9284670BD0000F0B581B0EC
:100970000446022017460D4600F020FA4DF683612A
:10098000C4F21B31A0FB0112910C48F2FF62C0F2CD
:10099000933290420A4688BF3C22636848F2A066C0
:1009A000C0F2010623F03F03B54243EA020363604D
:1009B00007D844F2C042C0F2843290422BD33C218B
:1009C00031E041F68021C0F206018D4237D84FF464
:1009D0009671514348F63812C0F24102A1FB02124F
:1009E000511C2162E169192221F48041002F18BFB6
:1009F00001F5804108BF0322E161E1696A4341F4E6
:100A00000041B0FBF2F0E161E169020508BF41F08D
:100A10000101084312E048F27F42C0F21E029042F8
:100A20008CBF0131022121626900B0FBF1F0042882
:100A300098BF0420E1696FF31F300843E06101B003
:100A4000F0BD000001617047016841F001010160E3
:100A50007047000040F20152914202D14169806921
:100A6000704701F01F0289094FF0010C0B580CFA76
:100A700002F223EA02020A50704700008A09105865
:100A800001F01F01C84000F00100704770B540F64A
:100A9000014000F0F1F940F20044C4F202042046A3
:100AA000022101224FF48073FFF7C2FE204601218C
:100AB00002224FF48073FFF7E5FE204604214FF435
:100AC0008072FFF77BFE2046022101224FF4007363
:100AD000FFF7AEFE2046012102224FF40073FFF71C
:100AE000D1FE204604214FF40072FFF767FE41F269
:100AF000150000F0C1F948F2A065A4F5D836C0F29F
:100B00000105304629460022FFF730FF304600211C
:100B10000022A02300F054F830464FF48061FFF724
:100B2000D5FE3046FFF790FF40F6054000F0A4F9EF
:100B300004F580563046022101220223FFF778FE99
:100B40003046012102220223FFF79CFE3046042199
:100B50000222FFF733FE3046022101220123FFF774
:100B600067FE3046012102220123FFF78BFE30464B
:100B700004210122FFF722FE41F2160000F07CF969
:100B8000A4F5D634204629460022FFF7EFFE204682
:100B900000210022A02300F013F820464FF48061CA
:100BA000FFF794FE2046BDE87040FFF74DBF000000
:100BB00021F00101023218BF0131016170470000CC
:100BC000D0F800C06FF39F232CF0020C41EA0C0117
:100BD000016043EA0201816070470000F0B581B016
:100BE0001D4616460F460446204640F20161FFF7B7
:100BF00045FF0028F8D1204600F08AF820464FF43F
:100C0000A061FFF73BFF0028F8D0F9B220466FF053
:100C10000102FFF7CDFF48F2A167C0F2010700BF54
:100C2000204640F20151FFF729FF18B9013FF7D1E3
:100C300000252DE0204640F20151FFF70BFF00BFD9
:100C4000204640F20751FFF719FF0128F8D120464E
:100C50003146FFF7F7FE00BF204640F20251FFF792
:100C60000DFF0028F8D000BF204640F20751FFF7E3
:100C700005FF0128F8D120462946FFF7E3FE00BF13
:100C8000204640F20251FFF7F9FE0028F8D0012576
:100C9000204600F043F8284601B0F0BD70B5164676
:100CA0000D4604460160027100206071284640F242
:100CB0000161FFF7E3FE0028F8D1284600F028F88C
:100CC00028464FF4A061FFF7D9FE0028F8D0284647
:100CD00031466FF00102FFF76BFF48F2A166C0F2E8
:100CE000010600BF284640F20151FFF7C7FE18B9C0
:100CF000013EF7D1002605E0284640F20151FFF7FA
:100D0000A9FE0126284600F009F8667170BD0000B2
:100D1000016841F48071016070470000016841F48E
:100D2000007101607047000088B0002402A8ADF88F
:100D30001C40CDE90544FFF727FCDDE9020140F244
:100D40000808C2F20008C8E9000102A8FFF7D8FCB1
:100D5000DDE9020140F21007C2F20007C7E9000115
:100D600002A8FFF77DFBDDE9020140F20002C2F2BA
:100D70000002C2E90001002200230094FFF7A4FB57
:100D80000DA505AE30462946224600F095F8D8E973
:100D900000013246FFF762FCD7E90001E2B2FFF73B
:100DA000E5FC40F6B830FFF71DFB00205B2C38BF98
:100DB00004F10A000446E5E72564000010B543F697
:100DC0000402C4F2020253680146C3F3810342F2F3
:100DD0000040022BC0F2F40006D0012B1FD147F6D1
:100DE0004000C0F27D101AE0D2F800C013680CF089
:100DF0003F0CC3F3881E13681468C3F301436402F5
:100E000047F64004C0F27D1458BF0446B4FBFCF41E
:100E1000022000EB430004FB0EF3B3FBF0F0536839
:100E200011A4C3F30313E35C546841F2AA0CC4F3A6
:100E30008224C0F6000C1CF804E05268032907D88D
:100E400020FA03F3DFE801F00F020609184610BD8F
:100E5000002010BD23FA0EF010BDC2F342301CF882
:100E6000000023FA00F010BD0000000000000000A8
:100E7000010203040607080943F6000300F01F01FE
:100E80008009C4F202034FF0010CC2580CFA01F1C0
:100E90001143C15070470000C94301617047000011
:100EA000C26800690A40084018BF0120002A18BF24
:100EB00001221040704700000FB4084B10B504A980
:100EC00002AA039800F01CF8044602A9002000F0D2
:100ED000C1F8204610BC5DF814FB00005510000856
:100EE00002E008C8121F08C1002AFAD170477047F3
:100EF000002001E001C1121F002AFBD17047000051
:100F00002DE9FF4F89B09B460446002506E02528C1
:100F10000BD05A460B999047641C6D1C2078002812
:100F2000F5D10DB02846BDE8F08F0027B846012264
:100F3000474900E0074314F8013F203B02FA03F061
:100F40000842F7D120782E2819D114F8010F47F064
:100F500004072A280ED06FF02F022078A0F130016C
:100F600009290CD808EB880102EB410100EB0108CC
:100F7000641CF2E70A98641C50F8048B0A902078ED
:100F80000028CED0642808D0692806D075281ED045
:100F90005A460B9990476D1C58E00A994FF00A0980
:100FA00001C90A91002802DA40422D2102E03905E8
:100FB00004D52B218DF82010012103E0F90704D07E
:100FC0002021F7E78A4608AE0DE00021FAE70A99EA
:100FD0004FF00A0901C90A91F7E74946FFF709F9F5
:100FE000303106F8011D0028F7D1ADEB060000F105
:100FF0002009780701D44FF00108C84502DDA8EBAD
:10100000090000E000208046002706E008A85A46B4
:10101000C05D0B9990476D1C7F1C5745F6DB04E0C3
:1010200030205A460B9990476D1CB8F10001A8F189
:101030000108F5DC05E016F8010B5A460B999047BC
:101040006D1CB9F10001A9F10109F4DC641C65E72C
:10105000092801000A68531C0B6010707047F801E2
:101060003000D802780230036803E8033800F80340
:101070007803B803E003C801F002C8038803E8015D
:10108000B00320007000D003C001A802A002E0025B
:101090009803380380022003C003F00110035003BB
:1010A000B0017003480200020000000000000102CD
:1010B000030400000054004000580040CC10000819
:0C10C0000000002018040000F00E0008E2
:04000005080001AD41
:00000001FF
