:020000040800F2
:1000000020040020C1010008C9010008CB0100083C
:10001000CD010008CF010008D10100080000000058
:10002000000000000000000000000000D3010008F4
:10003000D501000800000000D7010008D901000820
:10004000DB010008DB010008DB010008DB01000820
:10005000DB010008DB010008DB010008DB01000810
:10006000DB010008DB010008DB010008DB01000800
:10007000DB010008DB010008DB010008DB010008F0
:10008000DB010008DB010008DB010008DB010008E0
:10009000DB010008DB010008DB010008DB010008D0
:1000A000DB01000889090008DB010008DB0100080A
:1000B000AD090008DB010008DB010008DB010008D6
:1000C000DB010008DB010008DB010008DB010008A0
:1000D000DB010008DB010008DB010008DB01000890
:1000E000DB010008DB010008DB010008DB01000880
:1000F000DB010008DB010008DB010008DB01000870
:10010000DB010008DB010008DB010008DB0100085F
:10011000DB010008DB010008DB010008DB0100084F
:10012000DB010008DB010008DB010008DB0100083F
:10013000DB010008DB010008DB010008DB0100082F
:10014000DB010008DB010008DB010008DB0100081F
:10015000DB010008DB010008DB010008DB0100080F
:10016000DB010008DB010008DB010008DB010008FF
:10017000DB010008DB010008DB01000800000000D3
:10018000DB010008DB010008DB010008DB010008DF
:10019000DB010008DB010008DB01000800000000B3
:1001A000DB010008DB010008DB010008DFF80CD0F0
:1001B00000F010FB00480047D11300082004002085
:1001C0000648804706480047FEE7FEE7FEE7FEE7F1
:1001D000FEE7FEE7FEE7FEE7FEE7FEE7250800088C
:1001E000AD010008421C10F8011B0029FBD1801A48
:1001F00070472DE9FE4F804681EA0300C00F0C4690
:10020000009021F0004123F00045B8EB0200A94125
:1002100005D24046214690461C460B46024623F036
:100220000040104347D0270DC7F30A00C3F30A511B
:100230000290401A019040286BDAC3F3130040F497
:10024000801B0098924620B10023D2EB030A63EB97
:100250000B0B01985946C0F14002504600F0D4F90A
:1002600006460D4650465946019A00F0DCF910EB5F
:1002700008006141002487EA115284EAE7731A43B7
:1002800040D0009A62B3019A012A4FEA075215DC66
:10029000001B61EB02014FF0004202EA0752CDE978
:1002A0000042001C41F5801132462B4600F013FA43
:1002B00003B0BDE8F08F40462146F9E7001B61EB33
:1002C0000201001C41F5801300185B412018A2F5C3
:1002D000001747EB030140EAD570B6196D4111E0F4
:1002E0006D084FEA360645EAC0754FEA0752001B13
:1002F00061EB0201001C41F5801149084FEA300012
:100300000019514132462B4603B0BDE8F04F00F0D2
:10031000D3B90098012240000023D0EB020263EB26
:10032000E073009821464FEAE074B8EB000061EBFF
:100330000401E9E783F000435BE781F0004158E7FF
:100340002DE9FE4F81EA030404F0004421F000414E
:1003500000944FF0000B23F0004350EA01045ED0FC
:1003600052EA03045BD0C3F30A54C1F30A552C4488
:10037000A4F2F3340194A0FB0254C1F3130141F43D
:100380008011C3F3130343F4801301FB024400FB09
:10039000034E840A970A44EA815447EA8357A4FB30
:1003A000076802958D0A05FB07854FEA932C04FB2D
:1003B0000C542705029D4FEA065847EA1637B5EB5D
:1003C00008056EEB070C870E920E47EA811742EA8A
:1003D0008312A7FB0201B6EB0B0164EB00042B0DAB
:1003E00043EA0C335E1844EB1C50DA465146E7FBF7
:1003F0000201C5F313044FEA0B3343EA14534FEAE7
:100400000432019C43EA0603A4F10C040294009C0C
:10041000CDE900B400F05FF903B0BDE8F08F002033
:100420000146F9E72DE9F04D81EA030404F0004BA1
:1004300021F0004514464FF0000A23F0004150EA35
:10044000050220D054EA01021DD0C5F30A57024626
:10045000C5F31303C1F31300C1F30A5640F480152A
:1004600043F48013A7EB0608101BD64608F2FD38AC
:1004700073EB050002D308F1010801E092185B411B
:10048000B8F1000F03DA00200146BDE8F08D00202E
:100490004FF48011064684460EE0171B73EB0507E8
:1004A00005D3121B63EB050306434CEA010C490814
:1004B0004FEA300092185B4150EA0107EDD152EA51
:1004C000030012D082EA040083EA0501084305D044
:1004D000101BAB4106D20122002306E000224FF0A0
:1004E000004302E06FF0010253101AEB06004CEBE0
:1004F000085110EB0A0041EB0B01BDE8F04D00F094
:10050000DBB80EB540F2334102910021CDE9001174
:100510000A460B4600F0DFF803B000BD00F00042D1
:1005200030F000400AD0C10D01F56071C0F3160033
:1005300042EA0151C20840071143704700200146BA
:10054000704701F0004330B421F0004150EA01024D
:1005500006D00A0DA2F56072C1F31301002A02DC75
:1005600030BC00207047440F44EAC104C100E018C9
:1005700030BC00EBC25000F068B830B50B46014605
:1005800000202022012409E021FA02F59D4205D332
:1005900003FA02F5491B04FA02F52844151EA2F1DC
:1005A0000102F1DC30BD2DE9F05F054600209246E6
:1005B0009B4688460646814640241BE02846414625
:1005C0004746224600F01EF953465A46C01A91414A
:1005D00010D311461846224600F016F82D1A67EB84
:1005E00001084F4622460120002100F00DF817EBCC
:1005F00000094E41201EA4F10104DFDC48463146CB
:100600002A464346BDE8F09F202A04DB203A00FA40
:1006100002F1002070479140C2F1200320FA03F359
:10062000194390407047202A06DBCB17203A41FA45
:1006300002F043EAE07306E041FA02F3D040C2F16F
:10064000200291400843194670470029A8BF70470F
:10065000401C490008BF20F00100704710B4B0FAF8
:1006600080FC00FA0CF050EA010404BF10BC704793
:1006700049B1CCF1200421FA04F411FA0CF118BFAD
:10068000012121430843A3EB0C01CB1D4FEA00617C
:100690004FEA102042BF002010BC704700EBC3504F
:1006A00010440029A4BF10BC7047401C490008BF7B
:1006B00020F0010010BC704710B5141E73F1000447
:1006C00008DA401C41F1000192185B411A4301D144
:1006D00020F0010010BD2DE9F04D92469B4611B16E
:1006E000B1FA81F202E0B0FA80F220329046FFF7D0
:1006F0008BFF04460F4640EA0A0041EA0B015346CD
:100700005A46084313D0114653EA010019D0C8F1E4
:100710004002504600F076F805460E4650465946CF
:100720004246FFF771FF084305D0012004E0204650
:100730003946BDE8F08D0020054346EAE0762C43BB
:1007400037430A986305E40AA0EB08000022FD0A7B
:1007500044EA47540A3002D500200146E9E7010582
:1007600010196941DDE9084500196941BDE8F04DFE
:10077000A2E7C1F30A52C1F3130140F2FF3341F47F
:1007800080119A4202DA00200146704740F233435A
:100790009A42A2F2334202DC524200F033B8FFF731
:1007A00033BF000030B5041E71F1000404DB4FF0CC
:1007B0000044404264EB0101141E73F1000405DBA8
:1007C0001C464FF00043524263EB0403994208BFBA
:1007D000904230BD1CB5094800900948019005467B
:1007E000009C06E0E06840F0010394E807009847A9
:1007F0001034AC42F6D3FFF7DDFC0000E82100081E
:10080000F8210008202A04DB203A21FA02F0002116
:10081000704721FA02F3D040C2F120029140084310
:100820001946704781B04EF68851CEF200010A6831
:1008300043F6080042F47002C4F202000A6050F865
:10084000081C41F0010140F8081C00BF50F8081CCA
:100850008907FBD5016841F080010160002100910A
:10086000009A4F2A06D800BF009A01320092009ADF
:10087000502AF9D3026842F0900202600091009978
:100880004F2905D800990131009100995029F9D3D9
:1008900001684FF6FF7221F00301016050F8081C57
:1008A000CFF6F662114040F8081C50F8081C4FF0D3
:1008B000000C21F4802140F8081CC0F800C0026838
:1008C00043F21002C2F2004240F8042CC0F804C007
:1008D00050F8082C42F4803240F8082C4FF6FE7293
:1008E00050F8081C013A4CF10003890301D4002B95
:1008F000F6D150F8081C890301D400BFFEE7826BD3
:1009000047F2000142F08052C4F2000182630A689B
:1009100042F440420A6002680260026842F4004207
:100920000260026842F4A052026046F21942C0F628
:10093000401240F8042C50F8082C42F0807240F825
:10094000082C00BF50F8082C9201FBD50A6842F42D
:1009500080320A604A68D203FCD50A6842F4003249
:100960000A6000BF4A689203FCD5016821F00301C8
:100970000160016841F00201016000BF01680907E0
:10098000FCD501B07047000010B50024C4F201048A
:100990002046012100F064FF002808BF10BD20465A
:1009A0000121BDE8104000F057BF000080B54FF0B6
:1009B0008040012100F054FF002808BF80BD4FF0A7
:1009C0008040012100F048FF40F21800C2F2000010
:1009D000018840F2DC534A1C9942028005D3002171
:1009E0000180BDE8804000F047BF80BD002808BFFF
:1009F0007047002146F66052013A00BFFCD1013138
:100A00008142F7D170470000F0B581B00C46511E0D
:100A1000CAB2032A05461ED842F28C1C0698C0F6BC
:100A2000000C0CEB4302567800284FF0020018BF70
:100A300004361CF8133000EB4100032202EB41079F
:100A4000C2B22846214600F067FBF3B2FAB228464C
:100A5000214600F061FB28462146812201B0BDE815
:100A6000F04000F051B900002DE9F04782B0044693
:100A700000F0AAFA42F2E0184FF00009C0F60008B0
:100A80000FF2B40A6D4658F8296000271AF80720BB
:100A90002846314600F056FCDDE90001C4E90001BA
:100AA000607950B90137042FF0D1B9F1000F09F185
:100AB0000109E8D002B0BDE8F087D4E90054212252
:100AC0002846214600F020F928462146022200232C
:100AD00000F022FB284621460322002300F01CFBE5
:100AE000284621460422002300F016FB2846214612
:100AF0000522002300F010FB284621460622002391
:100B000000F00AFB284621460722002300F004FBE0
:100B1000284621460822002300F0FEFA28462146F6
:100B20000922002300F0F8FA28462146812200F02D
:100B3000EBF802B0BDE8F087E0E2E4E62DE9F0472B
:100B400082B00646104614468846FFF74BFB204409
:100B5000471E04254FF000094FF0010A0AE000BFCC
:100B6000EAB2304641462523CDF80090FFF74CFF0E
:100B7000013D32DDA742F3D33878A0F13001CBB28A
:100B8000092B09D87878EAB22E2814D1304641468C
:100B9000CDF800A013E000BFA0F16101C9B219298E
:100BA00001D8573805E0A0F14101C9B219290AD886
:100BB0003738EAB2C3B230464146CDF80090FFF76D
:100BC00023FF013FD4E72D2804D1EAB23046414645
:100BD0002423F2E70135013FCAE702B0BDE8F08700
:100BE000F0B5D0F820E0D0F824C000230F2700256E
:100BF00005E000BF0135082D03F104030CD022FAF3
:100C000005F6F607F6D007FA03F62EEA060601FA0D
:100C100003F446EA040EEDE7082300240F2504E060
:100C20000133102B04F104040CD022FA03F6F6076A
:100C3000F6D005FA04F62CEA060701FA04F647EAAC
:100C4000060CEDE7C0F820E0C0F824C0F0BD0000BD
:100C5000C16270472DE9F041D0F800E0D0F80CC037
:100C600000244FF00308002605E000BF0136102ED7
:100C700004F1020412D023FA06F7FF07F6D008FAAF
:100C800004F72EEA070E01FA04F54EEA050E2CEAE7
:100C9000070702FA04F547EA050CE7E7C0F800E0A9
:100CA000C0F80CC0BDE8F0810129416814BF994328
:100CB00019434160B0B5D0F808C000214FF0030ED1
:100CC000002404E00134102C01F102010CD023FABD
:100CD00004F5ED07F6D00EFA01F52CEA050C02FA40
:100CE00001F54CEA050CEDE7C0F808C0B0BD000006
:100CF000026822F48062114301607047026822F4A6
:100D0000006211430160704770B515460E460446F7
:100D1000204640F2016100F04FF90028F8D120464A
:100D200000F04AFB20464FF4A06100F045F900288E
:100D3000F8D0F1B220466FF0010200F0D7F948F286
:100D4000A166C0F2010600BF204640F2015100F04A
:100D500033F918B9013EF7D1002519E0204640F2D9
:100D6000015100F015F900BF204640F2075100F094
:100D700023F90128F8D12046294600F0FFF800BFEA
:100D8000204640F2025100F017F90028F8D0012562
:100D9000204600F017FB284670BD0000F0B581B07A
:100DA0001D4616460F460446204640F2016100F0FB
:100DB00003F90028F8D1204600F0FEFA20464FF44F
:100DC000A06100F0F9F80028F8D0F9B2204601221D
:100DD00000F08CF948F2A167C0F20107204640F20A
:100DE000015100F0E9F838B9013FF7D1204600F091
:100DF000E9FA002001B0F0BD204640F2015100F0B8
:100E0000C7F8022D03D820460021FFF771FF012DFE
:100E100007D0022D11D120464FF40061FFF76EFF7D
:100E20000BE0204600F0CEFA07E000BF57B32046A3
:100E300040F2065100F0C0F8E8B9EFB2022F0FD02F
:100E4000032FF3D1204640F2025100F0B5F80028FC
:100E5000F8D020460021FFF74BFF022FE7D100BF5B
:100E6000204640F2025100F0A7F80028F8D02046B2
:100E700000F0A8FADBE7204600F07CF806F8010B4A
:100E8000013DDAE720464FF48061FFF731FF20464D
:100E90000021FFF733FF012001B0F0BDF0B581B0B4
:100EA0000446022017460D4600F018FB4DF68361FC
:100EB000C4F21B31A0FB0112910C48F2FF62C0F298
:100EC000933290420A4688BF3C22636848F2A0668B
:100ED000C0F2010623F03F03B54243EA0203636018
:100EE00007D844F2C042C0F2843290422BD33C2156
:100EF00031E041F68021C0F206018D4237D84FF42F
:100F00009671514348F63812C0F24102A1FB021219
:100F1000511C2162E169192221F48041002F18BF80
:100F200001F5804108BF0322E161E1696A4341F4B0
:100F30000041B0FBF2F0E161E169020508BF41F058
:100F40000101084312E048F27F42C0F21E029042C3
:100F50008CBF0131022121626900B0FBF1F004284D
:100F600098BF0420E1696FF31F300843E06101B0CE
:100F7000F0BD00000069C0B2704700000161704719
:100F800070470000016841F00101016070470000F6
:100F900040F20152914202D141698069704701F0EB
:100FA0001F0289094FF0010C0B580CFA02F223EAD8
:100FB00002020A50704700008A09105801F01F0110
:100FC000C84000F00100704770B540F6014000F0E5
:100FD000E3FA40F20044C4F2020420460221012256
:100FE0004FF48073FFF736FE2046012102224FF4B2
:100FF0008073FFF759FE204604214FF48072FFF7FB
:10100000EFFD2046022101224FF40073FFF722FE7C
:101010002046012102224FF40073FFF745FE2046CF
:1010200004214FF40072FFF7DBFD41F2150000F0E0
:10103000B3FA48F2A065A4F5D836C0F201053046EF
:1010400029460022FFF72AFF304600210022A02374
:1010500000F054F830464FF48061FFF749FE304607
:10106000FFF790FF40F6054000F096FA04F5805631
:101070003046022101220223FFF7ECFD3046012118
:1010800002220223FFF710FE304604210222FFF75E
:10109000A7FD3046022101220123FFF7DBFD304688
:1010A000012102220123FFF7FFFD30460421012226
:1010B000FFF796FD41F2160000F06EFAA4F5D63463
:1010C000204629460022FFF7E9FE204600210022A3
:1010D000A02300F013F820464FF48061FFF708FECC
:1010E0002046BDE87040FFF74DBF000021F0010130
:1010F000023218BF0131016170470000D0F800C012
:101100006FF39F232CF0020C41EA0C01016043EACB
:101110000201816070470000F0B581B01D4616469F
:101120000F460446204640F20161FFF745FF0028C4
:10113000F8D1204600F040F920464FF4A061FFF7B7
:101140003BFF0028F8D0F9B220466FF00102FFF70C
:10115000CDFF48F2A167C0F2010700BF204640F270
:101160000151FFF729FF18B9013FF7D100252DE004
:10117000204640F20151FFF70BFF00BF204640F22E
:101180000751FFF719FF0128F8D120463146FFF734
:10119000F5FE00BF204640F20251FFF70DFF002888
:1011A000F8D000BF204640F20751FFF705FF0128A5
:1011B000F8D120462946FFF7E1FE00BF204640F265
:1011C0000251FFF7F9FE0028F8D00125204600F073
:1011D000F9F8284601B0F0BD2DE9F04381B0089D33
:1011E000984691460E460446204640F20161FFF7BC
:1011F000E3FE0028F8D1204600F0DEF820464FF448
:10120000A061FFF7D9FE0028F8D0F6B2204631469B
:101210006FF00102FFF76AFF48F2A167C0F2010711
:10122000204640F20151FFF7C7FE10B9013FF7D148
:101230002EE0204640F20151FFF7AAFE204640F280
:101240000751FFF7B9FE0128F8D120464946FFF7BC
:1012500095FE00BF204640F20251FFF7ADFE002888
:10126000F8D0204600F0A8F820464FF4A061FFF720
:10127000A3FE0028F8D0204631460122FFF736FFB2
:10128000204640F20151FFF797FE40B9013FF7D1E8
:10129000204600F097F8002001B0BDE8F08320461A
:1012A00040F20151FFF774FE022D03D820460021C1
:1012B000FFF71EFD012D07D0022D10D120464FF45F
:1012C0000061FFF71BFD0AE0204600F07BF806E016
:1012D00056B3204640F20651FFF76EFEE8B9EEB273
:1012E000022E0FD0032EF3D1204640F20251FFF719
:1012F00063FE0028F8D020460021FFF7F9FC022EFB
:10130000E7D100BF204640F20251FFF755FE00280A
:10131000F8D0204600F056F8DBE72046FFF72AFE1B
:1013200008F8010B013DDAE720464FF48061FFF732
:10133000DFFC20460021FFF7E1FC012001B0BDE801
:10134000F083000070B516460D4604460160027138
:1013500000206071284640F20161FFF72DFE002851
:10136000F8D1284600F028F828464FF4A061FFF78E
:1013700023FE0028F8D0284631466FF00102FFF71F
:10138000B5FE48F2A166C0F2010600BF284640F251
:101390000151FFF711FE18B9013EF7D1002605E013
:1013A000284640F20151FFF7F3FD0126284600F0E0
:1013B00009F8667170BD0000016841F48071016038
:1013C00070470000016841F400710160704700003F
:1013D00086B00020ADF81400CDE903006846FFF7A1
:1013E00043FBDDE9000140F20006C2F20006C6E957
:1013F0000001684600F066F9DDE9000140F2100BDB
:10140000C2F2000BCBE90001684600F0D5F8DDE937
:10141000000140F20809C2F200094FF4FA6429A25F
:1014200003AD4FF000084FF0000AC9E9000107E0E2
:1014300000208DF810004FF03030039064242A46CD
:10144000D6E900015746FFF779FB2046FFF7CEFAB1
:10145000D9E9000100F0E6F88246F8B2824507D0EB
:10146000BAF1310F19D0BAF1320F08BF4FF00208AC
:10147000B8F1020F16D0B8F1010FD9D1DBE90001A4
:1014800000F056F910EE100AFFF748F802460B4636
:10149000284610A100F0F8F9D0E74FF00108B8F1A4
:1014A000020FE8D1DBE9000100F042F910EE900AEA
:1014B000FFF734F802460B46284604A100F0E4F991
:1014C000BCE700BF2D2D2D2D0000000025322E3150
:1014D0006648000025322E316643000010B543F601
:1014E0000402C4F2020253680146C3F3810342F2CC
:1014F0000040022BC0F2F40006D0012B1FD147F6AA
:101500004000C0F27D101AE0D2F800C013680CF061
:101510003F0CC3F3881E13681468C3F301436402CD
:1015200047F64004C0F27D1458BF0446B4FBFCF4F7
:10153000022000EB430004FB0EF3B3FBF0F0536812
:1015400011A4C3F30313E35C546842F2D81CC4F340
:101550008224C0F6000C1CF804E05268032907D866
:1015600020FA03F3DFE801F00F020609184610BD68
:10157000002010BD23FA0EF010BDC2F342301CF85B
:10158000000023FA00F010BD000000000000000081
:10159000010203040607080943F6000300F01F01D7
:1015A0008009C4F202034FF0010CC2580CFA01F199
:1015B0001143C150704700002DE9F04782B0044646
:1015C000FFF702FD4FF000090FF24C080FF2500A2E
:1015D0006D4658F8296000271AF80720284631463A
:1015E000FFF7B0FEDDE90001C4E90001607950B900
:1015F0000137042FF0D1B9F1000F09F10109E8D04A
:1016000002B0BDE8F087D4E900012122FFF77CFB9E
:1016100002B0BDE8F08700BF005400400058004011
:10162000E8EAECEE80B584B00022ADF80C2002921E
:101630004FF0060C02AB4022CDF800C0FFF7CCFD06
:101640009DF80800C1071ED19DF80A10CA071DD1D8
:101650009DF80C20D3071CD183071DD48B071ED403
:1016600093071FD4430720D44B0721D4530722D418
:10167000000723D408074FBF30201007232101EAB9
:10168000E07004B080BD312004B080BD322004B0D1
:1016900080BD332004B080BD342004B080BD35202F
:1016A00004B080BD362004B080BD372004B080BDBA
:1016B000382004B080BD392004B080BD2A2004B099
:1016C00080BD00002DE9F04782B00446FFF77CFCA6
:1016D0004FF000090FF24C080FF2500A6D4658F80F
:1016E000296000271AF8072028463146FFF72AFE0E
:1016F000DDE90001C4E90001607950B90137012F2B
:10170000F0D0B9F1000F09F10109E8D002B0BDE84D
:10171000F087D4E900013022A223FFF7FDFC02B0DC
:10172000BDE8F0870054004000580040888A00005F
:1017300070B52DED028B82B02C220D230C46054690
:10174000FFF7EAFC0A20FFF71BFC0DF10202284616
:1017500021460623FFF722FB9DF802C09DF803E017
:10176000FF220023312560464240082456B211462C
:101770005200002E48BF85EA4102013CF6D1002B01
:1017800003F1010308BF7046EED09DF80400D1B20A
:10179000814219D14EEA0C20FEF7B3FE9FED260BD5
:1017A00053EC102BFEF73EFE9FED250B53EC102B58
:1017B000FEF7C6FD9FED240B53EC102BFEF719FD31
:1017C000FEF7BFFE08EE100A9DF805C09DF806E082
:1017D000FF220023312560464240082451B21646BC
:1017E0005200002948BF85EA4602013CF6D1002B91
:1017F00003F1010308BF7046EED09DF80700D1B297
:10180000814213D14EEA0C20FEF77BFE9FED0A0BBE
:1018100053EC102BFEF706FE9FED0D0B53EC102B37
:10182000FEF78EFDFEF78DFE00EE900AB0EE480A40
:1018300002B0BDEC028B70BD00000000E0FFEF4085
:101840000000000000E0654000000000008046C08D
:101850000000000000005940C943016170470000CA
:10186000C26800690A40084018BF0120002A18BF5A
:10187000012210407047000040F60040C4F2020010
:101880004FF40041FFF7E4B90FB4084B10B504A9B9
:1018900002AA039800F0DEF8044602A9002000F036
:1018A00070FC204610BC5DF814FB0000832100088A
:1018B00002E008C8121F08C1002AFAD17047704719
:1018C000002001E001C1121F002AFBD17047000077
:1018D0002DE9FF5F82B00021DDE90430020DDDF863
:1018E00040B0034318D044F61050A2F2FF324243F6
:1018F0001514119801281FD0A5EB0B00401C5FEABE
:10190000000A4FF000064E4FDFF83891B0465046BF
:1019100015D5CAF1000413E0119801244AA3012847
:1019200001D16FEA0B010298119AC0E90031C0E9B8
:10193000024206B0BDE8F09FCBF10000DFE70446AD
:101940000021404A491842EB0450CDE9001012E052
:10195000E00707D032463B4640464946FEF7F0FCDA
:101960008046894632463B4610461946FEF7E8FC5B
:1019700006460F466410002CEAD1DDE90401DDE9DA
:101980000023BAF1000F06DAFEF7DAFC42464B46B6
:10199000FEF7D6FC05E0FEF745FD42464B46FEF756
:1019A00041FD04460E460022284BFEF7FBFE03D8FD
:1019B0004FF0FF30014607E00022254B204631461C
:1019C000FEF717FCFEF7D5FE102409E0002C0ADB19
:1019D0000A220023FEF7E7FD039B30321A55641EEE
:1019E00050EA0102F2D1641C039AC4F111031444B9
:1019F000119A012A03D0012208430DD10AE00843BD
:101A000004D000204FF0110B119072E7A3EB0B05EF
:101A10006D1E0DE05B4504DD4FF0000205F1010590
:101A200004E003DA4FF00002A5F10105002AECD032
:101A300002981199C0E90231C0E9004579E7000038
:101A4000000014400000F03F300000000000F043B0
:101A50000000E03F2DE9FF4F95B09B4689460646C2
:101A600000250FE2252877D100242746F84A0121D6
:101A7000059400E0044316F8013F203B01FA03F00F
:101A80001042F7D130782A2811D06FF02F03307828
:101A9000A0F13002092A16D8059A44F0020402EB9C
:101AA000820203EB42021044761C0590EFE759F8DE
:101AB000042B0592002A03DA504244F400540590A6
:101AC00044F00204761C30782E2816D116F8010F47
:101AD00044F004042A280DD06FF02F023078A0F1D2
:101AE0003003092B09D807EB870302EB4303C71820
:101AF000761CF3E759F8047B761C30786C280FD0FD
:101B000006DC4C2817D068280DD06A2814D104E0D0
:101B1000742810D07A280FD10DE044F400140AE0A4
:101B200044F4801401E044F440147278824202D1FB
:101B300004F58014761C761C307866280BD013DCF4
:101B4000582877D009DC002875D04528F6D04628DB
:101B5000F4D047281AD19DE118E0632835D06428D5
:101B600079D0652812D195E1702873D008DC6728F8
:101B7000F1D069286FD06E280DD06F2806D1B5E05E
:101B800073282CD0752875D0782874D05A461799A8
:101B900090476D1C75E1C4F30250022809D0032858
:101BA0000DD0D9F8001004280DD00D6009F10409FA
:101BB00067E1D9F80010EA17C1E90052F6E7D9F851
:101BC00000100D80F2E70D70F0E719F8041B8DF896
:101BD000001000208DF80100EA46012003E059F8CA
:101BE00004AB4FF0FF3061074FF0000102D40DE06D
:101BF00008F101018846B9420FDA8045F8DB1AF88E
:101C000008100029F4D108E008F10101884681425A
:101C1000FADB1AF808100029F6D105985B46A0EB0C
:101C2000080721463846179A00F094FA284400EB3A
:101C3000080507E04DE029E10DE01AF8010B5A46CE
:101C400017999047B8F10108F7D25B46214638460C
:101C5000179A13E142E00A220092C4F302524FF0B5
:101C6000000A022A08D059F804CB032A4FEAEC7183
:101C70000AD00DE029E02AE009F1070121F007026E
:101C8000F2E802C1914609E00FFA8CFC4FEAEC71D0
:101C9000042A03D14FFA8CFC4FEAEC71002907DAD1
:101CA0000A460021DCF1000C61EB02012D2202E06A
:101CB000220504D52B228DF80420012203E0E2073F
:101CC00001D02022F7E7904659E00A2102E01022D5
:101CD0000DE010214FF0000A00910BE010224FF0B0
:101CE000000A44F004040827009203E008224FF0A1
:101CF000000A0092C4F30252022A05D059F804CB1C
:101D00000021032A08D009E009F1070121F00702A8
:101D1000F2E802C1914605E01FFA8CFC042A01D1C9
:101D20000CF0FF0C4FF00008220728D5702806D0D1
:101D3000009B83F0100353EA0A0305D00EE0402213
:101D40008DF80420012208E05CEA010206D030226E
:101D50008DF804208DF8050002229046009B83F048
:101D6000080353EA0A030AD15CEA010201D16207BF
:101D700005D530228DF804204FF001087F1E582829
:101D800004D034A003900EA802900DE036A0F9E72D
:101D900053466046009AFEF706FC84460398825C30
:101DA0000298401E029002705CEA0100F0D1029895
:101DB00006A9081A00F1200A600702D524F480342D
:101DC00000E00127574502DDA7EB0A0000E00020F4
:101DD00000EB0A01009005984144401A0590E00389
:101DE00006D45B462146179A059800F0B3F90544DE
:101DF000002706E001A85A46C05D179990476D1C60
:101E00007F1C4745F6DBE0030CD55B462146179A5D
:101E1000059800F09FF9054404E030205A461799D0
:101E200090476D1C0099481E00900029F5DC08E0E1
:101E3000029802995A460078491C029117999047D6
:101E40006D1CBAF10001AAF1010AF1DC65E10000A4
:101E50000928010030313233343536373839616280
:101E60006364656600000000303132333435363744
:101E700038394142434445460000000000F058F91B
:101E80000544761C307800287FF4ECAD19B0284664
:101E9000BDE8F08F620700D4062709F1070222F09F
:101EA000070CFCE80223E14603F000485FEA080C57
:101EB00002D00FF2702C0DE05FEA045C02D50FF245
:101EC000682C07E05FEAC47C02D00FF2602C01E0CE
:101ED000AFF2700C4FF0FF3823F00043CDF850C044
:101EE00065280CD006DC452809D046281DD0472897
:101EF0003DD13DE0662818D067287ED138E000212A
:101F0000112F01DB112000E0781CCDE9000106A9AA
:101F10000EA8FFF7DDFCDDE90F010E9A0391002109
:101F2000009207F1010A04914DE04FF00040009744
:101F3000CDE9011006A90EA8FFF7CAFCDDE90F02E2
:101F400003920E9B11990022DDF80CA000930492DD
:101F500011B9791C00EB010AB7EB0A0004D4C0F1F7
:101F6000FF3007F1010A0490AAEB0700019044E05A
:101F7000012F00DA01270021112F01DD112000E0DF
:101F80003846CDE9000106A90EA8FFF7A1FCDDE95E
:101F90000F010E9A0391002104910092BA46210785
:101FA0000CD40399514500DA8A46BAF1010F05DDD8
:101FB000009AAAF10101515C302908D0B84202DA36
:101FC00010F1040F06DA0121CDE9011015E0AAF1A4
:101FD0000101E9E7002805DC049901440491AAEB1A
:101FE000000102E0411C514500DD8A460499401A77
:101FF000401C01904FF000400290200704D401984B
:10200000504501DBCDF8048000208DF84F00029888
:102010000DF14F07B0F1004F25D02B200E90029804
:102020004FF0020800280CDA404202902D200E905A
:1020300007E00A210298FEF7A0FA3031029007F873
:10204000011DB8F10001A8F10108F2DC0298002896
:10205000EFD1791E0E980870307800F0200040F023
:10206000450007F8020D12A8C01B00F107081498DC
:10207000007800B1012000EB0A01019801EBE0714A
:1020800005984144401A401E0590E00306D45B4683
:102090002146179A059800F05DF8054414980078D9
:1020A00018B15A46179990476D1CE00324D55B463A
:1020B0002146179A059800F04DF805441CE0049855
:1020C000002807DBDDE90301884203DD0098405C5E
:1020D000179901E0179930205A469047049805F166
:1020E0000105401C04900198401E019004D12E204F
:1020F0005A46179990476D1CBAF10001AAF1010ADE
:10210000DDDC05E017F8010B5A46179990476D1C66
:10211000B8F10001A8F10108F4DC5B462146179AEA
:102120000598ABE62D0000002B0000002000000009
:102130002DE9F041044600251E461746880404D4C4
:1021400005E039462020B0476D1C641EF9D52846AD
:10215000BDE8F0812DE9F041044600251E46904679
:10216000C80301D5302700E02027880404D505E006
:1021700041463846B0476D1C641EF9D52846BDE877
:10218000F0810A68531C0B6010707047F801300032
:10219000D802780230036803E8033800F8037803B4
:1021A000B803E003C801F002C8038803E801B003E4
:1021B00020007000D003C001A802A002E002980332
:1021C000380380022003C003F00110035003B00164
:1021D0007003480200020000000000000102030436
:1021E0000054004000580040F82100080000002082
:0821F00020040000C0180008E3
:04000005080001AD41
:00000001FF
