:020000040800F2
:1000000010040020C1010008C9010008CB0100084C
:10001000CD010008CF010008D10100080000000058
:10002000000000000000000000000000D3010008F4
:10003000D501000800000000D7010008D901000820
:10004000DB010008DB010008DB010008DB01000820
:10005000DB010008DB010008DB010008DB01000810
:10006000DB010008DB010008DB010008DB01000800
:10007000DB010008DB010008DB010008DB010008F0
:10008000DB010008DB010008DB010008DB010008E0
:10009000DB010008DB010008DB010008DB010008D0
:1000A000DB01000829040008DB010008DB0100086F
:1000B000DB010008DB010008DB010008DB010008B0
:1000C000DB010008DB010008DB010008DB010008A0
:1000D000DB010008DB010008DB010008DB01000890
:1000E000DB010008DB010008DB010008DB01000880
:1000F000DB010008DB010008DB010008DB01000870
:10010000DB010008DB010008DB010008DB0100085F
:10011000DB010008DB010008DB010008DB0100084F
:10012000DB010008DB010008DB010008DB0100083F
:10013000DB010008DB010008DB010008DB0100082F
:10014000DB010008DB010008DB010008DB0100081F
:10015000DB010008DB010008DB010008DB0100080F
:10016000DB010008DB010008DB010008DB010008FF
:10017000DB010008DB010008DB01000800000000D3
:10018000DB010008DB010008DB010008DB010008DF
:10019000DB010008DB010008DB01000800000000B3
:1001A000DB010008DB010008DB010008DFF80CD0F0
:1001B00000F060F8004800470D0E00081004002011
:1001C0000648804706480047FEE7FEE7FEE7FEE7F1
:1001D000FEE7FEE7FEE7FEE7FEE7FEE7C5020008F2
:1001E000AD010008421C10F8011B0029FBD1801A48
:1001F00070472DE9F05F0546002092469B468846F1
:100200000646814640241BE0284641464746224692
:1002100000F048F853465A46C01A914110D311468F
:100220001846224600F016F82D1A67EB01084F46D3
:1002300022460120002100F00DF817EB00094E4185
:10024000201EA4F10104DFDC484631462A4643461D
:10025000BDE8F09F202A04DB203A00FA02F10020DA
:1002600070479140C2F1200320FA03F319439040F4
:10027000704700001CB509480090094801900546E8
:10028000009C06E0E06840F0010394E8070098470E
:100290001034AC42F6D3FFF78DFF00001C1F00089E
:1002A0002C1F0008202A04DB203A21FA02F000214A
:1002B000704721FA02F3D040C2F120029140084376
:1002C0001946704781B04EF68851CEF200010A6897
:1002D00043F6080042F47002C4F202000A6050F8CB
:1002E000081C41F0010140F8081C00BF50F8081C30
:1002F0008907FBD5016841F0800101600021009170
:10030000009A4F2A06D800BF009A01320092009A44
:10031000502AF9D3026842F09002026000910099DD
:100320004F2905D800990131009100995029F9D33E
:1003300001684FF6FF7221F00301016050F8081CBC
:10034000CFF6F662114040F8081C50F8081C4FF038
:10035000000C21F4802140F8081CC0F800C002689D
:1003600043F21002C2F2004240F8042CC0F804C06C
:1003700050F8082C42F4803240F8082C4FF6FE72F8
:1003800050F8081C013A4CF10003890301D4002BFA
:10039000F6D150F8081C890301D400BFFEE7826B38
:1003A00047F2000142F08052C4F2000182630A6801
:1003B00042F440420A6002680260026842F400426D
:1003C0000260026842F4A052026046F21942C0F68E
:1003D000401240F8042C50F8082C42F0807240F88B
:1003E000082C00BF50F8082C9201FBD50A6842F493
:1003F00080320A604A68D203FCD50A6842F40032AF
:100400000A6000BF4A689203FCD5016821F003012D
:100410000160016841F00201016000BF0168090745
:10042000FCD501B07047000010B50024C4F20104EF
:100430002046012101F0DEFA002808BF10BD04F5B6
:1004400086304FF4004100F039F920460121BDE823
:10045000104001F0CBBA0000002808BF704700210F
:1004600046F66052013A00BFFCD101318142F7D11A
:1004700070470000F0B581B00C46511ECAB2032A85
:1004800005461ED841F6C06C0698C0F6000C0CEB71
:100490004302567800284FF0020018BF04361CF8BB
:1004A000133000EB4100032202EB4107C2B22846A1
:1004B000214600F0E7FAF3B2FAB22846214600F0EE
:1004C000E1FA28462146812201B0BDE8F04000F063
:1004D00051B900002DE9F04782B0044600F02AFA35
:1004E00041F614784FF00009C0F600080FF2B40A84
:1004F0006D4658F8296000271AF80720284631462B
:1005000000F03EFCDDE90001C4E90001607950B96A
:100510000137042FF0D1B9F1000F09F10109E8D03A
:1005200002B0BDE8F087D4E90054212228462146D4
:1005300000F020F9284621460222002300F0A2FA0A
:10054000284621460322002300F09CFA2846214633
:100550000422002300F096FA2846214605220023B3
:1005600000F090FA284621460622002300F08AFA7D
:10057000284621460722002300F084FA2846214617
:100580000822002300F07EFA284621460922002393
:1005900000F078FA28462146812200F0EBF802B0FC
:1005A000BDE8F087E0E2E4E62DE9F04782B00646D8
:1005B000104614468846FFF715FE2044471E0425C2
:1005C0004FF000094FF0010A0AE000BFEAB23046DE
:1005D00041462523CDF80090FFF74CFF013D32DD69
:1005E000A742F3D33878A0F13001CBB2092B09D858
:1005F0007878EAB22E2814D130464146CDF800A0D2
:1006000013E000BFA0F16101C9B2192901D8573820
:1006100005E0A0F14101C9B219290AD83738EAB278
:10062000C3B230464146CDF80090FFF723FF013FAB
:10063000D4E72D2804D1EAB2304641462423F2E71C
:100640000135013FCAE702B0BDE8F087F0B5D0F848
:1006500020E0D0F824C000230F27002505E000BFCC
:100660000135082D03F104030CD022FA05F6F60734
:10067000F6D007FA03F62EEA060601FA03F446EA74
:10068000040EEDE7082300240F2504E00133102BAE
:1006900004F104040CD022FA03F6F607F6D005FAAA
:1006A00004F62CEA060701FA04F647EA060CEDE721
:1006B000C0F820E0C0F824C0F0BD0000C16270475F
:1006C0002DE9F041D0F800E0D0F80CC000244FF044
:1006D0000308002605E000BF0136102E04F10204D5
:1006E00012D023FA06F7FF07F6D008FA04F72EEA2D
:1006F000070E01FA04F54EEA050E2CEA070702FA86
:1007000004F547EA050CE7E7C0F800E0C0F80CC0C4
:10071000BDE8F0810129416814BF99431943416044
:10072000B0B5D0F808C000214FF0030E002404E05B
:100730000134102C01F102010CD023FA04F5ED076D
:10074000F6D00EFA01F52CEA050C02FA01F54CEA96
:10075000050CEDE7C0F808C0B0BD0000026822F447
:100760008062114301607047026822F40062114305
:100770000160704770B515460E460446204640F2AB
:10078000016100F0CFF80028F8D1204600F032FBDC
:1007900020464FF4A06100F0C5F80028F8D0F1B26F
:1007A00020466FF0010200F057F948F2A166C0F24E
:1007B000010600BF204640F2015100F0B3F818B91D
:1007C000013EF7D1002519E0204640F2015100F02A
:1007D00095F800BF204640F2075100F0A3F8012829
:1007E000F8D12046294600F07FF800BF204640F2AD
:1007F000025100F097F80028F8D00125204600F0BB
:10080000FFFA284670BD0000F0B581B00446022012
:1008100017460D4600F0E8FB4DF68361C4F21B312C
:10082000A0FB0112910C48F2FF62C0F29332904299
:100830000A4688BF3C22636848F2A066C0F20106FF
:1008400023F03F03B54243EA0203636007D844F252
:10085000C042C0F2843290422BD33C2131E041F6B9
:100860008021C0F206018D4237D84FF49671514372
:1008700048F63812C0F24102A1FB0212511C21625B
:10088000E169192221F48041002F18BF01F5804150
:1008900008BF0322E161E1696A4341F40041B0FB12
:1008A000F2F0E161E169020508BF41F0010108438E
:1008B00012E048F27F42C0F21E0290428CBF01312A
:1008C000022121626900B0FBF1F0042898BF0420E6
:1008D000E1696FF31F300843E06101B0F0BD000033
:1008E0000069C0B2704700000161704770470000A6
:1008F000016841F0010101607047000040F20152BF
:10090000914202D141698069704701F01F02890953
:100910004FF0010C0B580CFA02F223EA02020A50C3
:10092000704700008A09105801F01F01C84000F00C
:100930000100704770B540F6014000F0B3FB40F293
:100940000044C4F202042046022101224FF48073C5
:10095000FFF7B6FE2046012102224FF48073FFF715
:10096000D9FE204604214FF48072FFF76FFE204627
:10097000022101224FF40073FFF7A2FE204601215D
:1009800002224FF40073FFF7C5FE204604214FF406
:100990000072FFF75BFE41F2150000F083FB48F2A6
:1009A000A065A4F5D836C0F20105304629460022DC
:1009B000FFF72AFF304600210022A02300F054F860
:1009C00030464FF48061FFF7C9FE3046FFF790FFD5
:1009D00040F6054000F066FB04F5805630460221E3
:1009E00001220223FFF76CFE30460121022202237E
:1009F000FFF790FE304604210222FFF727FE304623
:100A0000022101220123FFF75BFE30460121022271
:100A10000123FFF77FFE304604210122FFF716FE77
:100A200041F2160000F03EFBA4F5D63420462946DC
:100A30000022FFF7E9FE204600210022A02300F05B
:100A400013F820464FF48061FFF788FE2046BDE88A
:100A50007040FFF74DBF000021F00101023218BFC6
:100A60000131016170470000D0F800C06FF39F238F
:100A70002CF0020C41EA0C01016043EA02018160A2
:100A800070470000F0B581B01D4616460F4604467B
:100A9000204640F20161FFF745FF0028F8D12046CB
:100AA00000F0A8F920464FF4A061FFF73BFF0028B3
:100AB000F8D0F9B220466FF00102FFF7CDFF48F2FF
:100AC000A167C0F2010700BF204640F20151FFF7C5
:100AD00029FF18B9013FF7D100252DE0204640F24B
:100AE0000151FFF70BFF00BF204640F20751FFF70F
:100AF00019FF0128F8D120463146FFF7F5FE00BF67
:100B0000204640F20251FFF70DFF0028F8D000BF49
:100B1000204640F20751FFF705FF0128F8D1204693
:100B20002946FFF7E1FE00BF204640F20251FFF7E1
:100B3000F9FE0028F8D00125204600F061F928468A
:100B400001B0F0BD2DE9F04381B0089D9846914673
:100B50000E460446204640F20161FFF7E3FE0028FE
:100B6000F8D1204600F046F920464FF4A061FFF787
:100B7000D9FE0028F8D0F6B2204631466FF00102C7
:100B8000FFF76AFF48F2A167C0F20107204640F272
:100B90000151FFF7C7FE10B9013FF7D12EE0204603
:100BA00040F20151FFF7AAFE204640F20751FFF73D
:100BB000B9FE0128F8D120464946FFF795FE00BF4F
:100BC000204640F20251FFF7ADFE0028F8D0204643
:100BD00000F010F920464FF4A061FFF7A3FE0028B3
:100BE000F8D0204631460122FFF736FF204640F27A
:100BF0000151FFF797FE40B9013FF7D1204600F0C1
:100C0000FFF8002001B0BDE8F083204640F201511A
:100C1000FFF774FE022D03D820460021FFF79EFD4A
:100C2000012D07D0022D10D120464FF40061FFF7AF
:100C30009BFD0AE0204600F0E3F806E056B32046AC
:100C400040F20651FFF76EFEE8B9EEB2022E0FD069
:100C5000032EF3D1204640F20251FFF763FE002835
:100C6000F8D020460021FFF779FD022EE7D100BF22
:100C7000204640F20251FFF755FE0028F8D02046EA
:100C800000F0BEF8DBE72046FFF72AFE08F8010B6C
:100C9000013DDAE720464FF48061FFF75FFD204613
:100CA0000021FFF761FD012001B0BDE8F0830000E5
:100CB0002DE9F041069E1D4690460F46044600BFB2
:100CC000204640F20161FFF72DFE0028F8D12046B2
:100CD00000F090F820464FF4A061FFF723FE0028B3
:100CE000F8D0F9B220466FF00102FFF7B5FE48F2E6
:100CF000A167C0F2010700BF204640F20151FFF793
:100D000011FE18B9013FF7D1002532E0204640F22C
:100D10000151FFF7F3FD00BF204640F20751FFF7F6
:100D200001FE0128F8D120464146FFF7DDFD00BF56
:100D3000204640F20251FFF7F5FD0028F8D0BEB181
:100D4000204640F20751FFF7EDFD0128F8D1297840
:100D50002046FFF7C9FD00BF204640F20251FFF7D1
:100D6000E1FD0028F8D0013E300605F10105E7D18C
:100D70000125204600F044F82846BDE8F081000037
:100D800070B516460D460446016002710020607180
:100D9000284640F20161FFF7C5FD0028F8D128463A
:100DA00000F028F828464FF4A061FFF7BBFD0028AB
:100DB000F8D0284631466FF00102FFF74DFE48F2A9
:100DC000A166C0F2010600BF284640F20151FFF7BC
:100DD000A9FD18B9013EF7D1002605E0284640F2EA
:100DE0000151FFF78BFD0126284600F009F86671D6
:100DF00070BD0000016841F480710160704700001F
:100E0000016841F400710160704700008CB04FF040
:100E1000FF304FF00008ADF82400089002A8ADF8AC
:100E20002E80CDF82880CDE90688CDE90488FFF72B
:100E300051FBDDE9020140F20005C2F20005C5E9FF
:100E4000000102A800F08CFBDDE9020140F2080A73
:100E5000C2F2000A0DF12E040DF1100B0DF128095C
:100E600008AE54A7CAE900015FFA88F00628FBD84B
:100E7000DFE800F011442A36046D8400DAE900014D
:100E800005223B4600F04CFD4FF00008002808BF4B
:100E90004FF00508E8E7DAE900012622234600F0D2
:100EA00099FC002871D0D5E900014FF02D324FF0A8
:100EB000000804925A468DF81480FFF775FB4FF432
:100EC0007A70FFF7C9FACFE7DAE900014A4600F085
:100ED000D3FC4FF00008002808BF4FF00308C3E719
:100EE000DAE9000160220523CDE9006900F0E4FAA7
:100EF000B0FA80F040094FEA8008B5E7DAE900016E
:100F00004A4600F069FA00284FF00008ACD19DF87D
:100F100028209DF82930AC46B64626469DF82A4042
:100F20009DF82B50584628A1CDE900453446764619
:100F3000654600F06BFDD5E900015A46FFF734FB2A
:100F40004FF47A70FFF788FA4FF002088CE7DAE97D
:100F5000000105225B4600F007FC00284FF0000866
:100F60007FF482AFD5E900015A46FFF71DFB4FF42D
:100F70007A70FFF771FA4FF0060875E7DAE90001B9
:100F800000F0D0FA4FF000086EE79DF82E209DF893
:100F90002F30584611A100F039FDD5E900015A461D
:100FA000FFF702FB4FF47A70FFF756FA4FF0010893
:100FB0005AE700BF313233343536373838373635B3
:100FC0003433323100000000253032782530327859
:100FD0002530327825303278000000002530327814
:100FE000253032780000000010B543F60402C4F248
:100FF000020253680146C3F3810342F20040022B10
:10100000C0F2F40006D0012B1FD147F64000C0F219
:101010007D101AE0D2F800C013680CF03F0CC3F347
:10102000881E13681468C3F30143640247F6400442
:10103000C0F27D1458BF0446B4FBFCF4022000EB60
:10104000430004FB0EF3B3FBF0F0536811A4C3F3A9
:101050000313E35C546841F60C7CC4F38224C0F6AD
:10106000000C1CF804E05268032907D820FA03F3A7
:10107000DFE801F00F020609184610BD002010BD80
:1010800023FA0EF010BDC2F342301CF8000023FA20
:1010900000F010BD00000000000000000102030489
:1010A0000607080943F6000300F01F018009C4F297
:1010B00002034FF0010CC2580CFA01F11143C15068
:1010C000704700002DE9F04F83B01F4692460C4652
:1010D0000C2A054606D0BAF10E0F07D111264FF0A3
:1010E000120906E031264FF0770902E001264FF0A1
:1010F000000909F18003284621460222FFF7C2FCBD
:101100004FF000084FF0010B0DF106032846214671
:1011100004228DF80680CDF800B0FFF713FD9DF88E
:101120000600214600F07F0328460422FFF7AAFCB0
:101130002846214601220023FFF7A4FC0DF10703F6
:10114000284621460A228DF80780CDF800B0FFF727
:10115000F9FC9DF80700214640F0800328460A224A
:10116000FFF790FC3B460C9F28462146092200973A
:10117000FFF79EFD2846214601225346FFF782FCD9
:10118000BAF10C0F12D102AB284621460D228DF880
:101190000880CDF800B0FFF7D5FC9DF80800214687
:1011A00040F0800328460D22FFF76CFC4FF47A785C
:1011B00001AF00BF2846214604223B46CDF800B0CF
:1011C000FFF7C0FCA8F101085FEA084060D09DF875
:1011D00004000642EED000208DF8090001260DF132
:1011E0000903284621460D220096FFF7ABFC9DF827
:1011F0000900214600F07F0328460D22FFF742FC3C
:1012000001AB2846214606220096FFF79BFC9DF87D
:10121000040010F01B0F50D100EA0900BAF10C0FC6
:1012200000F001064AD1012701AB284621460A22D7
:101230000097FFF787FC0DF10503284621460C2295
:101240000097FFF77FFC9DF805009DF8041010F053
:1012500007008DF8050040EAC100A0F1080008BFB2
:10126000C80000290E990D9B088008BF8DF80470F6
:101270009DF804002146132824BF12208DF8040095
:101280009DF80470284609220097FFF75BFC15E0E3
:1012900000208DF80A0001270DF10A032846214697
:1012A0000D220097FFF74EFC9DF80A00214600F042
:1012B0007F0328460D22FFF7E5FB022600208DF86C
:1012C0000B0001270DF10B03284621460C22009745
:1012D000FFF738FC9DF80B00214640F080032846BC
:1012E0000C22FFF7CFFB2846214601220023FFF7FF
:1012F000C9FB304603B0BDE8F08F00002DE9F04F88
:1013000083B099469246DDF8308000264FF0010BFD
:101310000DF10A0305220C4605468DF80A60CDF84A
:1013200000B0FFF70FFC9DF80A00214600F0FB0318
:1013300028460522FFF7A6FB284621460122002366
:10134000FFF7A0FB0DF10B03284621460A228DF87A
:101350000B60CDF800B0FFF7F5FB9DF80B002146C0
:1013600040F0800328460A22FFF78CFB28462146DE
:1013700009225346CDF80090FFF79AFC28462146F3
:1013800001220323FFF77EFBFF270DF1090600BFB3
:101390002846214605223346CDF800B0FFF7D2FBA0
:1013A000013F380604D09DF8090010F00400EFD08A
:1013B000012628462146222243460096FFF7C2FB1B
:1013C00008F101032846214621220096FFF7BAFBC7
:1013D00003B0BDE8F08F00002DE9F0478AB09046D9
:1013E0004FF0000A4FF0010904AB08220C460546F5
:1013F0008DF810A0CDF80090FFF7A4FB9DF8100029
:10140000214600F0F70328460822FFF73BFB284659
:1014100021460D220023FFF735FB04AF2846214665
:101420000E223B468DF810A0CDF80090FFF78AFB06
:101430009DF81000214600F07F0328460E22FFF79A
:1014400021FB42F29300ADF8100009A8022100919F
:101450000290284621460C223B460197FFF732FEB8
:10146000064688B904984FF0FF31C8F80000002004
:101470007A1852780131032980EA0200F8D19DF8E8
:101480001410884218BF02260DF127032846214672
:101490000E228DF827A0CDF80090FFF753FB9DF8A2
:1014A0002700214640F0800328460E22FFF7EAFA83
:1014B00030460AB0BDE8F08770B58AB00C460546E4
:1014C000DDE90E108DF8142000680A6889888DF80F
:1014D0001530079005AB0C20CDF81620ADF81A108A
:1014E0000DF12606CDE90003284621460E2202967C
:1014F000FFF7E8FD06464FF0010C0DF113032846F7
:1015000021460822CDF800C0FFF71CFB0EB10226D1
:1015100004E09DF81300000758BF022630460AB0C9
:1015200070BD0000F0B589B00546502004AFADF89D
:101530001000BE1C28463A4602230C460096FFF7D0
:10154000DDFE04200DF12206CDE9000728462146E4
:101550000C223B460296FFF7B5FD002009B0F0BD16
:101560002DE9F04786B00446FFF7E4F94FF0000993
:101570000FF2E8180FF2EC1A02AD58F829600027B4
:101580001AF8072028463146FFF7FAFBDDE9020189
:10159000C4E90001607940B90137042FF0D1B9F1F5
:1015A000000F09F10109E8D0BDE0D4E9005401229F
:1015B000284621460F230126FFF764FA0A20FFF789
:1015C00095F92846214611223D23FFF75BFA28466C
:1015D00021462D221E23FFF755FA284621462C22AC
:1015E00000230027FFF74EFA284621462A228D23A2
:1015F000FFF748FA284621462B223E23FFF742FAFE
:101600002846214615224023FFF73CFA0DF112032C
:101610002846214633228DF812700096FFF792FA81
:101620009DF81200214600F07F0328463322FFF781
:1016300029FA2846214615224023FFF723FA0DF107
:1016400013032846214614228DF813700096FFF7E5
:1016500079FA9DF81300214600F0FC032846142275
:10166000FFF710FA0A20FFF741F905AB284621469B
:1016700014220096FFF766FA9DF81400800712D135
:101680000DF115032846214614228DF81570009699
:10169000FFF758FA9DF81500214640F0030328464D
:1016A0001422FFF7EFF92846214608220823FFF706
:1016B000E9F92846214611223D23FFF7E3F92846A0
:1016C000214617228623FFF7DDF9284621462622E8
:1016D0007F23FFF7D7F9284621462D221E23FFF747
:1016E000D1F9284621462C2200230027FFF7CAF90A
:1016F000284621462A228D23FFF7C4F92846214691
:101700002B223E23FFF7BEF90A20FFF7EFF80DF179
:1017100016032846214614220096FFF713FA9DF877
:101720001600800702D006B0BDE8F0878DF817706C
:1017300001270DF117032846214614220097FFF7D1
:1017400001FA9DF81700214640F0030328461422B1
:10175000FFF798F906B0BDE8F08700BF00540040DD
:1017600000580040505254562DE9F04188B00746C9
:10177000302003AC8DF80C00A01C98468DF80D208D
:1017800000903846224602230E460225FFF7B6FD9A
:1017900004200DF11E0CCDE90004384631460C2220
:1017A0002346CDF808C0FFF78DFC78B9BDF81E10B0
:1017B00090290BD103AF069B86CF0546C8F80C30A5
:1017C000C8F80870C8F80420C8F80010284608B007
:1017D000BDE8F0812DE9F04788B098469146002495
:1017E0004FF0010A03AB08220D4606468DF80C4067
:1017F000CDF800A0FFF7A6F99DF80C00294600F0EF
:10180000F70330460822FFF73DF9304629460D22FE
:101810000723FFF737F98DF80C4003AC3046294613
:1018200014222346CDF800A0FFF78CF99DF80C0098
:10183000294640F0030330461422FFF723F90DF147
:101840001E07304629460C2223468DF80C90CDE920
:1018500000A40297FFF736FC4FF0020140B9BDF833
:101860001E20102A04D1BDF80C10A8F80010014663
:10187000084608B0BDE8F0872DE9F04188B00C4675
:101880001168054647F29300ADF80C000020CDF832
:101890000E104FF0FF318DF8120000BF53185B7827
:1018A0000131032980EA0300F8D103AE8DF812005C
:1018B000F71D28462146324607230097FFF71EFDF5
:1018C00000200DF11E088DF81E0001272846214634
:1018D000082243460097FFF735F99DF81E00214680
:1018E00000F0F70328460822FFF7CCF80920CDE9DD
:1018F0000006284621460C223346CDF80880FFF723
:10190000E1FBBDF81E10B1F118024FF0020118BF43
:101910000122002808BF5100084608B0BDE8F08148
:101920002DE9F04389B00546A02004AE99468DF814
:1019300010008DF81120B71C2846324602230C46B1
:101940000097FFF7DBFC04200DF12208CDE900062B
:10195000284621460C223346CDF80880FFF7B2FB1B
:1019600070B9BDF8221004290AD19DF8101001F0B9
:101970000F010A2918BF022028B109B0BDE8F08381
:1019800002200028F9D1D9F80C20D9F80000D9F8A4
:101990000410D9F80830079204AA0BC206F1100708
:1019A00028462146324610230097FFF7A7FC122055
:1019B000CDE90006284621460C223346CDF80880A2
:1019C000FFF780FB68B9BDF82210042909D19DF802
:1019D000101001F00F010A2918BF022009B0BDE85C
:1019E000F083022009B0BDE8F0830000C943016123
:1019F00070470000C26800690A40084018BF012013
:101A0000002A18BF01221040704700000FB4084B95
:101A100010B504A902AA039800F01CF8044602A914
:101A2000002000F048FA204610BC5DF814FB0000CE
:101A3000B71E000802E008C8121F08C1002AFAD128
:101A400070477047002001E001C1121F002AFBD13E
:101A5000704700002DE9FF4F8DB00F460546002668
:101A600006E025280BD0DDE90F1290476D1C761C8F
:101A700028780028F5D111B03046BDE8F08F002459
:101A8000A246A1460122EC4900E0044315F8013FBB
:101A9000203B02FA03F00842F7D128782A2810D018
:101AA0006FF02F022878A0F13001092914D80AEB31
:101AB0008A0102EB410144F0020400EB010A6D1CB3
:101AC000F0E701CF5FEA000A03D544F40054CAF1FD
:101AD000000A44F002046D1C28782E2817D115F84E
:101AE000010F44F004042A280ED06FF02F0228784A
:101AF000A0F1300109290AD809EB890102EB410163
:101B000000EB01096D1CF2E757F8049B6D1C287867
:101B10006C280FD006DC4C2817D068280DD06A2816
:101B200014D104E0742810D07A280FD10DE044F4C9
:101B300000140AE044F4801401E044F4401469788D
:101B4000814202D104F580146D1C6D1C2A786E2A26
:101B50001FD00CDC632A31D004DC002A8BD0582A39
:101B600011D1A3E0642A68D0692A0CD165E0732AF8
:101B70002ED004DC6F2A73D0702A04D19BE0752A22
:101B80006FD0782A6ED01046DDE90F129047761C90
:101B900050E1C4F30250022806D0032809D00428DB
:101BA00001CF09D0066045E101CFF117C0E900611E
:101BB00040E101CF06803DE106703BE117F8040BE0
:101BC0008DF8000000208DF80100EB46012003E0B5
:101BD00057F804BB4FF0FF3061074FF0000102D40B
:101BE0000DE008F10101884649450FDA8045F8DB30
:101BF0001BF808100029F4D108E008F1010188461B
:101C00008142FADB1BF808100029F6D1DDE90F2329
:101C1000AAEB08008146214600F036F9304400EB7B
:101C2000080604E0DDE90F121BF8010B9047B8F13C
:101C30000108F7D221464846F7E00A21C4F30253CF
:101C40004FF0000B0891022B04D001CFC117032BDA
:101C500009D00AE0FF1D27F00707F7E8020108E0B6
:101C600032E01FE020E000B2C117042B01D140B2E6
:101C7000C117031E71F1000307DA4FF0000CD0EB1F
:101C80000C006CEB01012D2302E0230504D52B236E
:101C90008DF82430012303E0E30701D02023F7E788
:101CA000984658E00A2110E010210EE010204FF075
:101CB000000B08900CE010214FF0000B44F00404DE
:101CC0004FF00809089103E008214FF0000B08913C
:101CD000C4F30253022B04D001CF0021032B06D002
:101CE00006E0FF1D27F00707F7E8020103E080B2D6
:101CF000042B00D1C0B24FF0000823072BD5702A67
:101D000007D0DDF820C08CF0100C5CEA0B0C05D07D
:101D10000EE040238DF82430012308E050EA01034F
:101D200006D030238DF824308DF8252002239846E4
:101D3000DDF820C08CF0080C5CEA0B0C0BD150EAEB
:101D4000010301D1630706D530238DF824304FF00D
:101D50000108A9F10109582A04D038A20B9208AA57
:101D60000A920BE03AA2F9E75B46089AFEF741FABD
:101D70000B9B9B5C0A9A521E0A92137050EA010256
:101D8000F2D10A98ADEB000000F1200B600702D5FC
:101D900024F4803401E04FF00109D94502DDA9EBBC
:101DA0000B0000E0002000EB0B0141440890AAEB7F
:101DB000010AE00306D4DDE90F232146504600F076
:101DC00063F806444FF0000908E009A911F809007A
:101DD000DDE90F12904709F10109761CC145F4DBDA
:101DE000E0030CD5DDE90F232146504600F04CF806
:101DF000064404E0DDE90F1230209047761C089974
:101E0000481E08900029F5DC08E00A980A99007835
:101E1000491C0A91DDE90F129047761CBBF10001C5
:101E2000ABF1010BF1DC21465046DDE90F2300F058
:101E300019F806446D1C1BE60928010030313233C5
:101E400034353637383961626364656600000000F6
:101E500030313233343536373839414243444546E0
:101E6000000000002DE9F041044600251E461746FB
:101E7000880404D405E039462020B0476D1C641E58
:101E8000F9D52846BDE8F0812DE9F041044600254A
:101E90001E469046C80301D5302700E0202788045D
:101EA00004D505E041463846B0476D1C641EF9D59F
:101EB0002846BDE8F0810A68531C0B60107070471B
:101EC000F8013000D802780230036803E8033800D4
:101ED000F8037803B803E003C801F002C8038803DD
:101EE000E801B00320007000D003C001A802A002E6
:101EF000E0029803380380022003C003F0011003BE
:101F00005003B0017003480200020000000000000E
:101F10000102030400540040005800402C1F000838
:0C1F20000000002010040000441A00081B
:04000005080001AD41
:00000001FF
