:020000040800F2
:10000000680800205D020008650200086702000819
:10001000690200086B0200086D0200080000000081
:100020000000000000000000000000006F02000857
:100030007102000800000000730200087502000849
:1000400077020008770200087702000877020008AC
:10005000770200087702000877020008770200089C
:10006000770200087702000877020008770200088C
:10007000770200087702000877020008770200087C
:10008000770200087702000877020008770200086C
:10009000770200087702000877020008770200085C
:1000A000770200087702000877020008770200084C
:1000B000F9040008770200087702000877020008B8
:1000C000770200087702000877020008770200082C
:1000D000770200087702000877020008770200081C
:1000E000770200087702000877020008770200080C
:1000F00077020008770200087702000877020008FC
:1001000077020008770200087702000877020008EB
:1001100077020008770200087702000877020008DB
:1001200077020008770200087702000877020008CB
:1001300077020008770200087702000877020008BB
:1001400077020008770200087702000877020008AB
:10015000770200087702000877020008770200089B
:10016000770200087702000877020008770200088B
:1001700077020008770200087702000800000000FC
:10018000770200087702000877020008770200086B
:1001900077020008770200087702000800000000DC
:1001A00077020008770200087702000800F002F8E2
:1001B00000F044F814A696E8000CB244B344DA45C3
:1001C00001D100F03BF8BAE80F000FA696E8300026
:1001D000A5EB040504EB0607AAEB0704A7F101074A
:1001E0004FEA15154FEA3414A4F10104AC4201D3CF
:1001F00000F024F813F0010F18BFFB1A43F00103BD
:1002000000F001F8DBE71847CC080000DC0800002C
:10021000704700000023002400250026103A28BF64
:1002200078C1FBD8520728BF30C148BF0B60704768
:100230001FB500F042FC1FBD10B510BD00F031F835
:100240001146FFF7F5FF00F071FA00F04FF803B424
:10025000FFF7F2FF03BC00F057F8000009488047A1
:1002600009480047FEE7FEE7FEE7FEE7FEE7FEE798
:10027000FEE7FEE7FEE7FEE704480549054A064BB0
:100280007047000065030008AD0100086800002009
:100290006808002068040020680400207047704748
:1002A0007047754600F02CF8AE4605006946534687
:1002B00020F00700854618B020B5FFF7DDFFBDE848
:1002C00020404FF000064FF000074FF000084FF0BD
:1002D000000BAC46ACE8C009ACE8C009ACE8C0090A
:1002E000ACE8C00921F007018D46704710B50446FF
:1002F000AFF300802046BDE81040FFF7A8BF000024
:10030000004870470000002001491820ABBEFEE7FE
:10031000260002007047000040F60040C4F20200D0
:100320004FF4004100F0B2B910B540F6034000F0C0
:1003300081FA40F60044C4F2020420460121012261
:100340004FF4004300F0A4F92046002102224FF4AC
:10035000004300F0C7F920464FF40041BDE81040CB
:1003600000F092B980B581B04EF68851CEF200010E
:100370000A6843F6080E42F47002C4F2020E0A60E4
:100380005EF8081C4FF0000C41F001014EF8081C0B
:10039000DEF800104CF24F3241F08001CEF8001030
:1003A000CDF800C0009B934208D84CF2503300BFF8
:1003B00000990131009100999942F9D3DEF80010BB
:1003C00041F09001CEF80010CDF800C000999142A4
:1003D00008D84CF2503100BF009A01320092009AC6
:1003E0008A42F9D3DEF800104FF6FF7221F00301C4
:1003F000CEF800105EF8081CCFF6F66211404EF8F9
:10040000081C5EF8081C21F480214EF8081C00210D
:10041000CEF80010DEF8002043F21002C2F20042D3
:100420004EF8042CCEF804105EF8082C42F480320A
:100430004EF8082C4FF6FE725EF8080C013A41F1B6
:100440000003800301D4002BF6D15EF8080C800372
:1004500001D400BFFEE7DEF8380047F2000140F0AB
:100460008050C4F20001CEF83800086840F44040E3
:100470000860DEF80000CEF80000DEF8000040F46E
:100480000040CEF80000DEF8000040F4A050CEF8A6
:10049000000046F21940C0F640104EF8040C5EF819
:1004A000080C40F080704EF8080C00BF5EF8080C95
:1004B0008001FBD5086840F4803008604868C003BC
:1004C000FCD5086840F40030086000BF486880032D
:1004D000FCD5DEF8000020F00300CEF80000DEF8C6
:1004E000000040F00200CEF8000000BFDEF800007F
:1004F0000007FBD501B080BD80B54FF080400121E1
:1005000000F0D0FA08B34FF08040012100F0C6FAA5
:1005100040F26000C2F20000018840F2DC53002982
:100520001CBF0139018040F26400C2F20000018862
:100530004A1C9942028038BF80BD0021018040F2F0
:100540006200C2F200000121017080BD80B584B05C
:100550004FF4805000F06EF94FF0804000F09AF9AF
:1005600041F26700009014200290002001908DF865
:100570000C0069464FF0804000F036FA1C20012143
:10058000012200F0FBF84FF08040012100F082FAD8
:100590004FF0804000F022FA04B080BD10B54FF457
:1005A000406000F047F90024C4F202042046022112
:1005B0000022012300F06CF82046022100220223D1
:1005C00000F066F8204602210022042300F060F8C3
:1005D000204600210222012300F084F82046002159
:1005E0000222022300F07EF820460021022204238A
:1005F00000F078F820460121012200F00DF8204695
:100600000121022200F008F8204601210422BDE861
:10061000104000F001B80000F0B5D0F820E0D0F8AC
:1006200024C000230F27002505E000BF0135082D59
:1006300003F104030CD022FA05F6F607F6D007FA08
:1006400003F62EEA060601FA03F446EA040EEDE785
:10065000082300240F2504E00133102B04F10404C7
:100660000CD022FA03F6F607F6D005FA04F62CEAC7
:10067000060701FA04F647EA060CEDE7C0F820E0A9
:10068000C0F824C0F0BD000081617047C1627047AE
:100690002DE9F041D0F800E0D0F80CC000244FF074
:1006A0000308002605E000BF0136102E04F1020405
:1006B00012D023FA06F7FF07F6D008FA04F72EEA5D
:1006C000070E01FA04F54EEA050E2CEA070702FAB6
:1006D00004F547EA050CE7E7C0F800E0C0F80CC0F5
:1006E000BDE8F0810129416814BF99431943416075
:1006F000B0B5D0F808C000214FF0030E002404E08C
:100700000134102C01F102010CD023FA04F5ED079D
:10071000F6D00EFA01F52CEA050C02FA01F54CEAC6
:10072000050CEDE7C0F808C0B0BD000070B54FF48F
:10073000407000F075F8FFF731FFFFF707FFFFF794
:10074000F3FD40F26304C2F200040120207040F285
:10075000660040F26206C2F200000025C2F2000606
:10076000057001E0207830B130780128FAD1357079
:10077000FFF7D2FDF6E7002070BD00004EF60C5CDE
:10078000CEF2000CDCF8003003F4E063B3F5E06F68
:1007900001D1042328E0DCF8003003F4E063B3F572
:1007A000C06F01D103231FE0DCF8003003F4E063E5
:1007B000B3F5A06F17D0DCF8003003F4E063B3F5B5
:1007C000806F01D101230FE0DCF8003003F4E06317
:1007D000B3F5407F01D1002306E040F20053C0F2A0
:1007E000FA53CCF80030022301FA03FCC3F10403EE
:1007F0000F21D94011404EF2001241EA0C01CEF215
:100800000002090140EA020383F8001300F01F010F
:10081000012303FA01F11C2303EAD0008150704741
:1008200040F080604EF60C5140F0FD70CEF20001B9
:100830000860704743F6000300F01F018009C4F20E
:1008400002034FF0010CC2580CFA01F11143C150E0
:100850007047000043F6000300F01F018009C4F256
:1008600002034FF0010CC2580CFA01F122EA010117
:10087000C150704743F6000300F01F018009C4F225
:1008800002034FF0010CC2580CFA01F11143C150A0
:100890007047000010B541F6FF31C4F200018842F4
:1008A0001BDC40F6FF31C4F20001884230DD41F22A
:1008B000FF31C4F20001884250DC40F60041C4F22E
:1008C0000001884269D041F20001C4F2000188426F
:1008D00040F0828040F6040476E040F2FF31C4F23A
:1008E0000101884226DD44F2FF31C4F20101884251
:1008F00043DC40F20041C4F20101884250D044F28E
:100900000001C4F20101884266D14FF411645BE03A
:10091000B0F1804F47D040F20041C4F2000188425C
:1009200044D040F60001C4F20001884254D140F6A0
:10093000020449E041F60041C4F20001884238D087
:1009400042F20001C4F20001884235D00021C4F215
:100950000101884240D14FF4106435E041F200417A
:10096000C4F2000188422AD041F60001C4F200011D
:10097000884231D140F6060426E044F20041C4F238
:10098000010188421ED044F60001C4F201018842F0
:1009900018BF10BD40F6121416E040F6030413E031
:1009A00040F6011410E04FF400640DE040F601043D
:1009B0000AE040F6070407E040F6080404E040F6C9
:1009C000050401E040F611142046FFF753FF2046CE
:1009D000BDE81040FFF73EBF10BD0000016841F0C8
:1009E00001010160704700000A8840F2004C8262F9
:1009F00040F6FF32C4F200029042C4F2010C0FDC58
:100A0000B0F1804F19D040F20043C4F20003984285
:100A100013D040F60003C4F2000398420DD018E052
:100A200040F60043C4F20003984206D0604504D06B
:100A30000023C4F2010398420BD1036823F0700332
:100A400003604B8802681A4302608A8803681A436D
:100A5000026080B541F20002D1F808E020F4806322
:100A6000C4F200029342C0F82CE007D0026822F4DE
:100A700040720260CA8803681A43026040F48062D0
:100A8000624504BF097B0163416941F00101416195
:100A900080BD0000C2681143C1607047C943016155
:100AA00070470000C26800690A40084018BF012072
:100AB000002A18BF012210407047F1EE100A4FF6CD
:100AC000FF71C0F2C03120EA010040F04070E1EE59
:100AD000100A7047E40A00080000002068080000BF
:040AE00014020008F4
:04000005080001AD41
:00000001FF
