:020000040800F2
:10000000A00C00205D0200086502000867020008DD
:10001000690200086B0200086D0200080000000081
:100020000000000000000000000000006F02000857
:100030007102000800000000730200087502000849
:1000400077020008770200087702000877020008AC
:10005000770200087702000877020008770200089C
:10006000770200087702000877020008770200088C
:10007000770200087702000877020008770200087C
:10008000770200087702000877020008770200086C
:10009000770200087702000877020008770200085C
:1000A000770200087702000877020008770200084C
:1000B0007702000877020008B90B000877020008F1
:1000C000770200087702000877020008770200082C
:1000D00077020008410C000877020008A90C00080C
:1000E000770200087702000877020008770200080C
:1000F00077020008770200087702000877020008FC
:1001000077020008770200087702000877020008EB
:1001100077020008770200087702000877020008DB
:1001200077020008770200087702000877020008CB
:1001300077020008770200087702000877020008BB
:1001400077020008770200087702000877020008AB
:10015000770200087702000877020008770200089B
:10016000770200087702000877020008770200088B
:1001700077020008770200087702000800000000FC
:10018000770200087702000877020008770200086B
:1001900077020008770200087702000800000000DC
:1001A00077020008770200087702000800F002F8E2
:1001B00000F044F814A696E8000CB244B344DA45C3
:1001C00001D100F03BF8BAE80F000FA696E8300026
:1001D000A5EB040504EB0607AAEB0704A7F101074A
:1001E0004FEA15154FEA3414A4F10104AC4201D3CF
:1001F00000F024F813F0010F18BFFB1A43F00103BD
:1002000000F001F8DBE71847A8150000B81500005A
:10021000704700000023002400250026103A28BF64
:1002200078C1FBD8520728BF30C148BF0B60704768
:100230001FB501F0A2FA1FBD10B510BD00F031F8D6
:100240001146FFF7F5FF01F001F900F04FF803B494
:10025000FFF7F2FF03BC00F057F8000009488047A1
:1002600009480047FEE7FEE7FEE7FEE7FEE7FEE798
:10027000FEE7FEE7FEE7FEE704480549054A064BB0
:1002800070470000250A0008AD010008A004002006
:10029000A00C0020A0080020A00800207047704794
:1002A0007047754600F02CF8AE4605006946534687
:1002B00020F00700854618B020B5FFF7DDFFBDE848
:1002C00020404FF000064FF000074FF000084FF0BD
:1002D000000BAC46ACE8C009ACE8C009ACE8C0090A
:1002E000ACE8C00921F007018D46704710B50446FF
:1002F000AFF300802046BDE81040FFF7A8BF000024
:10030000004870470000002001491820ABBEFEE7FE
:1003100026000200704700002DE9F04145F200443C
:100320000025C4F20004C02646EA4507F9B220467B
:1003300000F036FE20B9022D05F10105F4D907E0E1
:1003400040F27C40C2F2000001214460077201705B
:1003500040F27C48C2F2000898F80000012816D04C
:100360000026C02704F5806447EA4605E9B2204626
:1003700000F016FE20B9022E06F10106F4D906E0BF
:100380000120C8F8044088F8085088F8000098F860
:100390000000002808BFBDE8F081D8F8044098F8B4
:1003A0000850204629460022002300F033FE204654
:1003B0002946FA22002300F02DFE20462946FB2282
:1003C000002300F027FE20462946FC22002300F0EF
:1003D00021FE20462946FD221023BDE8F04100F011
:1003E00019BE00002DE9F04145F200440025C4F299
:1003F0000004E02646EA4507F9B2204600F0D0FDA9
:1004000020B9022D05F10105F4D907E040F2704052
:10041000C2F20000012144600772017040F270488E
:10042000C2F2000898F80000012816D00026E02744
:1004300004F5806447EA4605E9B2204600F0B0FDC5
:1004400020B9022E06F10106F4D906E00120C8F811
:10045000044088F8085088F8000098F80000002848
:1004600008BFBDE8F081D8F8044098F8085020464D
:100470002946212200F096FE20462946BDE8F0419B
:1004800000F02AB8F0B581B00C46511ECAB2032A5A
:10049000054618D80220032200EB410002EB41067A
:1004A00041F29C71C0F6000101EB430711F81330D3
:1004B000C2B22846214600F0ADFD7B78F2B2284654
:1004C000214600F0A7FD28462146212201B0BDE8C3
:1004D000F04000F067BE0000B0B5022200230C46D9
:1004E000054600F097FD284621460322002300F030
:1004F00091FD284621460422002300F08BFD28466A
:1005000021460522002300F085FD284621460622CB
:10051000002300F07FFD284621460722002300F03B
:1005200079FD284621460822002300F073FD284665
:1005300021460922002300F06DFD28462146812234
:10054000BDE8B04000F02EBE10B540F6054001F009
:10055000D3F841F20044C4F20204204601210122F2
:10056000102300F01DFC204600210222102300F081
:1005700041FC20461021BDE8104000F00FBC0000F7
:10058000B0B50C46062A054608D8DFE812F0070089
:10059000210050007F00C900F80042012846214692
:1005A000FA22002300F036FD28462146FB220023D4
:1005B00000F030FD28462146FC22002300F02AFDF1
:1005C00028462146FD221023BDE8B04000F022BDA0
:1005D000284621460622002300F01CFD284621461D
:1005E0000722002300F016FD28462146082210238A
:1005F00000F010FD284621460922002300F00AFDE4
:10060000284621460A22992300F004FD2846214667
:100610000B22012300F0FEFC284621460C22002379
:1006200000F0F8FC284621460D220C23D5E0284690
:1006300021460622992300F0EDFC28462146072298
:10064000012300F0E7FC284621460822002300F0A1
:10065000E1FC284621460922082300F0DBFC28465D
:1006600021460A22992300F0D5FC284621460B2278
:10067000012300F0CFFC284621460C22002300F085
:10068000C9FC284621460D220823A6E0284621461B
:100690000622002300F0BEFC284621460722002344
:1006A00000F0B8FC284621460822102300F0B2FCD6
:1006B000284621460922002300F0ACFC28462146AA
:1006C0000A22002300F0A6FC284621460B22002324
:1006D00000F0A0FC284621460C22102300F09AFCD2
:1006E000284621460D22002300F094FC284621468E
:1006F0000E22992300F08EFC284621460F2201236A
:1007000000F088FC284621461022002300F082FCDD
:100710002846214611220C23BDE8B04000F07ABCE7
:10072000284621460622002300F074FC2846214674
:100730000722002300F06EFC2846214608221023E1
:1007400000F068FC284621460922002300F062FCE4
:10075000284621460A22992300F05CFC28462146BF
:100760000B22012300F056FC284621460C222023B0
:1007700000F050FC284621460D2202232DE0284699
:1007800021460622992300F045FC284621460722EF
:10079000012300F03FFC284621460822202300F0D8
:1007A00039FC284621460922022300F033FC284662
:1007B00021460A22002300F02DFC284621460B2268
:1007C000002300F027FC284621460C22102300F0CD
:1007D00021FC284621460D22002300F01BFC284660
:1007E00021460E22002300F015FC284621460F2248
:1007F000002300F00FFC284621461022102300F0B1
:1008000009FC2846214611220023BDE8B04000F033
:1008100001BC284621460622002300F0FBFB2846A7
:1008200021460722002300F0F5FB28462146082236
:10083000102300F0EFFB284621460922002300F098
:10084000E9FB284621460A22002300F0E3FB284664
:1008500021460B22002300F0DDFB284621460C2216
:10086000102300F0D7FB284621460D22002300F07C
:10087000D1FB284621460E22992300F0CBFB2846C7
:1008800021460F22012300F0C5FB284621461022F5
:10089000202300F0BFFB2846214611220223BDE899
:1008A000B04000F0B7BB000010B582B040F29041FC
:1008B000C2F2000140F288444868097AC2F200049A
:1008C0004FF0060C40222346CDF800C000F0FAFCA1
:1008D0002178A378227943EA0100104319D040F22D
:1008E0008F4E40F28E4CC2F2000ECC07C2F2000CCA
:1008F00008D09EF80040002C02BF01248CF8004074
:100900008EF800409EF80040D80704D01CB90221A0
:1009100032E002B010BDD00702D00CB903212BE0A9
:10092000880702D50CB9042126E0980702D50CB936
:10093000052121E0900702D50CB906211CE04807EB
:1009400002D50CB9072117E0580702D50CB90821C8
:1009500012E0500702D50CB909210DE0080702D5B5
:100960000CB90A2108E0180702D50CB90B2103E0E5
:10097000100706D52CB90C2101208CF800108EF838
:1009800000004FF4967002B0BDE8104000F0C0B90E
:100990002DE9F04145F200440025C4F20004E826A8
:1009A00046EA4507F9B2204600F0FAFA20B9022DCE
:1009B00005F10105F4D907E040F29040C2F20000D1
:1009C000012144600772017040F29048C2F20008B1
:1009D00098F80000012816D00026E82704F5806466
:1009E00047EA4605E9B2204600F0DAFA20B9022EBD
:1009F00006F10106F4D906E00120C8F8044088F8A1
:100A0000085088F8000098F80000002808BFBDE8EA
:100A1000F081D8F8040098F808102122BDE8F041D0
:100A200000F0C0BB80B581B04EF68851CEF2000117
:100A30000A6843F6080E42F47002C4F2020E0A601D
:100A40005EF8081C4FF0000C41F001014EF8081C44
:100A5000DEF800104CF24F3241F08001CEF8001069
:100A6000CDF800C0009B934208D84CF2503300BF31
:100A700000990131009100999942F9D3DEF80010F4
:100A800041F09001CEF80010CDF800C000999142DD
:100A900008D84CF2503100BF009A01320092009AFF
:100AA0008A42F9D3DEF800104FF6FF7221F00301FD
:100AB000CEF800105EF8081CCFF6F66211404EF832
:100AC000081C5EF8081C21F480214EF8081C002147
:100AD000CEF80010DEF8002043F21002C2F200420D
:100AE0004EF8042CCEF804105EF8082C42F4803244
:100AF0004EF8082C4FF6FE725EF8080C013A41F1F0
:100B00000003800301D4002BF6D15EF8080C8003AB
:100B100001D400BFFEE7DEF8380047F2000140F0E4
:100B20008050C4F20001CEF83800086840F440401C
:100B30000860DEF80000CEF80000DEF8000040F4A7
:100B40000040CEF80000DEF8000040F4A050CEF8DF
:100B5000000046F21940C0F640104EF8040C5EF852
:100B6000080C40F080704EF8080C00BF5EF8080CCE
:100B70008001FBD5086840F4803008604868C003F5
:100B8000FCD5086840F40030086000BF4868800366
:100B9000FCD5DEF8000020F00300CEF80000DEF8FF
:100BA000000040F00200CEF8000000BFDEF80000B8
:100BB0000007FBD501B080BD10B540F60004C4F2BB
:100BC00000042046012100F0ABFDB8B3204601210E
:100BD00000F0A2FD40F26C40C2F200000188002942
:100BE0001CBF0139018040F26220C2F2000001788E
:100BF00001290DD140F26021C2F200010A880132C0
:100C000093B2142B0A8003D300220A8003210170BF
:100C100040F26840C2F20000017801290ED140F292
:100C20006641C2F200010A88013293B2142B0A8095
:100C300038BF10BD00220A800321017010BD0000E2
:100C4000B0B541F2000440F20535C4F20104C0F22F
:100C500005052046294600F07FFD002808BFB0BDED
:100C60002046294600F06CFD204600F065FD40F26C
:100C70006421C2F200010A8840F26003C2F200035C
:100C8000985440F26220C2F2000003780132012B36
:100C90000A801CBF0121017040F26020C2F20000F6
:100CA00000210180B0BD0000B0B544F6000440F260
:100CB0000535C4F20004C0F205052046294600F0BF
:100CC0004BFD002808BFB0BD2046294600F038FD86
:100CD000204600F031FD40F26A41C2F200010A886C
:100CE00040F26623C2F20003985440F26840C2F218
:100CF000000003780132012B0A801CBF0121017022
:100D000040F26640C2F2000000210180B0BD000048
:100D1000002808BF7047002146F66052013A00BF24
:100D2000FCD101318142F7D170470000F0B5D0F815
:100D300020E0D0F824C000230F27002505E000BFE5
:100D40000135082D03F104030CD022FA05F6F6074D
:100D5000F6D007FA03F62EEA060601FA03F446EA8D
:100D6000040EEDE7082300240F2504E00133102BC7
:100D700004F104040CD022FA03F6F607F6D005FAC3
:100D800004F62CEA060701FA04F647EA060CEDE73A
:100D9000C0F820E0C0F824C0F0BD000081627047B8
:100DA0002DE9F041D0F800E0D0F80CC000244FF05D
:100DB0000308002605E000BF0136102E04F10204EE
:100DC00012D023FA06F7FF07F6D008FA04F72EEA46
:100DD000070E01FA04F54EEA050E2CEA070702FA9F
:100DE00004F547EA050CE7E7C0F800E0C0F80CC0DE
:100DF000BDE8F0810129416814BF9943194341605E
:100E0000B0B5D0F808C000214FF0030E002404E074
:100E10000134102C01F102010CD023FA04F5ED0786
:100E2000F6D00EFA01F52CEA050C02FA01F54CEAAF
:100E3000050CEDE7C0F808C0B0BD000010B541F2E8
:100E4000150000F059FC45F20044C4F2000448F2D9
:100E5000A061C0F201012046002200F037F92046CF
:100E600000210022A02300F01FFA204600F0F2F932
:100E700020464FF48061BDE8104000F085B80000C6
:100E800010B540F6014000F037FC40F20044C4F2D7
:100E90000204204604214FF48072FFF747FF2046EA
:100EA00004214FF40072FFF741FF20460221012286
:100EB0004FF48073FFF774FF2046022101224FF4A4
:100EC0000073FFF76DFF2046012102224FF480736B
:100ED000FFF790FF2046012102224FF40073BDE886
:100EE0001040FFF787BF000010B541F2160000F078
:100EF00003FC45F60004C4F2000448F2A061C0F20D
:100F000001012046002200F0E1F8204600210022E5
:100F1000A02300F0C9F9204600F09CF920464FF4C8
:100F20008061BDE8104000F02FB8000010B540F619
:100F3000054000F0E1FB41F20044C4F20204204607
:100F400004210222FFF7F2FE204604210122FFF7CE
:100F5000EDFE2046022101220123FFF721FF20465A
:100F6000022101220223FFF71BFFA4F500600121EB
:100F700002220123FFF73EFF204601210222022325
:100F8000BDE81040FFF736BF026822F480621143CB
:100F900001607047026822F40062114301607047EB
:100FA000F0B581B00D460446204640F2016100F0E4
:100FB0006BF90028F8D1204600F03CFA20464FF4A7
:100FC000A06100F061F90028F8D0204629466FF0B2
:100FD00001024EF6612600F05FF9B01E002587B2CF
:100FE000204640F2015100F04FF928B9A8B201356E
:100FF000B842F5D94EF66125204600F021FA00BF2F
:1010000020688005FCD4A9B20020B14238BF01207D
:1010100001B0F0BD2DE9F041984616460F46044652
:10102000204640F2016100F02FF90028F8D1204657
:1010300000F000FA20464FF4A06100F025F90028E6
:10104000F8D0204639466FF0010200F025F94EF63F
:10105000612700BF204640F2015100F015F940B968
:101060000135A8B2B842F5D32046BDE8F04100F002
:10107000E7B9204640F2015100F0F2F8204640F274
:10108000075100F001F90128F8D12046314600F05F
:10109000DFF800BF204640F2025100F0F5F80028CA
:1010A000F8D02046414600F0D3F800BF204640F279
:1010B000025100F0E9F80028F8D0204600F0C0F90D
:1010C00020688005FCD4BDE8F0810000F0B581B057
:1010D0000446022017460D4600F0B0FA4DF6836133
:1010E000C4F21B31A0FB0112910C48F2FF62C0F266
:1010F000933290420A4688BF3C22636848F2A06659
:10110000C0F2010623F03F03B54243EA02036360E5
:1011100007D844F2C042C0F2843290422BD33C2123
:1011200031E041F68021C0F206018D4237D84FF4FC
:101130009671514348F63812C0F24102A1FB0212E7
:10114000511C2162E169192221F48041002F18BF4E
:1011500001F5804108BF0322E161E1696A4341F47E
:101160000041B0FBF2F0E161E169020508BF41F026
:101170000101084312E048F27F42C0F21E02904291
:101180008CBF0131022121626900B0FBF1F004281B
:1011900098BF0420E1696FF31F300843E06101B09C
:1011A000F0BD0000F0B581B015460E46044600BF04
:1011B000204640F2016100F067F80028F8D120468F
:1011C00000F038F920464FF4A06100F05DF80028E7
:1011D000F8D0204631466FF0010200F05DF84EF67F
:1011E000612600BF204640F2015100F04DF848B999
:1011F0000137B8B2B042F5D3204601B0BDE8F040A7
:1012000000F01EB9204640F2015100F029F800BF5D
:10121000204640F2075100F037F80128F8D1204667
:10122000294600F015F800BF204640F2025100F0B8
:101230002BF80028F8D0204600F002F9206880053D
:10124000FCD401B0F0BD00000069C0B270470000DE
:1012500001617047016841F00101016070470000C1
:1012600040F20152914202D141698069704701F018
:101270001F0289094FF0010C0B580CFA02F223EA05
:1012800002020A50704700008A09105801F01F013D
:10129000C84000F00100704721F00101023218BF80
:1012A0000131016170470000D0F800C06FF39F2347
:1012B0002CF0020C41EA0C01016043EA020181605A
:1012C000704700002DE9F047089F994690468A46EE
:1012D000044600BF204640F20161FFF7D5FF002819
:1012E000F8D1022F04D120464FF40061FFF752FEDF
:1012F000204600F09FF800BF20464FF4A061FFF7A2
:10130000C3FF0028F8D0204651466FF00102FFF7D6
:10131000C3FF4EF6612500BF204640F20151FFF7A2
:10132000B3FF48B90136B0B2A842F5D3204600F069
:1013300087F80020BDE8F087204640F20151FFF712
:101340008FFF00BF204640F20751FFF79DFF0128A5
:10135000F8D12046FFF77EFF20464146FFF778FF91
:10136000204640F20251FFF78FFF0028F8D02046B8
:1013700000F060F820464FF4A061FFF785FF0028D9
:10138000F8D0204651460122FFF786FF022F03D8EE
:1013900020460021FFF7F8FD204640F20151FFF7FB
:1013A00073FF0028F8D0204640F20151FFF758FFA4
:1013B000012F0AD1204600F043F806E056B320463C
:1013C00040F20651FFF760FFE8B9BEB2022E0FD01F
:1013D000032EF3D1204640F20251FFF755FF0028BB
:1013E000F8D020460021FFF7CFFD022EE7D100BF45
:1013F000204640F20251FFF747FF0028F8D0204670
:1014000000F01EF8DBE72046FFF71EFF09F8010B8E
:10141000013FDAE720688005FCD420464FF4806164
:10142000FFF7B2FD20460021FFF7B4FD0120BDE823
:10143000F0870000016841F480710160704700008E
:10144000016841F40071016070470000FFF77CF80B
:101450004FF4407000F0E8F8FFF712FDFFF7EEFCE4
:10146000FFF764FDFFF740FDFFF792FAFEF7BAFFC2
:10147000FEF752FF40F28E4440F2704540F27C4746
:1014800040F28F48C2F20004C2F200050026C2F208
:101490000007C2F200080BE06868297A04220023E2
:1014A000FEF7F0FF4FF47A7088F80060FFF730FC29
:1014B000FFF7FAF92378012B13D16868297A0422FF
:1014C000FEF7E0FF7868397A01222670FFF758F8B6
:1014D00040F6B830FFF71CFC7868397A0022FFF735
:1014E0004FF82378022B13D16868297A0422FEF77B
:1014F000C9FF7868397A01222670FFF741F840F673
:10150000B830FFF705FC7868397A0022FFF738F821
:101510002378032B13D16868297A0422FEF7B2FFDF
:101520007868397A01222670FFF72AF840F6B83039
:10153000FFF7EEFB7868397A0022FFF721F823786D
:10154000042B13D16868297A0422FEF79BFF786880
:10155000397A01222670FFF713F840F6B830FFF70A
:10156000D7FB7868397A0022FFF70AF82378052B31
:1015700013D16868297A0422FEF784FF7868397AE3
:1015800001222670FEF7FCFF40F6B830FFF7C0FBE3
:101590007868397A0022FEF7F3FF2378062B13D1FF
:1015A0006868297A0422FEF76DFF7868397A01228B
:1015B0002670FEF7E5FF40F6B830FFF7A9FB786824
:1015C000397A0022FEF7DCFF2378072B13D16868F5
:1015D000297A0422FEF756FF7868397A01222670AC
:1015E000FEF7CEFF40F6B830FFF792FB7868397A05
:1015F0000022FEF7C5FF2378082B7FF44DAF686803
:10160000297A0422FEF73EFF7868397A0122267093
:10161000FEF7B6FF40F6B830FFF77AFB7868397A04
:101620000022FEF7ADFF37E740F080604EF60C5128
:1016300040F0FD70CEF200010860704710B543F62F
:101640000402C4F2020253680146C3F3810342F26A
:101650000040022BC0F2F40006D0012B1FD147F648
:101660004000C0F27D101AE0D2F800C013680CF000
:101670003F0CC3F3881E13681468C3F3014364026C
:1016800047F64004C0F27D1458BF0446B4FBFCF496
:10169000022000EB430004FB0EF3B3FBF0F05368B1
:1016A00011A4C3F30313E35C546841F2947CC4F3C4
:1016B0008224C0F6000C1CF804E05268032907D805
:1016C00020FA03F3DFE801F00F020609184610BD07
:1016D000002010BD23FA0EF010BDC2F342301CF8FA
:1016E000000023FA00F010BD000000000000000020
:1016F000010203040607080943F6000300F01F0176
:101700008009C4F202034FF0010CC2580CFA01F137
:101710001143C15070470000C94301617047000088
:10172000C26800690A40084018BF0120002A18BF9B
:10173000012210407047000040686FF35F2070473F
:10174000C1F30442890D4FF0010C0B580CFA02F260
:1017500023EA02020A507047C1F3891252F800C00E
:101760008A0D105801F01F03C1F30441C8402CFA40
:1017700003F1084000F001007047F1EE100A4FF647
:10178000FF71C0F2C03120EA010040F04070E1EE8C
:10179000100A70470000000001020304F801300045
:1017A000D802780230036803E8033800F8037803AE
:1017B000C017000800000020A00C00001402000860
:04000005080001AD41
:00000001FF
