:020000040800F2
:1000000028040020C1010008C9010008CB01000834
:10001000CD010008CF010008D10100080000000058
:10002000000000000000000000000000D3010008F4
:10003000D501000800000000D7010008D901000820
:10004000DB010008DB010008DB010008DB01000820
:10005000DB010008DB010008DB010008DB01000810
:10006000DB010008DB010008DB010008DB01000800
:10007000DB010008DB010008DB010008DB010008F0
:10008000DB010008DB010008DB010008DB010008E0
:10009000DB010008DB010008DB010008DB010008D0
:1000A000DB010008B5030008DB010008DB010008E4
:1000B000D9030008DB010008DB010008DB010008B0
:1000C000DB010008DB010008DB010008DB010008A0
:1000D000DB010008DB010008DB010008DB01000890
:1000E000DB010008DB010008DB010008DB01000880
:1000F000DB010008DB010008DB010008DB01000870
:10010000DB010008DB010008DB010008DB0100085F
:10011000DB010008DB010008DB010008DB0100084F
:10012000DB010008DB010008DB010008DB0100083F
:10013000DB010008DB010008DB010008DB0100082F
:10014000DB010008DB010008DB010008DB0100081F
:10015000DB010008DB010008DB010008DB0100080F
:10016000DB010008DB010008DB010008DB010008FF
:10017000DB010008DB010008DB01000800000000D3
:10018000DB010008DB010008DB010008DB010008DF
:10019000DB010008DB010008DB01000800000000B3
:1001A000DB010008DB010008DB010008DFF80CD0F0
:1001B00000F036F800480047C50E0008280400206B
:1001C0000648804706480047FEE7FEE7FEE7FEE7F1
:1001D000FEE7FEE7FEE7FEE7FEE7FEE75102000866
:1001E000AD010008421C10F8011B0029FBD1801A48
:1001F000704730B50B46014600202022012409E05B
:1002000021FA02F59D4205D303FA02F5491B04FACF
:1002100002F52844151EA2F10102F1DC30BD0000F8
:100220001CB509480090094801900546009C06E06D
:10023000E06840F0010394E8070098471034AC42AE
:10024000F6D3FFF7B7FF000058160008681600083D
:1002500081B04EF68851CEF200010A6843F60800DC
:1002600042F47002C4F202000A6050F8081C41F027
:10027000010140F8081C00BF50F8081C8907FBD595
:10028000016841F08001016000210091009A4F2A2D
:1002900006D800BF009A01320092009A502AF9D382
:1002A000026842F090020260009100994F2905D83F
:1002B00000990131009100995029F9D301684FF656
:1002C000FF7221F00301016050F8081CCFF6F662BE
:1002D000114040F8081C50F8081C4FF0000C21F4A5
:1002E000802140F8081CC0F800C0026843F21002E8
:1002F000C2F2004240F8042CC0F804C050F8082CA8
:1003000042F4803240F8082C4FF6FE7250F8081C78
:10031000013A4CF10003890301D4002BF6D150F8C7
:10032000081C890301D400BFFEE7826B47F200017D
:1003300042F08052C4F2000182630A6842F44042F3
:100340000A6002680260026842F4004202600268C9
:1003500042F4A052026046F21942C0F6401240F840
:10036000042C50F8082C42F0807240F8082C00BF92
:1003700050F8082C9201FBD50A6842F480320A60DA
:100380004A68D203FCD50A6842F400320A6000BF12
:100390004A689203FCD5016821F0030101600168FD
:1003A00041F00201016000BF01680907FCD501B0FE
:1003B0007047000010B50024C4F20104204601215A
:1003C00000F03AFF002808BF10BD20460121BDE81B
:1003D000104000F02DBF000080B54FF0804001219B
:1003E00000F02AFF002808BF80BD4FF080400121A7
:1003F00000F01EFF40F22000C2F20000018840F22F
:10040000DC534A1C9942028005D300210180BDE8DB
:10041000804000F01DBF80BD002808BF704700214C
:1004200046F66052013A00BFFCD101318142F7D15A
:1004300070470000F0B581B00C46511ECAB2032AC5
:1004400005461ED841F2F45C0698C0F6000C0CEB91
:100450004302567800284FF0020018BF04361CF8FB
:10046000133000EB4100032202EB4107C2B22846E1
:10047000214600F0CBFBF3B2FAB22846214600F049
:10048000C5FB28462146812201B0BDE8F04000F0BE
:1004900037BA00002DE9F04782B0044600F00EFBA9
:1004A00041F248684FF00009C0F600080FF2480A10
:1004B0006D4658F8296000271AF80720284631466B
:1004C00000F0BAFCDDE90001C4E90001607950B92F
:1004D0000137042FF0D1B9F1000F09F10109E8D07B
:1004E00002B0BDE8F087D4E900010022002300F04B
:1004F0008DFB02B0BDE8F087C0C2C4C62DE9F04351
:1005000081B099461746DDF8208016010A220F2394
:100510000C46054600F07AFB284621460B220023B4
:1005200000F074FB06F10F00C3B2284621460C22EE
:1005300000F06CFB3B09284621460D2200F066FBCB
:100540002846214606220F234FEA091600F05EFBDB
:10055000284621460722002300F058FB06F10F0031
:10056000C3B228462146082200F050FB4FEA191377
:1005700028462146092200F049FB284621460E2242
:100580000F234FEA081600F041FB284621460F22B0
:10059000002300F03BFB06F10F00C3B228462146C2
:1005A000102200F033FB4FEA18132846214611228F
:1005B00001B0BDE8F04300F029BB00002DE9F04791
:1005C00082B0044600F07AFA41F248684FF0000920
:1005D000C0F600080FF2B40A6D4658F829600027EB
:1005E0001AF807202846314600F026FCDDE9000114
:1005F000C4E90001607950B90137042FF0D1B9F195
:10060000000F09F10109E8D002B0BDE8F087D4E994
:10061000005421222846214600F072F9284621463E
:100620000222002300F0F2FA28462146032200238A
:1006300000F0ECFA284621460422002300F0E6FAF6
:10064000284621460522002300F0E0FA28462146EC
:100650000622002300F0DAFA28462146072200236A
:1006600000F0D4FA284621460822002300F0CEFAF2
:10067000284621460922002300F0C8FA28462146D0
:10068000812200F03DF902B0BDE8F087E0E2E4E647
:100690002DE9F04782B00646104614468846FFF71B
:1006A000A1FD2044471E04254FF000094FF0010A28
:1006B0000AE000BFEAB2304641462523CDF800905B
:1006C000FFF7B8FE013D32DDA742F3D33878A0F141
:1006D0003001CBB2092B09D87878EAB22E2814D190
:1006E00030464146CDF800A013E000BFA0F1610103
:1006F000C9B2192901D8573805E0A0F14101C9B2A2
:1007000019290AD83738EAB2C3B230464146CDF883
:100710000090FFF78FFE013FD4E72D2804D1EAB205
:10072000304641462423F2E70135013FCAE702B0D3
:10073000BDE8F0872DE9F04782B0044600F0BEF92D
:100740004FF000090FF23C080FF2400A6D4658F8CE
:10075000296000271AF807202846314600F06CFB74
:10076000DDE90001C4E90001607938B90137042FDF
:10077000F0D1B9F1000F09F10109E8D002B0BDE8EC
:10078000F08700BF0054004000580040383A3C3E1B
:1007900080B582B04FF0010C0DF107030222CDF8B5
:1007A00000C000F093FA9DF8070002B080BD000081
:1007B0001346032200F02ABA80B582B04FF0010C34
:1007C0000DF107030122CDF800C000F07FFA9DF87B
:1007D000070002B080BD0000F0B5D0F820E0D0F8EE
:1007E00024C000230F27002505E000BF0135082D98
:1007F00003F104030CD022FA05F6F607F6D007FA47
:1008000003F62EEA060601FA03F446EA040EEDE7C3
:10081000082300240F2504E00133102B04F1040405
:100820000CD022FA03F6F607F6D005FA04F62CEA05
:10083000060701FA04F647EA060CEDE7C0F820E0E7
:10084000C0F824C0F0BD0000C16270472DE9F0413E
:10085000D0F800E0D0F80CC000244FF003080026C8
:1008600005E000BF0136102E04F1020412D023FA75
:1008700006F7FF07F6D008FA04F72EEA070E01FA8A
:1008800004F54EEA050E2CEA070702FA04F547EADA
:10089000050CE7E7C0F800E0C0F80CC0BDE8F08147
:1008A0000129416814BF994319434160B0B5D0F89C
:1008B00008C000214FF0030E002404E00134102C86
:1008C00001F102010CD023FA04F5ED07F6D00EFA7F
:1008D00001F52CEA050C02FA01F54CEA050CEDE7EE
:1008E000C0F808C0B0BD0000026822F48062114365
:1008F00001607047026822F4006211430160704792
:1009000070B515460E460446204640F2016100F0DF
:10091000CDF80028F8D1204600F0C8FA20464FF460
:10092000A06100F0C3F80028F8D0F1B220466FF0C3
:10093000010200F055F948F2A166C0F2010600BFBD
:10094000204640F2015100F0B1F818B9013EF7D14C
:10095000002519E0204640F2015100F093F800BF55
:10096000204640F2075100F0A1F80128F8D12046B6
:10097000294600F07FF800BF204640F2025100F007
:1009800095F80028F8D00125204600F095FA284671
:1009900070BD0000F0B581B00446022017460D4638
:1009A00000F052FB4DF68361C4F21B31A0FB011233
:1009B000910C48F2FF62C0F2933290420A4688BF1F
:1009C0003C22636848F2A066C0F2010623F03F03B0
:1009D000B54243EA0203636007D844F2C042C0F262
:1009E000843290422BD33C2131E041F68021C0F289
:1009F00006018D4237D84FF49671514348F63812AC
:100A0000C0F24102A1FB0212511C2162E1691922CC
:100A100021F48041002F18BF01F5804108BF032257
:100A2000E161E1696A4341F40041B0FBF2F0E16148
:100A3000E169020508BF41F00101084312E048F2F4
:100A40007F42C0F21E0290428CBF0131022121621E
:100A50006900B0FBF1F0042898BF0420E1696FF34E
:100A60001F300843E06101B0F0BD00000069C0B272
:100A70007047000001617047016841F001010160A9
:100A80007047000040F20152914202D141698069F1
:100A9000704701F01F0289094FF0010C0B580CFA46
:100AA00002F223EA02020A50704700008A09105835
:100AB00001F01F01C84000F00100704770B540F61A
:100AC000014000F01FFB40F20044C4F20204204643
:100AD000022101224FF48073FFF7B8FE2046012166
:100AE00002224FF48073FFF7DBFE204604214FF40F
:100AF0008072FFF771FE2046022101224FF400733D
:100B0000FFF7A4FE2046012102224FF40073FFF7F5
:100B1000C7FE204604214FF40072FFF75DFE41F24C
:100B2000150000F0EFFA48F2A065A4F5D836C0F23F
:100B30000105304629460022FFF72CFF30460021F0
:100B40000022A02300F054F830464FF48061FFF7F4
:100B5000CBFE3046FFF790FF40F6054000F0D2FA9A
:100B600004F580563046022101220223FFF76EFE73
:100B70003046012102220223FFF792FE3046042173
:100B80000222FFF729FE3046022101220123FFF74E
:100B90005DFE3046012102220123FFF781FE30462F
:100BA00004210122FFF718FE41F2160000F0AAFA14
:100BB000A4F5D634204629460022FFF7EBFE204656
:100BC00000210022A02300F013F820464FF480619A
:100BD000FFF78AFE2046BDE87040FFF74DBF0000DA
:100BE00021F00101023218BF01310161704700009C
:100BF000D0F800C06FF39F232CF0020C41EA0C01E7
:100C0000016043EA0201816070470000F0B581B0E5
:100C10001D4616460F460446204640F20161FFF786
:100C200045FF0028F8D1204600F040F920464FF457
:100C3000A061FFF73BFF0028F8D0F9B220466FF023
:100C40000102FFF7CDFF48F2A167C0F2010700BF24
:100C5000204640F20151FFF729FF18B9013FF7D1B3
:100C600000252DE0204640F20151FFF70BFF00BFA9
:100C7000204640F20751FFF719FF0128F8D120461E
:100C80003146FFF7F7FE00BF204640F20251FFF762
:100C90000DFF0028F8D000BF204640F20751FFF7B3
:100CA00005FF0128F8D120462946FFF7E3FE00BFE3
:100CB000204640F20251FFF7F9FE0028F8D0012546
:100CC000204600F0F9F8284601B0F0BD2DE9F043C8
:100CD00081B0089D984691460E460446204640F253
:100CE0000161FFF7E3FE0028F8D1204600F0DEF8AE
:100CF00020464FF4A061FFF7D9FE0028F8D0F6B2E5
:100D0000204631466FF00102FFF76AFF48F2A16703
:100D1000C0F20107204640F20151FFF7C7FE10B9AB
:100D2000013FF7D12EE0204640F20151FFF7AAFE25
:100D3000204640F20751FFF7B9FE0128F8D12046BE
:100D40004946FFF797FE00BF204640F20251FFF7E9
:100D5000ADFE0028F8D0204600F0A8F820464FF459
:100D6000A061FFF7A3FE0028F8D0204631460122FB
:100D7000FFF736FF204640F20151FFF797FE40B9DA
:100D8000013FF7D1204600F097F8002001B0BDE800
:100D9000F083204640F20151FFF774FE022D03D884
:100DA00020460021FFF7A0FD012D07D0022D10D114
:100DB00020464FF40061FFF79DFD0AE0204600F059
:100DC0007BF806E056B3204640F20651FFF76EFE70
:100DD000E8B9EEB2022E0FD0032EF3D1204640F236
:100DE0000251FFF763FE0028F8D020460021FFF7EC
:100DF0007BFD022EE7D100BF204640F20251FFF7F3
:100E000055FE0028F8D0204600F056F8DBE72046D3
:100E1000FFF72CFE08F8010B013DDAE720464FF4FE
:100E20008061FFF761FD20460021FFF763FD01208F
:100E300001B0BDE8F083000070B516460D460446CB
:100E40000160027100206071284640F20161FFF7E5
:100E50002DFE0028F8D1284600F028F828464FF447
:100E6000A061FFF723FE0028F8D0284631466FF036
:100E70000102FFF7B5FE48F2A166C0F2010600BF0D
:100E8000284640F20151FFF711FE18B9013EF7D193
:100E9000002605E0284640F20151FFF7F3FD012648
:100EA000284600F009F8667170BD0000016841F441
:100EB0008071016070470000016841F400710160B9
:100EC0007047000088B0002402A8ADF81C40CDE9AE
:100ED0000544FFF773FBDDE9020140F20802C2F2AC
:100EE0000002C2E9000141F25062C0F60002FFF7C1
:100EF000CFFB02A8FFF7CEFADDE9020140F20002C3
:100F0000C2F20002C2E90001002200230094FFF7B0
:100F1000F5FA02A8FFF70EFCDDE9020140F2100429
:100F2000C2F200040022C4E90001FFF741FC02A85C
:100F300000F0F8F8DDE9020140F21802C2F2000206
:100F40000DF1140B4FF0000800264FF000094FF090
:100F5000000AC2E9000102E06420FFF75DFA40F2F6
:100F60001800C2F20000D0E9000100F011F93106CA
:100F700006460BD156B1A6F13100C1B24FF0010ABD
:100F8000022994BF5AFA80F94FF00009D4E9000110
:100F9000FFF712FCD4E9002107461046FFF7F8FBE3
:100FA000BAF1000F054607D0584625A13A462B4610
:100FB00000F056F906E000BF00208DF818004FF051
:100FC0002D30059040F20800C2F20000D0E9000187
:100FD0005A46FFF75DFBB9F1030F21D8DFE809F0AE
:100FE00002181E2A5FFA88F0854208BF002F17D129
:100FF0004FF4FA60FFF710FA5FEA08604FF000085C
:1010000008BF4FF06408BAF1000F0CD1A4E700BF8D
:101010004FF06408BAF1000F05D19DE74FF0320898
:10102000BAF1000F98D0D4E900015FFA88F2FFF717
:10103000BFFB91E74FF00008BAF1000FF3D18BE747
:1010400025642E253033640010B543F60402C4F243
:10105000020253680146C3F3810342F20040022BAF
:10106000C0F2F40006D0012B1FD147F64000C0F2B9
:101070007D101AE0D2F800C013680CF03F0CC3F3E7
:10108000881E13681468C3F30143640247F64004E2
:10109000C0F27D1458BF0446B4FBFCF4022000EB00
:1010A000430004FB0EF3B3FBF0F0536811A4C3F349
:1010B0000313E35C546841F2406CC4F38224C0F62D
:1010C000000C1CF804E05268032907D820FA03F347
:1010D000DFE801F00F020609184610BD002010BD20
:1010E00023FA0EF010BDC2F342301CF8000023FAC0
:1010F00000F010BD00000000000000000102030429
:101100000607080943F6000300F01F018009C4F236
:1011100002034FF0010CC2580CFA01F11143C15007
:10112000704700002DE9F04782B00446FFF7C6FC87
:101130004FF000090FF24C080FF2500A6D4658F8B4
:10114000296000271AF8072028463146FFF774FE69
:10115000DDE90001C4E90001607950B90137042FCD
:10116000F0D1B9F1000F09F10109E8D002B0BDE8F2
:10117000F087D4E900012122FFF7C2FB02B0BDE8ED
:10118000F08700BF0054004000580040E8EAECEE51
:1011900080B584B00022ADF80C2002924FF0060C0E
:1011A00002AB4022CDF800C0FFF790FD9DF808008B
:1011B000C1071ED19DF80A10CA071DD19DF80C2049
:1011C000D3071CD183071DD48B071ED493071FD4CC
:1011D000430720D44B0721D4530722D4000723D43C
:1011E00008074FBF30201007232101EAE07004B048
:1011F00080BD312004B080BD322004B080BD3320DA
:1012000004B080BD342004B080BD352004B080BD62
:10121000362004B080BD372004B080BD382004B033
:1012200080BD392004B080BD2A2004B080BD0000FC
:10123000C943016170470000C26800690A40084064
:1012400018BF0120002A18BF01221040704700007B
:1012500040F60040C4F202004FF40041FFF7F4BA38
:101260000FB4084B10B504A902AA039800F01CF8AB
:10127000044602A9002000F0B8F9204610BC5DF831
:1012800014FB0000EB15000802E008C8121F08C19B
:10129000002AFAD170477047002001E001C1121FF7
:1012A000002AFBD1704700002DE9FF4F8BB0884624
:1012B0000546002606E025280BD0DDE90D129047F3
:1012C0006D1C761C28780028F5D10FB03046BDE89B
:1012D000F08F0024A146A2460122AE4900E004435B
:1012E00015F8013F203B02FA03F00842F7D12878B5
:1012F0002A2810D06FF02F022878A0F13001092998
:1013000015D809EB890102EB410144F0020400EB1E
:1013100001096D1CF0E758F8041B5FEA010903D5C9
:1013200044F40054C9F1000944F002046D1C28780B
:101330002E2817D115F8010F44F004042A280ED0E6
:101340006FF02F022878A0F1300109290AD80AEBA2
:101350008A0102EB410100EB010A6D1CF2E758F82B
:1013600004AB6D1C28786C280FD006DC4C2817D0F5
:1013700068280DD06A2814D104E0742810D07A2887
:101380000FD10DE044F400140AE044F4801401E0AD
:1013900044F440146978814202D104F580146D1C34
:1013A0006D1C2878692865D006DC00288DD063285C
:1013B00027D0642806D15DE06E2808D073282AD093
:1013C000752877D0DDE90D129047761CE0E0C4F374
:1013D0000250022809D003280DD0D8F800100428A4
:1013E0000DD00E6008F10408D2E0D8F80010F21712
:1013F000C1E90062F6E7D8F800100E80F2E70E703F
:10140000F0E718F8041B8DF8001000208DF801009B
:10141000EB46012003E058F804BB4FF0FF306107B2
:101420004FF0000701D40AE07F1C57450DDA8742D0
:10143000FADB1BF807100029F6D106E07F1C874273
:10144000FCDB1BF807100029F8D1DDE90D23A9EB1F
:1014500007008146214600F0B1F83044C61904E087
:10146000DDE90D121BF8010B90477F1EF8D22146D3
:10147000484688E058F8040BC4F302514FF00A0BB9
:10148000032900D100B2042900D140B2002802DAB9
:1014900040422D2102E0210505D52B218DF8241095
:1014A000012104E006E0E10710D02021F6E708AFB3
:1014B000089113E058F8040BC4F302514FF00A0BE3
:1014C000032900D180B2042900D1C0B20021EEE787
:1014D0005946FEF78EFE303107F8011D0028F7D17E
:1014E000ADEB070000F1200B600702D524F4803437
:1014F00001E04FF0010ADA4502DDAAEB0B0000E043
:101500000020824600EB0B0108980144A9EB010082
:101510000A90E00306D4DDE90D2321460A9800F085
:101520004DF806444FF0000908E009A911F8090038
:10153000DDE90D12904709F10109761C08998945EA
:10154000F3DBE0030CD5DDE90D2321460A9800F01A
:1015500035F8064404E0DDE90D1230209047761C92
:10156000BAF10001AAF1010AF5DC05E0DDE90D128E
:1015700017F8010B9047761CBBF10001ABF1010B92
:10158000F4DC0A982146DDE90D2300F005F8064455
:101590006D1C97E6092801002DE9F041044600255D
:1015A0001E461746880404D405E039462020B0477B
:1015B0006D1C641EF9D52846BDE8F0812DE9F04187
:1015C000044600251E469046C80301D5302700E09A
:1015D0002027880404D505E041463846B0476D1CF5
:1015E000641EF9D52846BDE8F0810A68531C0B60DB
:1015F00010707047F8013000D80278023003680399
:10160000E8033800F8037803B803E003C801F002E8
:10161000C8038803E801B00320007000D003C001B4
:10162000A802A002E0029803380380022003C0034E
:10163000F00110035003B0017003480200020000E3
:101640000000000001020304005400400058004064
:101650002D2D2D2D00000000681600080000002030
:081660002804000098120008A4
:04000005080001AD41
:00000001FF
