:020000040800F2
:1000000050040020C1010008C9010008CB0100080C
:10001000CD010008CF010008D10100080000000058
:10002000000000000000000000000000D3010008F4
:10003000D501000800000000D7010008D901000820
:10004000DB010008DB010008DB010008DB01000820
:10005000DB010008DB010008DB010008DB01000810
:10006000DB010008DB010008DB010008DB01000800
:10007000DB010008DB010008DB010008DB010008F0
:10008000DB010008DB010008DB010008DB010008E0
:10009000DB010008DB010008DB010008DB010008D0
:1000A000DB010008DB010008DB010008DB010008C0
:1000B000DB010008DB010008DB010008DB010008B0
:1000C000DB010008DB010008DB010008DB010008A0
:1000D000DB01000815040008DB01000861040008CA
:1000E000DB010008DB010008DB010008DB01000880
:1000F000DB010008DB010008DB010008DB01000870
:10010000DB010008DB010008DB010008DB0100085F
:10011000DB010008DB010008DB010008DB0100084F
:10012000DB010008DB010008DB010008DB0100083F
:10013000DB010008DB010008DB010008DB0100082F
:10014000DB010008DB010008DB010008DB0100081F
:10015000DB010008DB010008DB010008DB0100080F
:10016000DB010008DB010008DB010008DB010008FF
:10017000DB010008DB010008DB01000800000000D3
:10018000DB010008DB010008DB010008DB010008DF
:10019000DB010008DB010008DB01000800000000B3
:1001A000DB010008DB010008DB010008DFF80CD0F0
:1001B00000F018F800480047E90500085004002046
:1001C0000648804706480047FEE7FEE7FEE7FEE7F1
:1001D000FEE7FEE7FEE7FEE7FEE7FEE78102000836
:1001E000AD0100081CB5094800900948019005467A
:1001F000009C06E0E06840F0010394E8070098479F
:100200001034AC42F6D3FFF7D5FF0000B40B000862
:10021000D40B000840F60040C4F202004FF4004145
:1002200000F092B910B540F6034000F0B9FA40F67C
:100230000044C4F202042046012101224FF400438D
:1002400000F084F92046002102224FF4004300F020
:10025000A7F920464FF40041BDE8104000F072B904
:1002600040F60040C4F202004FF4004100F06AB9C9
:1002700040F60040C4F202004FF4004100F060B9C3
:1002800080B581B04EF68851CEF200010A6843F67F
:10029000080E42F47002C4F2020E0A605EF8081CF6
:1002A0004FF0000C41F001014EF8081CDEF8001080
:1002B0004CF24F3241F08001CEF80010CDF800C072
:1002C000009B934208D84CF2503300BF0099013193
:1002D000009100999942F9D3DEF8001041F09001A5
:1002E000CEF80010CDF800C00099914208D84CF229
:1002F000503100BF009A01320092009A8A42F9D32D
:10030000DEF800104FF6FF7221F00301CEF8001066
:100310005EF8081CCFF6F66211404EF8081C5EF835
:10032000081C21F480214EF8081C0021CEF8001092
:10033000DEF8002043F21002C2F200424EF8042C14
:10034000CEF804105EF8082C42F480324EF8082CE7
:100350004FF6FE725EF8080C013A41F1000380038B
:1003600001D4002BF6D15EF8080C800301D400BF45
:10037000FEE7DEF8380047F2000140F08050C4F29A
:100380000001CEF83800086840F440400860DEF80C
:100390000000CEF80000DEF8000040F40040CEF887
:1003A0000000DEF8000040F4A050CEF8000046F255
:1003B0001940C0F640104EF8040C5EF8080C40F0EE
:1003C00080704EF8080C00BF5EF8080C8001FBD569
:1003D000086840F4803008604868C003FCD50868AD
:1003E00040F40030086000BF48688003FCD5DEF8A8
:1003F000000020F00300CEF80000DEF8000040F01E
:100400000200CEF8000000BFDEF800000007FBD5B8
:1004100001B080BDB0B541F2000440F20535C4F230
:100420000104C0F205052046294600F091FB002892
:1004300008BFB0BD2046294600F07EFB204600F0F4
:10044000F5FA40F20A01C2F200010A8840F20803FC
:10045000C2F200039854002A18BF01320A80B0BDCE
:10046000B0B544F6000440F20535C4F20004C0F211
:1004700005052046294600F06BFB002808BFB0BDEB
:100480002046294600F058FB40F24C05C2F2000518
:1004900028883F280BD8204600F0C8FA298840F267
:1004A0000C02C2F200025054481C2880B0BD00204B
:1004B0002880B0BD002808BF7047002146F6605272
:1004C000013A00BFFCD101318142F7D170470000F1
:1004D000F0B5D0F820E0D0F824C000230F27002585
:1004E00005E000BF0135082D03F104030CD022FA0A
:1004F00005F6F607F6D007FA03F62EEA060601FA25
:1005000003F446EA040EEDE7082300240F2504E077
:100510000133102B04F104040CD022FA03F6F60781
:10052000F6D005FA04F62CEA060701FA04F647EAC3
:10053000060CEDE7C0F820E0C0F824C0F0BD0000D4
:100540008162704781617047C16270472DE9F04157
:10055000D0F800E0D0F80CC000244FF003080026CB
:1005600005E000BF0136102E04F1020412D023FA78
:1005700006F7FF07F6D008FA04F72EEA070E01FA8D
:1005800004F54EEA050E2CEA070702FA04F547EADD
:10059000050CE7E7C0F800E0C0F80CC0BDE8F0814A
:1005A0000129416814BF994319434160B0B5D0F89F
:1005B00008C000214FF0030E002404E00134102C89
:1005C00001F102010CD023FA04F5ED07F6D00EFA82
:1005D00001F52CEA050C02FA01F54CEA050CEDE7F1
:1005E000C0F808C0B0BD000044F60004C4F2000426
:1005F000FFF718FE204600F003F940F20C00C2F2AB
:100600000000002162B60170FFF732FE4FF4FA607D
:10061000FFF750FFFFF724FE40F20005C2F200058D
:1006200020462946022200F081F94FF47A70FFF744
:1006300041FFFFF7EFFDC820FFF73CFFF0E70000A8
:100640004EF60C5CCEF2000CDCF8003003F4E063F4
:10065000B3F5E06F01D1042328E0DCF8003003F4A7
:10066000E063B3F5C06F01D103231FE0DCF8003075
:1006700003F4E063B3F5A06F17D0DCF8003003F4A7
:10068000E063B3F5806F01D101230FE0DCF80030A7
:1006900003F4E063B3F5407F01D1002306E040F2AC
:1006A0000053C0F2FA53CCF80030022301FA03FCE5
:1006B000C3F104030F21D94011404EF2001241EA68
:1006C0000C01CEF20002090140EA020383F8001394
:1006D00000F01F01012303FA01F11C2303EAD000FB
:1006E0008150704710B543F60402C4F20202536809
:1006F0000146C3F3810342F20040022BC0F2F40032
:1007000006D0012B1FD147F64000C0F27D101AE041
:10071000D2F800C013680CF03F0CC3F3881E1368B6
:100720001468C3F30143640247F64004C0F27D1429
:1007300058BF0446B4FBFCF4022000EB430004FB6A
:100740000EF3B3FBF0F0536811A4C3F30313E35C9F
:10075000546840F6AA3CC4F38224C0F6000C1CF88E
:1007600004E05268032907D820FA03F3DFE801F018
:100770000F020609184610BD002010BD23FA0EF026
:1007800010BDC2F342301CF8000023FA00F010BD87
:100790000000000000000000010203040607080931
:1007A00043F6000300F01F018009C4F202034FF07A
:1007B000010CC2580CFA01F11143C15070470000FE
:1007C00043F6000300F01F018009C4F202034FF05A
:1007D000010CC2580CFA01F122EA0101C150704724
:1007E00043F6000300F01F018009C4F202034FF03A
:1007F000010CC2580CFA01F11143C15070470000BE
:10080000B0B5044644F60000C4F20000844238D07B
:1008100041F20000C4F20100844218BFB0BD25209F
:1008200000210022FFF70CFF40F60140FFF7B8FF60
:1008300041F20410FFF7B4FF40F20045C4F2020594
:10084000284607214022FFF743FE28460721802241
:10085000FFF73EFE2846022101224023FFF776FEE5
:100860002846002102224023FFF79AFE2846022153
:1008700001228023FFF76AFE2846002102228023FE
:1008800038E0272005210022FFF7DAFE40F603407A
:10089000FFF786FF41F21200FFF782FF40F20040AF
:1008A000C4F2020000F50065284607214FF480726B
:1008B000FFF70EFE284607214FF40072FFF708FEEF
:1008C0002846022101224FF48073FFF73FFE28469D
:1008D000002102224FF48073FFF762FE28460221B6
:1008E00001224FF40073FFF731FE28460021022257
:1008F0004FF40073FFF754FE204600F09FF82046A7
:100900004FF4E13100F032F82046042100F032F9D2
:100910002046082100F034F9204600F0F3F8204684
:1009200040F20531BDE8B04000F0FAB82DE9F041E1
:100930009046054682B10E4600240027284606212F
:1009400000F0E6F80028F9D0315D284600F072F892
:100950000137FCB24445F1D32846062100F0D8F80F
:100960000028F9D04046BDE8F0810000B0B504464B
:1009700047F2FF70C4F200000D4684424FF00000C1
:100980000EDC44F6FF31C4F200018C4217DC44F265
:100990000041C4F200018C421DD044F6000116E073
:1009A00040F6FF71C4F201018C422FDC47F60001D2
:1009B000C4F200018C420ED047F6004107E044F635
:1009C0000041C4F200018C4205D045F20001C4F29E
:1009D00000018C4203D102210846FFF783FEE16843
:1009E000090406D400EB5500B0FBF5F080B2A0601E
:1009F000B0BD400000EB5500B0FBF5F04FF6F071D4
:100A00000140C0F342000844A060B0BD41F20001C3
:100A1000C4F201018C424FF00301DDD041F20042EB
:100A2000C4F201029442D7D0D9E7000040686FF3C6
:100A30005F2070476FF35F214160704710B547F248
:100A4000FF71C4F20001884214DC44F6FF31C4F2A5
:100A50000001884224DC44F20041C4F200018842D3
:100A60003CD044F60001C4F20001884249D140F66E
:100A700012043EE040F6FF71C4F2010188421EDC20
:100A800047F60001C4F2000188422AD047F600412F
:100A9000C4F20001884218BF10BD40F61F0428E0D0
:100AA00044F60041C4F2000188421DD045F2000125
:100AB000C4F20001884224D140F6140419E041F246
:100AC0000001C4F20101884211D041F20041C4F298
:100AD0000101884215D140F605140AE040F61104E0
:100AE00007E040F61E0404E040F6130401E040F67F
:100AF00004142046FFF774FE2046BDE81040FFF7BF
:100B00005FBE10BDC16841F40051C1607047000074
:100B10008A09105801F01F01C84000F00100704719
:100B200001F01F0289094FF0010C0B580CFA02F278
:100B30001A430A5070470000C1F30442890D4FF078
:100B4000010C0B580CFA02F223EA02020A50704719
:100B5000C1F3891252F800C08A0D105801F01F032A
:100B6000C1F30441C8402CFA03F1084000F0010031
:100B700070470000C26822F004021143C160704750
:100B8000C26822F008021143C160704702E008C841
:100B9000121F08C1002AFAD170477047002001E0F7
:100BA00001C1121F002AFBD17047000000000102A2
:100BB00003040000D80B000800000020080000001B
:100BC0008C0B0008E00B000808000020480400001F
:100BD0009C0B0008000000009901000000000000CC
:04000005080001AD41
:00000001FF
