:020000040800F2
:1000000020040020C1010008C9010008CB0100083C
:10001000CD010008CF010008D10100080000000058
:10002000000000000000000000000000D3010008F4
:10003000D501000800000000D7010008D901000820
:10004000DB010008DB010008DB010008DB01000820
:10005000DB010008DB010008DB010008DB01000810
:10006000DB010008DB010008DB010008DB01000800
:10007000DB010008DB010008DB010008DB010008F0
:10008000DB010008DB010008DB010008DB010008E0
:10009000DB010008DB010008DB010008DB010008D0
:1000A000DB01000875040008DB010008DB01000823
:1000B000DB010008DB010008DB010008DB010008B0
:1000C000DB010008DB010008DB010008DB010008A0
:1000D000DB010008DB010008DB010008DB01000890
:1000E000DB010008DB010008DB010008DB01000880
:1000F000DB010008DB010008DB010008DB01000870
:10010000DB010008DB010008DB010008DB0100085F
:10011000DB010008DB010008DB010008DB0100084F
:10012000DB010008DB010008DB010008DB0100083F
:10013000DB010008DB010008DB010008DB0100082F
:10014000DB010008DB010008DB010008DB0100081F
:10015000DB010008DB010008DB010008DB0100080F
:10016000DB010008DB010008DB010008DB010008FF
:10017000DB010008DB010008DB01000800000000D3
:10018000DB010008DB010008DB010008DB010008DF
:10019000DB010008DB010008DB01000800000000B3
:1001A000DB010008DB010008DB010008DFF80CD0F0
:1001B00000F060F800480047ED0F00082004002020
:1001C0000648804706480047FEE7FEE7FEE7FEE7F1
:1001D000FEE7FEE7FEE7FEE7FEE7FEE711030008A5
:1001E000AD010008421C10F8011B0029FBD1801A48
:1001F00070472DE9F05F0546002092469B468846F1
:100200000646814640241BE0284641464746224692
:1002100000F048F853465A46C01A914110D311468F
:100220001846224600F016F82D1A67EB01084F46D3
:1002300022460120002100F00DF817EB00094E4185
:10024000201EA4F10104DFDC484631462A4643461D
:10025000BDE8F09F202A04DB203A00FA02F10020DA
:1002600070479140C2F1200320FA03F319439040F4
:10027000704700001CB509480090094801900546E8
:10028000009C06E0E06840F0010394E8070098470E
:100290001034AC42F6D3FFF78DFF00008C2100082C
:1002A0009C210008202A04DB203A21FA02F00021D8
:1002B000704721FA02F3D040C2F120029140084376
:1002C0001946704710B540F6034001F023F840F698
:1002D0000044C4F202042046012101224FF40043ED
:1002E00000F0DEFA2046002102224FF4004300F025
:1002F00001FB20464FF40041BDE8104000F0CCBAAD
:1003000040F60040C4F202004FF4004100F0C2BACF
:1003100081B04EF68851CEF200010A6843F608001B
:1003200042F47002C4F202000A6050F8081C41F066
:10033000010140F8081C00BF50F8081C8907FBD5D4
:10034000016841F08001016000210091009A4F2A6C
:1003500006D800BF009A01320092009A502AF9D3C1
:10036000026842F090020260009100994F2905D87E
:1003700000990131009100995029F9D301684FF695
:10038000FF7221F00301016050F8081CCFF6F662FD
:10039000114040F8081C50F8081C4FF0000C21F4E4
:1003A000802140F8081CC0F800C0026843F2100227
:1003B000C2F2004240F8042CC0F804C050F8082CE7
:1003C00042F4803240F8082C4FF6FE7250F8081CB8
:1003D000013A4CF10003890301D4002BF6D150F807
:1003E000081C890301D400BFFEE7826B47F20001BD
:1003F00042F08052C4F2000182630A6842F4404233
:100400000A6002680260026842F400420260026808
:1004100042F4A052026046F21942C0F6401240F87F
:10042000042C50F8082C42F0807240F8082C00BFD1
:1004300050F8082C9201FBD50A6842F480320A6019
:100440004A68D203FCD50A6842F400320A6000BF51
:100450004A689203FCD5016821F00301016001683C
:1004600041F00201016000BF01680907FCD501B03D
:100470007047000010B50024C4F201042046012199
:1004800001F0F0FB002808BF10BD04F586304FF4E2
:10049000004100F003FA20460121BDE8104001F0C0
:1004A000DDBB0000002808BF7047002146F66052FF
:1004B000013A00BFFCD101318142F7D17047000001
:1004C000F0B581B00C46511ECAB2032A05461ED8AB
:1004D00042F2301C0698C0F6000C0CEB4302567832
:1004E00000284FF0020018BF04361CF8133000EB50
:1004F0004100032202EB4107C2B22846214600F028
:10050000B1FBF3B2FAB22846214600F0ABFB284615
:100510002146812201B0BDE8F04000F01BBA000086
:100520002DE9F04782B0044600F0F4FA42F2841854
:100530004FF00009C0F600080FF2480A6D4658F85F
:10054000296000271AF807202846314600F008FDE8
:10055000DDE90001C4E90001607950B90137042FD9
:10056000F0D1B9F1000F09F10109E8D002B0BDE8FE
:10057000F087D4E900010022002300F073FB02B0F1
:10058000BDE8F087C0C2C4C62DE9F04381B09946EA
:100590001746DDF8208016010A220F230C46054677
:1005A00000F060FB284621460B22002300F05AFB96
:1005B00006F10F00C3B2284621460C2200F052FB80
:1005C0003B09284621460D2200F04CFB28462146D7
:1005D00006220F234FEA091600F044FB2846214665
:1005E0000722002300F03EFB06F10F00C3B22846AD
:1005F0002146082200F036FB4FEA1913284621460F
:10060000092200F02FFB284621460E220F234FEA35
:10061000081600F027FB284621460F22002300F091
:1006200021FB06F10F00C3B228462146102200F03C
:1006300019FB4FEA181328462146112201B0BDE8E4
:10064000F04300F00FBB00002DE9F04782B00446F4
:1006500000F060FA42F284184FF00009C0F600087A
:100660000FF2B40A6D4658F8296000271AF80720DF
:100670002846314600F074FCDDE90001C4E90001C0
:10068000607950B90137042FF0D1B9F1000F09F1A9
:100690000109E8D002B0BDE8F087D4E90054212276
:1006A0002846214600F056F928462146022200231A
:1006B00000F0D8FA284621460322002300F0D2FA9F
:1006C000284621460422002300F0CCFA2846214681
:1006D0000522002300F0C6FA284621460622002300
:1006E00000F0C0FA284621460722002300F0BAFA9B
:1006F000284621460822002300F0B4FA2846214665
:100700000922002300F0AEFA28462146812200F09B
:1007100021F902B0BDE8F087E0E2E4E62DE9F04718
:1007200082B00646104614468846FFF75BFD20441B
:10073000471E04254FF000094FF0010A0AE000BFF0
:10074000EAB2304641462523CDF80090FFF7B8FEC7
:10075000013D32DDA742F3D33878A0F13001CBB2AE
:10076000092B09D87878EAB22E2814D130464146B0
:10077000CDF800A013E000BFA0F16101C9B21929B2
:1007800001D8573805E0A0F14101C9B219290AD8AA
:100790003738EAB2C3B230464146CDF80090FFF791
:1007A0008FFE013FD4E72D2804D1EAB230464146FE
:1007B0002423F2E70135013FCAE702B0BDE8F08724
:1007C0002DE9F04782B0044600F0A4F94FF000098B
:1007D0000FF23C080FF2400A6D4658F829600027D6
:1007E0001AF807202846314600F0BAFBDDE900017F
:1007F000C4E90001607938B90137042FF0D1B9F1AB
:10080000000F09F10109E8D002B0BDE8F08700BF90
:100810000054004000580040383A3C3E1346032242
:1008200000F020BAF0B5D0F820E0D0F824C00023C2
:100830000F27002505E000BF0135082D03F1040353
:100840000CD022FA05F6F607F6D007FA03F62EEAE0
:10085000060601FA03F446EA040EEDE70823002435
:100860000F2504E00133102B04F104040CD022FA0C
:1008700003F6F607F6D005FA04F62CEA060701FAA5
:1008800004F647EA060CEDE7C0F820E0C0F824C003
:10089000F0BD00008162704781617047C16270479E
:1008A0002DE9F041D0F800E0D0F80CC000244FF062
:1008B0000308002605E000BF0136102E04F10204F3
:1008C00012D023FA06F7FF07F6D008FA04F72EEA4B
:1008D000070E01FA04F54EEA050E2CEA070702FAA4
:1008E00004F547EA050CE7E7C0F800E0C0F80CC0E3
:1008F000BDE8F0810129416814BF99431943416063
:10090000B0B5D0F808C000214FF0030E002404E079
:100910000134102C01F102010CD023FA04F5ED078B
:10092000F6D00EFA01F52CEA050C02FA01F54CEAB4
:10093000050CEDE7C0F808C0B0BD0000026822F465
:100940008062114301607047026822F40062114323
:100950000160704770B515460E460446204640F2C9
:10096000016100F0CFF80028F8D1204600F032FBFA
:1009700020464FF4A06100F0C5F80028F8D0F1B28D
:1009800020466FF0010200F057F948F2A166C0F26C
:10099000010600BF204640F2015100F0B3F818B93B
:1009A000013EF7D1002519E0204640F2015100F048
:1009B00095F800BF204640F2075100F0A3F8012847
:1009C000F8D12046294600F07FF800BF204640F2CB
:1009D000025100F097F80028F8D00125204600F0D9
:1009E000FFFA284670BD0000F0B581B00446022031
:1009F00017460D4600F030FC4DF68361C4F21B3102
:100A0000A0FB0112910C48F2FF62C0F293329042B7
:100A10000A4688BF3C22636848F2A066C0F201061D
:100A200023F03F03B54243EA0203636007D844F270
:100A3000C042C0F2843290422BD33C2131E041F6D7
:100A40008021C0F206018D4237D84FF49671514390
:100A500048F63812C0F24102A1FB0212511C216279
:100A6000E169192221F48041002F18BF01F580416E
:100A700008BF0322E161E1696A4341F40041B0FB30
:100A8000F2F0E161E169020508BF41F001010843AC
:100A900012E048F27F42C0F21E0290428CBF013148
:100AA000022121626900B0FBF1F0042898BF042004
:100AB000E1696FF31F300843E06101B0F0BD000051
:100AC0000069C0B2704700000161704770470000C4
:100AD000016841F0010101607047000040F20152DD
:100AE000914202D141698069704701F01F02890972
:100AF0004FF0010C0B580CFA02F223EA02020A50E2
:100B0000704700008A09105801F01F01C84000F02A
:100B10000100704770B540F6014000F0FBFB40F269
:100B20000044C4F202042046022101224FF48073E3
:100B3000FFF7B6FE2046012102224FF48073FFF733
:100B4000D9FE204604214FF48072FFF76BFE204649
:100B5000022101224FF40073FFF7A2FE204601217B
:100B600002224FF40073FFF7C5FE204604214FF424
:100B70000072FFF757FE41F2150000F0CBFB48F280
:100B8000A065A4F5D836C0F20105304629460022FA
:100B9000FFF72AFF304600210022A02300F054F87E
:100BA00030464FF48061FFF7C9FE3046FFF790FFF3
:100BB00040F6054000F0AEFB04F5805630460221B9
:100BC00001220223FFF76CFE30460121022202239C
:100BD000FFF790FE304604210222FFF723FE304645
:100BE000022101220123FFF75BFE30460121022290
:100BF0000123FFF77FFE304604210122FFF712FE9A
:100C000041F2160000F086FBA4F5D63420462946B2
:100C10000022FFF7E9FE204600210022A02300F079
:100C200013F820464FF48061FFF788FE2046BDE8A8
:100C30007040FFF74DBF000021F00101023218BFE4
:100C40000131016170470000D0F800C06FF39F23AD
:100C50002CF0020C41EA0C01016043EA02018160C0
:100C600070470000F0B581B01D4616460F46044699
:100C7000204640F20161FFF745FF0028F8D12046E9
:100C800000F0A8F920464FF4A061FFF73BFF0028D1
:100C9000F8D0F9B220466FF00102FFF7CDFF48F21D
:100CA000A167C0F2010700BF204640F20151FFF7E3
:100CB00029FF18B9013FF7D100252DE0204640F269
:100CC0000151FFF70BFF00BF204640F20751FFF72D
:100CD00019FF0128F8D120463146FFF7F5FE00BF85
:100CE000204640F20251FFF70DFF0028F8D000BF68
:100CF000204640F20751FFF705FF0128F8D12046B2
:100D00002946FFF7E1FE00BF204640F20251FFF7FF
:100D1000F9FE0028F8D00125204600F061F92846A8
:100D200001B0F0BD2DE9F04381B0089D9846914691
:100D30000E460446204640F20161FFF7E3FE00281C
:100D4000F8D1204600F046F920464FF4A061FFF7A5
:100D5000D9FE0028F8D0F6B2204631466FF00102E5
:100D6000FFF76AFF48F2A167C0F20107204640F290
:100D70000151FFF7C7FE10B9013FF7D12EE0204621
:100D800040F20151FFF7AAFE204640F20751FFF75B
:100D9000B9FE0128F8D120464946FFF795FE00BF6D
:100DA000204640F20251FFF7ADFE0028F8D0204661
:100DB00000F010F920464FF4A061FFF7A3FE0028D1
:100DC000F8D0204631460122FFF736FF204640F298
:100DD0000151FFF797FE40B9013FF7D1204600F0DF
:100DE000FFF8002001B0BDE8F083204640F2015139
:100DF000FFF774FE022D03D820460021FFF79EFD69
:100E0000012D07D0022D10D120464FF40061FFF7CD
:100E10009BFD0AE0204600F0E3F806E056B32046CA
:100E200040F20651FFF76EFEE8B9EEB2022E0FD087
:100E3000032EF3D1204640F20251FFF763FE002853
:100E4000F8D020460021FFF779FD022EE7D100BF40
:100E5000204640F20251FFF755FE0028F8D0204608
:100E600000F0BEF8DBE72046FFF72AFE08F8010B8A
:100E7000013DDAE720464FF48061FFF75FFD204631
:100E80000021FFF761FD012001B0BDE8F083000003
:100E90002DE9F041069E1D4690460F46044600BFD0
:100EA000204640F20161FFF72DFE0028F8D12046D0
:100EB00000F090F820464FF4A061FFF723FE0028D1
:100EC000F8D0F9B220466FF00102FFF7B5FE48F204
:100ED000A167C0F2010700BF204640F20151FFF7B1
:100EE00011FE18B9013FF7D1002532E0204640F24B
:100EF0000151FFF7F3FD00BF204640F20751FFF715
:100F000001FE0128F8D120464146FFF7DDFD00BF74
:100F1000204640F20251FFF7F5FD0028F8D0BEB19F
:100F2000204640F20751FFF7EDFD0128F8D129785E
:100F30002046FFF7C9FD00BF204640F20251FFF7EF
:100F4000E1FD0028F8D0013E300605F10105E7D1AA
:100F50000125204600F044F82846BDE8F081000055
:100F600070B516460D46044601600271002060719E
:100F7000284640F20161FFF7C5FD0028F8D1284658
:100F800000F028F828464FF4A061FFF7BBFD0028C9
:100F9000F8D0284631466FF00102FFF74DFE48F2C7
:100FA000A166C0F2010600BF284640F20151FFF7DA
:100FB000A9FD18B9013EF7D1002605E0284640F208
:100FC0000151FFF78BFD0126284600F009F86671F4
:100FD00070BD0000016841F480710160704700003D
:100FE000016841F4007101607047000090B04FF05B
:100FF000FF300026ADF8200007900EA8ADF8346051
:10100000CDE90B66ADF82A600996CDE90566CDE914
:101010000366FFF719FBDDE90E0140F20808C2F292
:101020000008C8E900010EA8FFF77AFADDE90E0111
:1010300040F20004C2F2000400220023C4E90001CF
:101040000096FFF7A1FAFFF73DF90EA8FFF7B8FBEE
:10105000DDE90E0140F21007C2F200070022C7E9E5
:101060000001FFF7DBFB0EA800F0B2FBDDE90E018B
:1010700040F2180BC2F2000BCBE90001FFF740F978
:101080000DF10C090DF1240A002500BFE8B2062875
:10109000FCD8DFE800F00A3057616F7A050000BF26
:1010A000DBE9000100F076FBEEE7D4E90001002265
:1010B00000230096FFF768FAD7E900010022FFF746
:1010C000ADFBDBE9000126220DF12A0300F0BAFC9A
:1010D000002800F09480D8E900014FF02D3200255F
:1010E00003924A468DF81050FFF718FB4FF47A70C0
:1010F000FFF7D8F9CAE7DBE90001524600F0A4FA8D
:1011000000284FF00005C1D19DF824209DF825301E
:101110009DF826503E4627469DF82740484646A162
:10112000CDE900543C463746002600F0A7FDD8E93B
:1011300000014A46FFF7F2FA4FF4FA70FFF7B2F9EE
:101140000225A3E7DBE90001524600F0CDFC0025B3
:10115000002808BF032599E7DBE900016022052389
:1011600007ADCDE9005A00F0DFFAB0FA80F040098F
:1011700085008BE7DBE9000105222AA300F008FDCA
:101180000025002808BF052580E7DBE900010522CE
:101190004B4600F021FC00284FF000057FF476AFAD
:1011A000D8E900014A46FFF7B9FA4FF4FA70FFF7A1
:1011B00079F945F24F02D8E90001C4F645620B9275
:1011C0000BAA8DF83060FFF7A9FA4FF47A70FFF799
:1011D00069F9D7E900016422FFF720FB41F6583096
:1011E000FFF760F9D4E90001642200230096FFF7BD
:1011F000CBF941F65830FFF755F9062546E79DF83B
:101200002A209DF82B30484610A100F037FDD8E980
:1012100000014A46FFF782FA4FF47A70FFF742F96D
:10122000012533E731323334353637383837363500
:1012300034333231000000002530327825303278E6
:1012400025303278253032780000000025303278A1
:10125000253032780000000010B543F60402C4F2D5
:10126000020253680146C3F3810342F20040022B9D
:10127000C0F2F40006D0012B1FD147F64000C0F2A7
:101280007D101AE0D2F800C013680CF03F0CC3F3D5
:10129000881E13681468C3F30143640247F64004D0
:1012A000C0F27D1458BF0446B4FBFCF4022000EBEE
:1012B000430004FB0EF3B3FBF0F0536811A4C3F337
:1012C0000313E35C546842F27C1CC4F38224C0F62E
:1012D000000C1CF804E05268032907D820FA03F335
:1012E000DFE801F00F020609184610BD002010BD0E
:1012F00023FA0EF010BDC2F342301CF8000023FAAE
:1013000000F010BD00000000000000000102030416
:101310000607080943F6000300F01F018009C4F224
:1013200002034FF0010CC2580CFA01F11143C150F5
:10133000704700002DE9F04F83B01F4692460C46DF
:101340000C2A054606D0BAF10E0F07D111264FF030
:10135000120906E031264FF0770902E001264FF02E
:10136000000909F18003284621460222FFF77AFC92
:101370004FF000084FF0010B0DF1060328462146FF
:1013800004228DF80680CDF800B0FFF7CBFC9DF865
:101390000600214600F07F0328460422FFF762FC86
:1013A0002846214601220023FFF75CFC0DF10703CC
:1013B000284621460A228DF80780CDF800B0FFF7B5
:1013C000B1FC9DF80700214640F0800328460A2220
:1013D000FFF748FC3B460C9F284621460922009710
:1013E000FFF756FD2846214601225346FFF73AFCF7
:1013F000BAF10C0F12D102AB284621460D228DF80E
:101400000880CDF800B0FFF78DFC9DF8080021465C
:1014100040F0800328460D22FFF724FC4FF47A7831
:1014200001AF00BF2846214604223B46CDF800B05C
:10143000FFF778FCA8F101085FEA084060D09DF84A
:1014400004000642EED000208DF8090001260DF1BF
:101450000903284621460D220096FFF763FC9DF8FC
:101460000900214600F07F0328460D22FFF7FAFB12
:1014700001AB2846214606220096FFF753FC9DF853
:10148000040010F01B0F50D100EA0900BAF10C0F54
:1014900000F001064AD1012701AB284621460A2265
:1014A0000097FFF73FFC0DF10503284621460C226B
:1014B0000097FFF737FC9DF805009DF8041010F029
:1014C00007008DF8050040EAC100A0F1080008BF40
:1014D000C80000290E990D9B088008BF8DF8047084
:1014E0009DF804002146132824BF12208DF8040023
:1014F0009DF80470284609220097FFF713FC15E0B9
:1015000000208DF80A0001270DF10A032846214624
:101510000D220097FFF706FC9DF80A00214600F017
:101520007F0328460D22FFF79DFB022600208DF841
:101530000B0001270DF10B03284621460C220097D2
:10154000FFF7F0FB9DF80B00214640F08003284692
:101550000C22FFF787FB2846214601220023FFF7D4
:1015600081FB304603B0BDE8F08F00002DE9F04F5D
:1015700083B099469246DDF8308000264FF0010B8B
:101580000DF10A0305220C4605468DF80A60CDF8D8
:1015900000B0FFF7C7FB9DF80A00214600F0FB03EF
:1015A00028460522FFF75EFB28462146012200233C
:1015B000FFF758FB0DF10B03284621460A228DF850
:1015C0000B60CDF800B0FFF7ADFB9DF80B00214696
:1015D00040F0800328460A22FFF744FB28462146B4
:1015E00009225346CDF80090FFF752FC28462146C9
:1015F00001220323FFF736FBFF270DF1090600BF89
:101600002846214605223346CDF800B0FFF78AFB75
:10161000013F380604D09DF8090010F00400EFD017
:10162000012628462146222243460096FFF77AFBF0
:1016300008F101032846214621220096FFF772FB9C
:1016400003B0BDE8F08F00002DE9F0478AB0904666
:101650004FF0000A4FF0010904AB08220C46054682
:101660008DF810A0CDF80090FFF75CFB9DF81000FE
:10167000214600F0F70328460822FFF7F3FA284630
:1016800021460D220023FFF7EDFA04AF284621463C
:101690000E223B468DF810A0CDF80090FFF742FBDC
:1016A0009DF81000214600F07F0328460E22FFF728
:1016B000D9FA42F29300ADF8100009A80221009176
:1016C0000290284621460C223B460197FFF732FE46
:1016D000064688B904984FF0FF31C8F80000002092
:1016E0007A1852780131032980EA0200F8D19DF876
:1016F0001410884218BF02260DF127032846214600
:101700000E228DF827A0CDF80090FFF70BFB9DF877
:101710002700214640F0800328460E22FFF7A2FA58
:1017200030460AB0BDE8F08770B58AB00C46054671
:10173000DDE90E108DF8142000680A6889888DF89C
:101740001530079005AB0C20CDF81620ADF81A1017
:101750000DF12606CDE90003284621460E22029609
:10176000FFF7E8FD06464FF0010C0DF11303284684
:1017700021460822CDF800C0FFF7D4FA0EB10226A8
:1017800004E09DF81300000758BF022630460AB057
:1017900070BD0000F0B589B00546502004AFADF82B
:1017A0001000BE1C28463A4602230C460096FFF75E
:1017B000DDFE04200DF12206CDE900072846214672
:1017C0000C223B460296FFF7B5FD002009B0F0BDA4
:1017D0002DE9F04786B00446FFF79CF94FF0000969
:1017E0000FF2E8180FF2EC1A02AD58F82960002742
:1017F0001AF8072028463146FFF7B2FBDDE902015F
:10180000C4E90001607940B90137042FF0D1B9F182
:10181000000F09F10109E8D0BDE0D4E9005401222C
:10182000284621460F230126FFF71CFA0A20FFF75E
:101830004DF92846214611223D23FFF713FA284689
:1018400021462D221E23FFF70DFA284621462C2281
:1018500000230027FFF706FA284621462A228D2377
:10186000FFF700FA284621462B223E23FFF7FAF91C
:101870002846214615224023FFF7F4F90DF1120303
:101880002846214633228DF812700096FFF74AFA57
:101890009DF81200214600F07F0328463322FFF70F
:1018A000E1F92846214615224023FFF7DBF90DF127
:1018B00013032846214614228DF813700096FFF773
:1018C00031FA9DF81300214600F0FC03284614224B
:1018D000FFF7C8F90A20FFF7F9F805AB28462146BB
:1018E00014220096FFF71EFA9DF81400800712D10B
:1018F0000DF115032846214614228DF81570009627
:10190000FFF710FA9DF81500214640F00303284622
:101910001422FFF7A7F92846214608220823FFF7DB
:10192000A1F92846214611223D23FFF79BF92846BD
:10193000214617228623FFF795F9284621462622BD
:101940007F23FFF78FF9284621462D221E23FFF71C
:1019500089F9284621462C2200230027FFF782F927
:10196000284621462A228D23FFF77CF92846214666
:101970002B223E23FFF776F90A20FFF7A7F80DF197
:1019800016032846214614220096FFF7CBF99DF84E
:101990001600800702D006B0BDE8F0878DF81770FA
:1019A00001270DF117032846214614220097FFF75F
:1019B000B9F99DF81700214640F003032846142288
:1019C000FFF750F906B0BDE8F08700BF00540040B3
:1019D00000580040505254562DE9F04188B0074657
:1019E000302003AC8DF80C00A01C98468DF80D201B
:1019F00000903846224602230E460225FFF7B6FD28
:101A000004200DF11E0CCDE90004384631460C22AD
:101A10002346CDF808C0FFF78DFC78B9BDF81E103D
:101A200090290BD103AF069B86CF0546C8F80C3032
:101A3000C8F80870C8F80420C8F80010284608B094
:101A4000BDE8F0812DE9F04788B098469146002422
:101A50004FF0010A03AB08220D4606468DF80C40F4
:101A6000CDF800A0FFF75EF99DF80C00294600F0C4
:101A7000F70330460822FFF7F5F8304629460D22D5
:101A80000723FFF7EFF88DF80C4003AC30462946EA
:101A900014222346CDF800A0FFF744F99DF80C006E
:101AA000294640F0030330461422FFF7DBF80DF11E
:101AB0001E07304629460C2223468DF80C90CDE9AE
:101AC00000A40297FFF736FC4FF0020140B9BDF8C1
:101AD0001E20102A04D1BDF80C10A8F800100146F1
:101AE000084608B0BDE8F0872DE9F04188B00C4603
:101AF0001168054647F29300ADF80C000020CDF8C0
:101B00000E104FF0FF318DF8120000BF53185B78B4
:101B10000131032980EA0300F8D103AE8DF81200E9
:101B2000F71D28462146324607230097FFF71EFD82
:101B300000200DF11E088DF81E00012728462146C1
:101B4000082243460097FFF7EDF89DF81E00214656
:101B500000F0F70328460822FFF784F80920CDE9B2
:101B60000006284621460C223346CDF80880FFF7B0
:101B7000E1FBBDF81E10B1F118024FF0020118BFD1
:101B80000122002808BF5100084608B0BDE8F081D6
:101B90002DE9F04389B00546A02004AE99468DF8A2
:101BA00010008DF81120B71C2846324602230C463F
:101BB0000097FFF7DBFC04200DF12208CDE90006B9
:101BC000284621460C223346CDF80880FFF7B2FBA9
:101BD00070B9BDF8221004290AD19DF8101001F047
:101BE0000F010A2918BF022028B109B0BDE8F0830F
:101BF00002200028F9D1D9F80C20D9F80000D9F832
:101C00000410D9F80830079204AA0BC206F1100795
:101C100028462146324610230097FFF7A7FC1220E2
:101C2000CDE90006284621460C223346CDF808802F
:101C3000FFF780FB68B9BDF82210042909D19DF88F
:101C4000101001F00F010A2918BF022009B0BDE8E9
:101C5000F083022009B0BDE8F0830000C9430161B0
:101C600070470000C26800690A40084018BF0120A0
:101C7000002A18BF01221040704700000FB4084B23
:101C800010B504A902AA039800F01CF8044602A9A2
:101C9000002000F048FA204610BC5DF814FB00005C
:101CA0002721000802E008C8121F08C1002AFAD143
:101CB00070477047002001E001C1121F002AFBD1CC
:101CC000704700002DE9FF4F8DB00F4605460026F6
:101CD00006E025280BD0DDE90F1290476D1C761C1D
:101CE00028780028F5D111B03046BDE8F08F0024E7
:101CF000A246A1460122EC4900E0044315F8013F49
:101D0000203B02FA03F00842F7D128782A2810D0A5
:101D10006FF02F022878A0F13001092914D80AEBBE
:101D20008A0102EB410144F0020400EB010A6D1C40
:101D3000F0E701CF5FEA000A03D544F40054CAF18A
:101D4000000A44F002046D1C28782E2817D115F8DB
:101D5000010F44F004042A280ED06FF02F022878D7
:101D6000A0F1300109290AD809EB890102EB4101F0
:101D700000EB01096D1CF2E757F8049B6D1C2878F5
:101D80006C280FD006DC4C2817D068280DD06A28A4
:101D900014D104E0742810D07A280FD10DE044F457
:101DA00000140AE044F4801401E044F4401469781B
:101DB000814202D104F580146D1C6D1C2A786E2AB4
:101DC0001FD00CDC632A31D004DC002A8BD0582AC7
:101DD00011D1A3E0642A68D0692A0CD165E0732A86
:101DE0002ED004DC6F2A73D0702A04D19BE0752AB0
:101DF0006FD0782A6ED01046DDE90F129047761C1E
:101E000050E1C4F30250022806D0032809D0042868
:101E100001CF09D0066045E101CFF117C0E90061AB
:101E200040E101CF06803DE106703BE117F8040B6D
:101E30008DF8000000208DF80100EB46012003E042
:101E400057F804BB4FF0FF3061074FF0000102D498
:101E50000DE008F10101884649450FDA8045F8DBBD
:101E60001BF808100029F4D108E008F101018846A8
:101E70008142FADB1BF808100029F6D1DDE90F23B7
:101E8000AAEB08008146214600F036F9304400EB09
:101E9000080604E0DDE90F121BF8010B9047B8F1CA
:101EA0000108F7D221464846F7E00A21C4F302535D
:101EB0004FF0000B0891022B04D001CFC117032B68
:101EC00009D00AE0FF1D27F00707F7E8020108E044
:101ED00032E01FE020E000B2C117042B01D140B274
:101EE000C117031E71F1000307DA4FF0000CD0EBAD
:101EF0000C006CEB01012D2302E0230504D52B23FC
:101F00008DF82430012303E0E30701D02023F7E715
:101F1000984658E00A2110E010210EE010204FF002
:101F2000000B08900CE010214FF0000B44F004046B
:101F30004FF00809089103E008214FF0000B0891C9
:101F4000C4F30253022B04D001CF0021032B06D08F
:101F500006E0FF1D27F00707F7E8020103E080B263
:101F6000042B00D1C0B24FF0000823072BD5702AF4
:101F700007D0DDF820C08CF0100C5CEA0B0C05D00B
:101F80000EE040238DF82430012308E050EA0103DD
:101F900006D030238DF824308DF825200223984672
:101FA000DDF820C08CF0080C5CEA0B0C0BD150EA79
:101FB000010301D1630706D530238DF824304FF09B
:101FC0000108A9F10109582A04D038A20B9208AAE5
:101FD0000A920BE03AA2F9E75B46089AFEF709F984
:101FE0000B9B9B5C0A9A521E0A92137050EA0102E4
:101FF000F2D10A98ADEB000000F1200B600702D58A
:1020000024F4803401E04FF00109D94502DDA9EB49
:102010000B0000E0002000EB0B0141440890AAEB0C
:10202000010AE00306D4DDE90F232146504600F003
:1020300063F806444FF0000908E009A911F8090007
:10204000DDE90F12904709F10109761CC145F4DB67
:10205000E0030CD5DDE90F232146504600F04CF893
:10206000064404E0DDE90F1230209047761C089901
:10207000481E08900029F5DC08E00A980A990078C3
:10208000491C0A91DDE90F129047761CBBF1000153
:10209000ABF1010BF1DC21465046DDE90F2300F0E6
:1020A00019F806446D1C1BE6092801003031323353
:1020B0003435363738396162636465660000000084
:1020C000303132333435363738394142434445466E
:1020D000000000002DE9F041044600251E46174689
:1020E000880404D405E039462020B0476D1C641EE6
:1020F000F9D52846BDE8F0812DE9F04104460025D8
:102100001E469046C80301D5302700E020278804EA
:1021100004D505E041463846B0476D1C641EF9D52C
:102120002846BDE8F0810A68531C0B6010707047A8
:10213000F8013000D802780230036803E803380061
:10214000F8037803B803E003C801F002C80388036A
:10215000E801B00320007000D003C001A802A00273
:10216000E0029803380380022003C003F00110034B
:102170005003B0017003480200020000000000009C
:102180000102030400540040005800409C21000854
:0C2190000000002020040000B41C000827
:04000005080001AD41
:00000001FF
