:020000040800F2
:1000000060040020C1010008C9010008CB010008FC
:10001000CD010008CF010008D10100080000000058
:10002000000000000000000000000000D3010008F4
:10003000D501000800000000D7010008D901000820
:10004000DB010008DB010008DB010008DB01000820
:10005000DB010008DB010008DB010008DB01000810
:10006000DB010008DB010008DB010008DB01000800
:10007000DB010008DB010008DB010008DB010008F0
:10008000DB010008DB010008DB010008DB010008E0
:10009000DB010008DB010008DB010008DB010008D0
:1000A000DB010008B5030008DB010008DB010008E4
:1000B000F9030008DB010008DB010008DB01000890
:1000C000DB010008DB010008DB010008DB010008A0
:1000D000DB010008DB010008DB010008390400082F
:1000E000DB010008DB010008DB010008DB01000880
:1000F000DB010008DB010008DB010008DB01000870
:10010000DB010008DB010008DB010008DB0100085F
:10011000DB010008DB010008DB010008DB0100084F
:10012000DB010008DB010008DB010008DB0100083F
:10013000DB010008DB010008DB010008DB0100082F
:10014000DB010008DB010008DB010008DB0100081F
:10015000DB010008DB010008DB010008DB0100080F
:10016000DB010008DB010008DB010008DB010008FF
:10017000DB010008DB010008DB01000800000000D3
:10018000DB010008DB010008DB010008DB010008DF
:10019000DB010008DB010008DB01000800000000B3
:1001A000DB010008DB010008DB010008DFF80CD0F0
:1001B00000F036F8004800475D0D0008600400209C
:1001C0000648804706480047FEE7FEE7FEE7FEE7F1
:1001D000FEE7FEE7FEE7FEE7FEE7FEE75102000866
:1001E000AD010008421C10F8011B0029FBD1801A48
:1001F000704730B50B46014600202022012409E05B
:1002000021FA02F59D4205D303FA02F5491B04FACF
:1002100002F52844151EA2F10102F1DC30BD0000F8
:100220001CB509480090094801900546009C06E06D
:10023000E06840F0010394E8070098471034AC42AE
:10024000F6D3FFF7B7FF0000D0160008F01600083D
:1002500081B04EF68851CEF200010A6843F60800DC
:1002600042F47002C4F202000A6050F8081C41F027
:10027000010140F8081C00BF50F8081C8907FBD595
:10028000016841F08001016000210091009A4F2A2D
:1002900006D800BF009A01320092009A502AF9D382
:1002A000026842F090020260009100994F2905D83F
:1002B00000990131009100995029F9D301684FF656
:1002C000FF7221F00301016050F8081CCFF6F662BE
:1002D000114040F8081C50F8081C4FF0000C21F4A5
:1002E000802140F8081CC0F800C0026843F21002E8
:1002F000C2F2004240F8042CC0F804C050F8082CA8
:1003000042F4803240F8082C4FF6FE7250F8081C78
:10031000013A4CF10003890301D4002BF6D150F8C7
:10032000081C890301D400BFFEE7826B47F200017D
:1003300042F08052C4F2000182630A6842F44042F3
:100340000A6002680260026842F4004202600268C9
:1003500042F4A052026046F21942C0F6401240F840
:10036000042C50F8082C42F0807240F8082C00BF92
:1003700050F8082C9201FBD50A6842F480320A60DA
:100380004A68D203FCD50A6842F400320A6000BF12
:100390004A689203FCD5016821F0030101600168FD
:1003A00041F00201016000BF01680907FCD501B0FE
:1003B0007047000010B50024C4F20104204601215A
:1003C00000F058FE002808BF10BD40F20400C2F241
:1003D00000000168B1FA81F25209026029B904F5FE
:1003E00086304FF4004100F025FA20460121BDE897
:1003F000104000F03BBE000080B54FF0804001216E
:1004000000F038FE002808BF80BD4FF08040012179
:1004100000F02CFE40F25C00C2F20000018840F2C5
:10042000DC534A1C9942028005D300210180BDE8BB
:10043000804000F057BE80BD70B582B044F6000425
:1004400040F20535C4F20004C0F2050520462946F5
:1004500001F01EF810B340F24C00C2F20000D0E9E7
:100460000001002600226423009600F08BF820464D
:10047000294601F001F840F24805C2F2000528883B
:100480003F280AD8204600F071FF298840F2080270
:10049000C2F2000250542888461C2E8002B070BD63
:1004A000002808BF7047002146F66052013A00BF9D
:1004B000FCD101318142F7D170470000F0B581B025
:1004C0000C46511ECAB2032A05461ED841F2726C70
:1004D0000698C0F6000C0CEB4302567800284FF04B
:1004E000020018BF04361CF8133000EB4100032251
:1004F00002EB4107C2B22846214600F089FBF3B265
:10050000FAB22846214600F083FB28462146812284
:1005100001B0BDE8F04000F0F9B900002DE9F04766
:1005200082B0044600F0CCFA41F2C8684FF00009EE
:10053000C0F600080FF2480A6D4658F829600027F7
:100540001AF807202846314600F0C2FBDDE9000119
:10055000C4E90001607950B90137042FF0D1B9F135
:10056000000F09F10109E8D002B0BDE8F087D4E935
:1005700000010022002300F04BFB02B0BDE8F08731
:10058000C0C2C4C62DE9F04381B099461746DDF8D4
:10059000208016010A220F230C46054600F038FB86
:1005A000284621460B22002300F032FB06F10F0003
:1005B000C3B2284621460C2200F02AFB3B092846FC
:1005C00021460D2200F024FB2846214606220F2357
:1005D0004FEA091600F01CFB28462146072200239B
:1005E00000F016FB06F10F00C3B228462146082290
:1005F00000F00EFB4FEA191328462146092200F0AD
:1006000007FB284621460E220F234FEA081600F06A
:10061000FFFA284621460F22002300F0F9FA06F1DE
:100620000F00C3B228462146102200F0F1FA4FEA2B
:10063000181328462146112201B0BDE8F04300F00E
:10064000E7BA00002DE9F04782B0044600F038FA1E
:1006500041F2C8684FF00009C0F600080FF2B40A72
:100660006D4658F8296000271AF8072028463146B9
:1006700000F02EFBDDE90001C4E90001607950B90A
:100680000137042FF0D1B9F1000F09F10109E8D0C9
:1006900002B0BDE8F087D4E9005421222846214663
:1006A00000F034F9284621460222002300F0B0FA77
:1006B000284621460322002300F0AAFA28462146B4
:1006C0000422002300F0A4FA284621460522002334
:1006D00000F09EFA284621460622002300F098FAF0
:1006E000284621460722002300F092FA2846214698
:1006F0000822002300F08CFA284621460922002314
:1007000000F086FA28462146812200F0FFF802B068
:10071000BDE8F087E0E2E4E62DE9F04782B0064666
:10072000104614468846FFF75DFD2044471E042509
:100730004FF000094FF0010A0AE000BFEAB230466C
:1007400041462523CDF80090FFF7B8FE013D32DD8C
:10075000A742F3D33878A0F13001CBB2092B09D8E6
:100760007878EAB22E2814D130464146CDF800A060
:1007700013E000BFA0F16101C9B2192901D85738AF
:1007800005E0A0F14101C9B219290AD83738EAB207
:10079000C3B230464146CDF80090FFF78FFE013FCF
:1007A000D4E72D2804D1EAB2304641462423F2E7AB
:1007B0000135013FCAE702B0BDE8F087F0B5D0F8D7
:1007C00020E0D0F824C000230F27002505E000BF5B
:1007D0000135082D03F104030CD022FA05F6F607C3
:1007E000F6D007FA03F62EEA060601FA03F446EA03
:1007F000040EEDE7082300240F2504E00133102B3D
:1008000004F104040CD022FA03F6F607F6D005FA38
:1008100004F62CEA060701FA04F647EA060CEDE7AF
:10082000C0F820E0C0F824C0F0BD0000816270472D
:1008300081617047C162704700F13E4101F1FF7173
:10084000800540EA9120082888BF704710B500F560
:10085000806084B2204600F0F9FB2046BDE81040DD
:1008600000F0E4BB2DE9F041D0F800E0D0F80CC076
:1008700000244FF00308002605E000BF0136102ECB
:1008800004F1020412D023FA06F7FF07F6D008FAA3
:1008900004F72EEA070E01FA04F54EEA050E2CEADB
:1008A000070702FA04F547EA050CE7E7C0F800E09D
:1008B000C0F80CC0BDE8F0810129416814BF99431C
:1008C00019434160B0B5D0F808C000214FF0030EC5
:1008D000002404E00134102C01F102010CD023FAB1
:1008E00004F5ED07F6D00EFA01F52CEA050C02FA34
:1008F00001F54CEA050CEDE7C0F808C0B0BD0000FA
:10090000026822F4806211430160704770B5154699
:100910000E460446204640F2016100F0C9F8002866
:10092000F8D1204600F00EFA20464FF4A06100F006
:10093000BFF80028F8D0F1B220466FF0010200F0B5
:1009400051F948F2A166C0F2010600BF204640F20C
:10095000015100F0ADF818B9013EF7D1002519E0BA
:10096000204640F2015100F08FF800BF204640F2CF
:10097000075100F09DF80128F8D12046294600F0E3
:100980007BF800BF204640F2025100F091F80028A9
:10099000F8D00125204600F0DBF9284670BD0000A4
:1009A000F0B581B00446022017460D4600F0D0FA9B
:1009B0004DF68361C4F21B31A0FB0112910C48F289
:1009C000FF62C0F2933290420A4688BF3C226368BD
:1009D00048F2A066C0F2010623F03F03B54243EAA5
:1009E0000203636007D844F2C042C0F284329042EE
:1009F0002BD33C2131E041F68021C0F206018D422B
:100A000037D84FF49671514348F63812C0F241027C
:100A1000A1FB0212511C2162E169192221F48041DB
:100A2000002F18BF01F5804108BF0322E161E16991
:100A30006A4341F40041B0FBF2F0E161E169020573
:100A400008BF41F00101084312E048F27F42C0F2C2
:100A50001E0290428CBF0131022121626900B0FB6D
:100A6000F1F0042898BF0420E1696FF31F300843B8
:100A7000E06101B0F0BD000001617047016841F024
:100A8000010101607047000040F20152914202D121
:100A900041698069704701F01F0289094FF0010C1C
:100AA0000B580CFA02F223EA02020A5070470000C7
:100AB0008A09105801F01F01C84000F0010070477A
:100AC00070B540F6014000F0A1FA40F20044C4F2D3
:100AD00002042046022101224FF48073FFF7C2FE78
:100AE0002046012102224FF48073FFF7E5FE2046E5
:100AF00004214FF48072FFF761FE2046022101229B
:100B00004FF40073FFF7AEFE2046012102224FF49E
:100B10000073FFF7D1FE204604214FF40072FFF767
:100B20004DFE41F2150000F071FA48F2A065A4F5FF
:100B3000D836C0F20105304629460022FFF730FFC3
:100B4000304600210022A02300F054F830464FF434
:100B50008061FFF7D5FE3046FFF790FF40F6054075
:100B600000F054FA04F58056304602210122022397
:100B7000FFF778FE3046012102220223FFF79CFE98
:100B8000304604210222FFF719FE304602210122DD
:100B90000123FFF767FE3046012102220123FFF700
:100BA0008BFE304604210122FFF708FE41F21600B9
:100BB00000F02CFAA4F5D634204629460022FFF78F
:100BC000EFFE204600210022A02300F013F820466B
:100BD0004FF48061FFF794FE2046BDE87040FFF7B8
:100BE0004DBF000021F00101023218BF0131016147
:100BF00070470000D0F800C06FF39F232CF0020C68
:100C000041EA0C01016043EA020181607047000083
:100C1000F0B581B01D4616460F460446204640F208
:100C20000161FFF745FF0028F8D1204600F08AF85F
:100C300020464FF4A061FFF73BFF0028F8D0F9B23F
:100C400020466FF00102FFF7CDFF48F2A167C0F226
:100C5000010700BF204640F20151FFF729FF18B9F4
:100C6000013FF7D100252DE0204640F20151FFF76A
:100C70000BFF00BF204640F20751FFF719FF012884
:100C8000F8D120463146FFF7F7FE00BF204640F27C
:100C90000251FFF70DFF0028F8D000BF204640F2B8
:100CA0000751FFF705FF0128F8D120462946FFF735
:100CB000E3FE00BF204640F20251FFF7F9FE002894
:100CC000F8D00125204600F043F8284601B0F0BDD9
:100CD00070B516460D460446016002710020607131
:100CE000284640F20161FFF7E3FE0028F8D12846CC
:100CF00000F028F828464FF4A061FFF7D9FE00283D
:100D0000F8D0284631466FF00102FFF76BFF48F23A
:100D1000A166C0F2010600BF284640F20151FFF76C
:100D2000C7FE18B9013EF7D1002605E0284640F27B
:100D30000151FFF7A9FE0126284600F009F8667167
:100D400070BD0000016841F48071016070470000CF
:100D5000016841F4007101607047000086B044F6FC
:100D600000050024C4F20005ADF80C40CDE90144B3
:100D700000F08CF9284600F0BDF904A862B6FFF730
:100D800061FCDDE9040140F25402C2F20002C2E952
:100D9000000104A8FFF7C2FBDDE9040140F24C05A5
:100DA000C2F2000500220023C5E900010094FFF70C
:100DB000E9FB40F20800C2F20000047000F08AF97A
:100DC0004FF4FA60FFF76CFB00F07CF940F2480B3F
:100DD000C2F2000B34A601AF4FF0640903E000BF7C
:100DE0006420FFF75DFB44F6000040F20001C4F20E
:100DF0000000C2F20001022200F038FA4FF47A70CB
:100E0000FFF74EFB00F06EF9BBF800004CF6CD4149
:100E10004143C90C01EB8101A0EB410082B238468D
:100E2000314600F053FB40F25400C2F20000D0E91A
:100E300000013A46FFF770FCD5E900016422002367
:100E40000094FFF79FFBBBF800000028C8D072B6E3
:100E5000BBF800A0ABF80040BAF1000F62B6BFD0FB
:100E600040F20808C2F200080BE000BFD5E900011B
:100E700064226423CDF80090FFF784FBBAF1010AE5
:100E8000AED018F8010B612808D04128EED03928DF
:100E9000F4D1D5E9000100220023EBE7D5E90001F8
:100EA000002200230094E7E7256400004EF60C5C66
:100EB000CEF2000CDCF8003003F4E063B3F5E06F31
:100EC00001D1042328E0DCF8003003F4E063B3F53B
:100ED000C06F01D103231FE0DCF8003003F4E063AE
:100EE000B3F5A06F17D0DCF8003003F4E063B3F57E
:100EF000806F01D101230FE0DCF8003003F4E063E0
:100F0000B3F5407F01D1002306E040F20053C0F268
:100F1000FA53CCF80030022301FA03FCC3F10403B6
:100F20000F21D94011404EF2001241EA0C01CEF2DD
:100F30000002090140EA020383F8001300F01F01D8
:100F4000012303FA01F11C2303EAD000815070470A
:100F500010B543F60402C4F2020253680146C3F31B
:100F6000810342F20040022BC0F2F40006D0012BB4
:100F70001FD147F64000C0F27D101AE0D2F800C041
:100F800013680CF03F0CC3F3881E13681468C3F396
:100F90000143640247F64004C0F27D1458BF044682
:100FA000B4FBFCF4022000EB430004FB0EF3B3FBA4
:100FB000F0F0536811A4C3F30313E35C546841F2E7
:100FC000BE6CC4F38224C0F6000C1CF804E0526826
:100FD000032907D820FA03F3DFE801F00F0206091E
:100FE000184610BD002010BD23FA0EF010BDC2F34C
:100FF00042301CF8000023FA00F010BD0000000091
:1010000000000000010203040607080943F600037C
:1010100000F01F018009C4F202034FF0010CC25816
:101020000CFA01F11143C1507047000043F6000370
:1010300000F01F018009C4F202034FF0010CC258F6
:101040000CFA01F122EA0101C150704743F6000396
:1010500000F01F018009C4F202034FF0010CC258D6
:101060000CFA01F11143C15070470000C9430161FE
:1010700070470000C26800690A40084018BF01209C
:10108000002A18BF012210407047000010B540F63A
:101090000340FFF7BBFF40F60044C4F202042046C1
:1010A000FFF7CAFB2046012100224FF40043FFF75F
:1010B000D9FB2046002102224FF40043BDE8104036
:1010C000FFF7FABB40F60040C4F202004FF40041C3
:1010D000FFF7AEBB40F60040C4F202004FF40041FF
:1010E000FFF7A4BB40F60040C4F202004FF40041F9
:1010F000FFF7A0BBB0B5044644F20040C4F20000C4
:1011000084423AD044F60000C4F20000844260D029
:1011100041F20000C4F20100844218BFB0BD252096
:1011200000210022FFF7C2FE40F60140FFF76EFFEC
:1011300041F20410FFF76AFF40F60040C4F20200DB
:10114000A0F50065284607214022FFF737FB284617
:1011500007218022FFF732FB28460221012240238B
:10116000FFF780FB2846002102224023FFF7A4FB63
:1011700028460221012280235BE02620052100224F
:10118000FFF794FE40F60340FFF740FF41F21100E5
:10119000FFF73CFF40F60045C4F202052846072150
:1011A0002022FFF70BFB284607214022FFF706FB12
:1011B0002846022101222023FFF754FB2846002164
:1011C00002222023FFF778FB284602210122402338
:1011D0002FE0272005210022FFF768FE40F603409C
:1011E000FFF714FF41F21200FFF710FF40F6004531
:1011F000C4F20205284607214FF48072FFF7DEFA99
:10120000284607214FF40072FFF7D8FA284602213A
:1012100001224FF48073FFF725FB284600210222AC
:101220004FF48073FFF748FB2846022101224FF458
:101230000073FFF717FB204600F0A0F820464FF49C
:10124000E13100F033F82046042100F033F9204664
:10125000082100F035F9204600F0F4F8204640F26D
:101260000531BDE8B04000F0FBB800002DE9F041C9
:101270009046054682B10E460024002728460621E6
:1012800000F0E6F80028F9D0315D284600F072F849
:101290000137FCB24445F1D32846062100F0D8F8C6
:1012A0000028F9D04046BDE8F0810000B0B5044602
:1012B00047F2FF70C4F200000D4684424FF0000078
:1012C0000EDC44F6FF31C4F200018C4217DC44F21C
:1012D0000041C4F200018C421DD044F6000116E02A
:1012E00040F6FF71C4F201018C422FDC47F6000189
:1012F000C4F200018C420ED047F6004107E044F6EC
:101300000041C4F200018C4205D045F20001C4F254
:1013100000018C4203D102210846FFF719FEE16863
:10132000090406D400EB5500B0FBF5F080B2A060D4
:10133000B0BD400000EB5500B0FBF5F04FF6F0718A
:101340000140C0F342000844A060B0BD41F200017A
:10135000C4F201018C424FF00301DDD041F20042A2
:10136000C4F201029442D7D0D9E7000040686FF37D
:101370005F2070476FF35F214160704710B547F2FF
:10138000FF71C4F20001884214DC44F6FF31C4F25C
:101390000001884224DC44F20041C4F2000188428A
:1013A0003CD044F60001C4F20001884249D140F625
:1013B00012043EE040F6FF71C4F2010188421EDCD7
:1013C00047F60001C4F2000188422AD047F60041E6
:1013D000C4F20001884218BF10BD40F61F0428E087
:1013E00044F60041C4F2000188421DD045F20001DC
:1013F000C4F20001884224D140F6140419E041F2FD
:101400000001C4F20101884211D041F20041C4F24E
:101410000101884215D140F605140AE040F6110496
:1014200007E040F61E0404E040F6130401E040F635
:1014300004142046FFF70AFE2046BDE81040FFF7DF
:10144000F5BD10BDC16841F40051C1607047000096
:101450008A09105801F01F01C84000F001007047D0
:1014600001F01F0289094FF0010C0B580CFA02F22F
:101470001A430A5070470000C1F30442890D4FF02F
:10148000010C0B580CFA02F223EA02020A507047D0
:10149000C1F3891252F800C08A0D105801F01F03E1
:1014A000C1F30441C8402CFA03F1084000F00100E8
:1014B00070470000C26822F004021143C160704707
:1014C000C26822F008021143C16070470FB4084B94
:1014D00010B504A902AA039800F01CF8044602A95A
:1014E000002000F0C1F8204610BC5DF814FB00009D
:1014F0006916000802E008C8121F08C1002AFAD1C4
:1015000070477047002001E001C1121F002AFBD183
:10151000704700002DE9FF4F89B09B460446002527
:1015200006E025280BD05A460B999047641C6D1C89
:1015300020780028F5D10DB02846BDE8F08F0027AF
:10154000B8460122474900E0074314F8013F203B19
:1015500002FA03F00842F7D120782E2819D114F8A6
:10156000010F47F004072A280ED06FF02F022078D1
:10157000A0F1300109290CD808EB880102EB4101E8
:1015800000EB0108641CF2E70A98641C50F8048B15
:101590000A9020780028CED0642808D0692806D088
:1015A00075281ED05A460B9990476D1C58E00A9931
:1015B0004FF00A0901C90A91002802DA40422D21A0
:1015C00002E0390504D52B218DF82010012103E01C
:1015D000F90704D02021F7E78A4608AE0DE0002184
:1015E000FAE70A994FF00A0901C90A91F7E7494653
:1015F000FEF7FFFD303106F8011D0028F7D1ADEBF5
:10160000060000F12009780701D44FF00108C84511
:1016100002DDA8EB090000E000208046002706E07C
:1016200008A85A46C05D0B9990476D1C7F1C574512
:10163000F6DB04E030205A460B9990476D1CB8F158
:101640000001A8F10108F5DC05E016F8010B5A4687
:101650000B9990476D1CB9F10001A9F10109F4DC67
:10166000641C65E7092801000A68531C0B601070B0
:101670007047F8013000D802780230036803E803AD
:101680003800F8037803B803E003C801F002C80388
:101690008803E801B00320007000D003C001A80255
:1016A000A002E0029803380380022003C003F00187
:1016B00010035003B0017003480200020000000054
:1016C00000000102030400000054004000580040E4
:1016D000F01600080000002008000000F4140008C4
:1016E000F81600080800002058040000041500083F
:0816F000486900000100000040
:04000005080001AD41
:00000001FF
