:020000040800F2
:10000000980C00205D0200086502000867020008E5
:10001000690200086B0200086D0200080000000081
:100020000000000000000000000000006F02000857
:100030007102000800000000730200087502000849
:1000400077020008770200087702000877020008AC
:10005000770200087702000877020008770200089C
:10006000770200087702000877020008770200088C
:10007000770200087702000877020008770200087C
:10008000770200087702000877020008770200086C
:10009000770200087702000877020008770200085C
:1000A000770200087702000877020008770200084C
:1000B0007702000877020008BD06000877020008F2
:1000C000770200087702000877020008770200082C
:1000D000770200084507000877020008AD0700080E
:1000E000770200087702000877020008770200080C
:1000F00077020008770200087702000877020008FC
:1001000077020008770200087702000877020008EB
:1001100077020008770200087702000877020008DB
:1001200077020008770200087702000877020008CB
:1001300077020008770200087702000877020008BB
:1001400077020008770200087702000877020008AB
:10015000770200087702000877020008770200089B
:10016000770200087702000877020008770200088B
:1001700077020008770200087702000800000000FC
:10018000770200087702000877020008770200086B
:1001900077020008770200087702000800000000DC
:1001A00077020008770200087702000800F002F8E2
:1001B00000F044F814A696E8000CB244B344DA45C3
:1001C00001D100F03BF8BAE80F000FA696E8300026
:1001D000A5EB040504EB0607AAEB0704A7F101074A
:1001E0004FEA15154FEA3414A4F10104AC4201D3CF
:1001F00000F024F813F0010F18BFFB1A43F00103BD
:1002000000F001F8DBE718476816000078160000D8
:10021000704700000023002400250026103A28BF64
:1002200078C1FBD8520728BF30C148BF0B60704768
:100230001FB501F0FDFA1FBD10B510BD00F003F9A8
:100240001146FFF7F5FF00F069FE00F021F903B455
:10025000FFF7F2FF03BC00F029F9000009488047CE
:1002600009480047FEE7FEE7FEE7FEE7FEE7FEE798
:10027000FEE7FEE7FEE7FEE704480549054A064BB0
:100280007047000029050008AD010008980400200F
:10029000980C0020980800209808002030B50546EA
:1002A0000B462A4613F8014B12F8010B08B1A04285
:1002B000F8D01CB1002802D06D1CF1E7284630BDF3
:1002C000032A40F2308010F0030C00F0158011F882
:1002D000013BBCF1020F624498BF11F801CB00F85A
:1002E000013B38BF11F8013BA2F1040298BF00F8AE
:1002F00001CB38BF00F8013B11F0030300F071801F
:10030000083AC0F0088051F8043B083A51F804CB91
:10031000A0E80810F5E7121D5CBF51F8043B40F857
:10032000043BAFF30080D20724BF11F8013B11F862
:1003300001CB48BF11F8012B24BF00F8013B00F8A6
:1003400001CB48BF00F8012B70474FF00002042991
:10035000C0F0128010F0030C00F01B80CCF1040CF4
:10036000BCF1020F18BF00F8012BA8BF20F8022B28
:10037000A1EB0C0100F00DB85FEAC17C24BF00F8CE
:10038000012B00F8012B48BF00F8012B70474FF0FC
:10039000000200B5134694469646203922BFA0E8D5
:1003A0000C50A0E80C50B1F12001BFF4F7AF0907E1
:1003B00028BFA0E80C5048BF0CC05DF804EB8900D2
:1003C00028BF40F8042B08BF704748BF20F8022B15
:1003D00011F0804F18BF00F8012B7047704770472D
:1003E000704710B5203AC0F00B80B1E81850A0E873
:1003F0001850B1E81850A0E81850203ABFF4F5AFF3
:100400005FEA027C24BFB1E81850A0E8185044BF4E
:1004100018C918C0BDE810405FEA827C24BF51F8BB
:10042000043B40F8043B08BF7047D20728BF31F8AF
:10043000023B48BF11F8012B28BF20F8023B48BF00
:1004400000F8012B7047754600F02CF8AE46050009
:100450006946534620F00700854618B020B5FFF7DF
:100460000BFFBDE820404FF000064FF000074FF0B3
:1004700000084FF0000BAC46ACE8C009ACE8C0097E
:10048000ACE8C009ACE8C00921F007018D4670470F
:1004900010B50446AFF300802046BDE81040FFF7DA
:1004A000D6BE000000487047000000200149182017
:1004B000ABBEFEE7260002007047000040F6004099
:1004C000C4F202004FF4004100F0ACBB10B540F69E
:1004D000034000F035FE40F60044C4F2020420461A
:1004E000012101224FF4004300F09EFB2046002131
:1004F00002224FF4004300F0C1FB20464FF40041BC
:10050000BDE8104000F08CBB40F60040C4F2020091
:100510004FF4004100F084BB40F60040C4F20200FA
:100520004FF4004100F07ABB80B581B04EF688519F
:10053000CEF200010A6843F6080E42F47002C4F2DB
:10054000020E0A605EF8081C4FF0000C41F0010139
:100550004EF8081CDEF800104CF24F3241F08001DA
:10056000CEF80010CDF800C0009B934208D84CF2A2
:10057000503300BF00990131009100999942F9D39D
:10058000DEF8001041F09001CEF80010CDF800C068
:100590000099914208D84CF2503100BF009A0132C4
:1005A0000092009A8A42F9D3DEF800104FF6FF72EB
:1005B00021F00301CEF800105EF8081CCFF6F662B9
:1005C00011404EF8081C5EF8081C21F480214EF8FA
:1005D000081C0021CEF80010DEF8002043F21002C3
:1005E000C2F200424EF8042CCEF804105EF8082C3B
:1005F00042F480324EF8082C4FF6FE725EF8080C7A
:10060000013A41F10003800301D4002BF6D15EF8DA
:10061000080C800301D400BFFEE7DEF8380047F283
:10062000000140F08050C4F20001CEF838000868A4
:1006300040F440400860DEF80000CEF80000DEF82C
:10064000000040F40040CEF80000DEF8000040F466
:10065000A050CEF8000046F21940C0F640104EF807
:10066000040C5EF8080C40F080704EF8080C00BFD7
:100670005EF8080C8001FBD5086840F48030086003
:100680004868C003FCD5086840F40030086000BF2B
:1006900048688003FCD5DEF8000020F00300CEF8A7
:1006A0000000DEF8000040F00200CEF8000000BFBD
:1006B000DEF800000007FBD501B080BD10B540F6A4
:1006C0000004C4F200042046012100F099FEB8B3F2
:1006D0002046012100F090FE40F26E40C2F2000080
:1006E000018800291CBF0139018040F26220C2F25A
:1006F0000000017801290DD140F26021C2F2000111
:100700000A88013293B2142B0A8003D300220A8094
:100710000321017040F26840C2F200000178012913
:100720000ED140F26641C2F200010A88013293B252
:10073000142B0A8038BF10BD00220A8003210170EB
:1007400010BD0000B0B541F2000440F20535C4F21E
:100750000104C0F205052046294601F04BF80028A7
:1007600008BFB0BD2046294601F038F8204600F009
:10077000AFFF40F26421C2F200010A8840F2600338
:10078000C2F20003985440F26220C2F200000378E3
:100790000132012B0A801CBF0121017040F2602050
:1007A000C2F2000000210180B0BD0000B0B544F6E7
:1007B000000440F20535C4F20004C0F205052046ED
:1007C000294601F017F8002808BFB0BD2046294689
:1007D00001F004F8204600F07BFF40F26A41C2F2CB
:1007E00000010A8840F26623C2F20003985440F2E6
:1007F0006840C2F2000003780132012B0A801CBF5E
:100800000121017040F26640C2F200000021018027
:10081000B0BD000080B584461FFA81FE41F20000A1
:1008200093B2C4F201006146724600F08FFE80BDB3
:100830002DE9F04F91B001AD41F2000B2846402167
:10084000C4F2010BFFF7A3FD41F66B090026052456
:100850000FF24428C0F60009002700BF5846414661
:10086000062200F0B5FEC7F14000E91982B25846F1
:10087000642300F06BFE074428464946FFF70EFD4F
:10088000002818BF0126013CE8D1642000F080F95F
:10089000012E1ED141F66B0905240FF20428C0F683
:1008A000000900BF584641460E2200F091FEC7F1F4
:1008B0004000E91982B25846642300F047FE07441D
:1008C00028464946FFF7EAFC002818BF0226013CEB
:1008D000E8D1642000F05CF9022E1ED141F66B09CC
:1008E00005240FF2CC18C0F6000900BF5846414657
:1008F000132200F06DFEC7F14000E91982B258469C
:10090000642300F023FE074428464946FFF7C6FC4F
:10091000002818BF0326013CE8D1642000F038F914
:10092000032E1ED141F66B0905240FF29818C0F66C
:10093000000900BF58464146152200F049FEC7F1A4
:100940004000E91982B25846642300F0FFFD0744D5
:1009500028464946FFF7A2FC002818BF0426013CA0
:10096000E8D1642000F014F9042E20D141F66B097F
:100970004FF0050A0FF26418C0F60009052400BF05
:1009800058464146272200F023FEC7F14000E919EE
:1009900082B25846642300F0D9FD074428464946F0
:1009A000FFF77CFC002818BF5646013CE8D16420C4
:1009B00000F0EEF8052E1ED141F66B0905240FF26A
:1009C0004418C0F6000900BF58464146102200F006
:1009D000FFFDC7F14000E91982B25846642300F0D8
:1009E000B5FD074428464946FFF758FC002818BFC4
:1009F0000626013CE8D1642000F0CAF8062E20D17A
:100A000041F6520841F66B090524C0F60008C0F60D
:100A1000000900BF58464146182200F0D9FDC7F131
:100A20004000E91982B25846642300F08FFD074464
:100A300028464946FFF732FC002818BF0726013C2C
:100A4000E8D1642000F0A4F8072E1DD141F66B090F
:100A500005240FF2C408C0F6000900BF58464146FD
:100A60000B2200F0B5FDC7F14000E91982B25846EB
:100A7000642300F06BFD064628464946FFF70EFC4E
:100A800030B9013C3744E9D1002011B0BDE8F08F06
:100A9000012011B0BDE8F08F415445300D0A00002F
:100AA00041542B424C45494E49543D320D0A0000F9
:100AB00041542B424C454741545453535256435290
:100AC000450D0A0041542B424C4547415454535361
:100AD000525653544152540D0A00000041542B42C7
:100AE0004C45414456444154413D2230323031302E
:100AF00036303630393433333334323643363522B8
:100B00000D0A000041542B424C4541445653544178
:100B100052540D0A0000000041542B424C455350E2
:100B2000500D0A002DE9F04790B06D4641F2000AE1
:100B300028464021C4F2010AFFF729FC41F66B095F
:100B4000002705240FF24008C0F600095046414630
:100B5000042200F03DFDC7F14000E91982B2504681
:100B6000642300F0F3FC064628464946FFF796FB4F
:100B700030B9013C3744E9D1002010B0BDE8F0871E
:100B8000012010B0BDE8F08741540D0A00000000BC
:100B9000002808BF7047002146F66052013A00BFA6
:100BA000FCD101318142F7D170470000F0B5D0F897
:100BB00020E0D0F824C000230F27002505E000BF67
:100BC0000135082D03F104030CD022FA05F6F607CF
:100BD000F6D007FA03F62EEA060601FA03F446EA0F
:100BE000040EEDE7082300240F2504E00133102B49
:100BF00004F104040CD022FA03F6F607F6D005FA45
:100C000004F62CEA060701FA04F647EA060CEDE7BB
:100C1000C0F820E0C0F824C0F0BD00008162704739
:100C200081617047C16270472DE9F041D0F800E062
:100C3000D0F80CC000244FF00308002605E000BFE8
:100C40000136102E04F1020412D023FA06F7FF0732
:100C5000F6D008FA04F72EEA070E01FA04F54EEA78
:100C6000050E2CEA070702FA04F547EA050CE7E748
:100C7000C0F800E0C0F80CC0BDE8F081012941686F
:100C800014BF994319434160B0B5D0F808C00021A2
:100C90004FF0030E002404E00134102C01F1020196
:100CA0000CD023FA04F5ED07F6D00EFA01F52CEA84
:100CB000050C02FA01F54CEA050CEDE7C0F808C096
:100CC000B0BD000010B541F2150000F039FA45F250
:100CD0000044C4F2000448F2A061C0F201012046C1
:100CE000002200F09BF8204600210022A02300F003
:100CF00007F9204600F0FEF820464FF48061BDE879
:100D0000104000F085B8000010B540F6014000F03A
:100D100017FA40F20044C4F20204204604214FF4C2
:100D20008072FFF743FF204604214FF40072FFF763
:100D30003DFF2046022101224FF48073FFF774FF2C
:100D40002046022101224FF40073FFF76DFF204679
:100D5000012102224FF48073FFF790FF204601210A
:100D600002224FF40073BDE81040FFF787BF000078
:100D700010B541F2160000F0E3F945F60004C4F2A4
:100D8000000448F2A061C0F201012046002200F0F8
:100D900045F8204600210022A02300F0B1F82046AB
:100DA00000F0A8F820464FF48061BDE8104000F044
:100DB0002FB8000010B540F6054000F0C1F941F22F
:100DC0000044C4F20204204604210122FFF7EEFE93
:100DD000204604210222FFF7E9FE204602210122DB
:100DE0000123FFF721FF2046022101220223FFF702
:100DF0001BFF2046012102220123FFF73FFF20466F
:100E0000012102220223BDE81040FFF737BF000096
:100E1000026822F48062114301607047F0B581B02E
:100E20000446022017460D4600F02CF94DF683616A
:100E3000C4F21B31A0FB0112910C48F2FF62C0F218
:100E4000933290420A4688BF3C22636848F2A0660B
:100E5000C0F2010623F03F03B54243EA0203636098
:100E600007D844F2C042C0F2843290422BD33C21D6
:100E700031E041F68021C0F206018D4237D84FF4AF
:100E80009671514348F63812C0F24102A1FB02129A
:100E9000511C2162E169192221F48041002F18BF01
:100EA00001F5804108BF0322E161E1696A4341F431
:100EB0000041B0FBF2F0E161E169020508BF41F0D9
:100EC0000101084312E048F27F42C0F21E02904244
:100ED0008CBF0131022121626900B0FBF1F00428CE
:100EE00098BF0420E1696FF31F300843E06101B04F
:100EF000F0BD0000016841F0010101607047000091
:100F0000D0F800C06FF39F232CF0020C41EA0C01D3
:100F1000016043EA0201816070470000FFF7D6FAE2
:100F2000FFF7CCFA4FF4FA60FFF732FEFFF7C6FA8C
:100F30004FF4407000F09CF800F032F941F20000EC
:100F4000C4F2010000F068FAFFF7DEFEFFF7BAFE18
:100F5000FFF730FFFFF70CFFFFF7E4FD40F26D44B1
:100F6000C2F20004207048B9FFF7DCFD20704FF496
:100F7000FA70FFF70DFE20780028F5D0FFF758FC37
:100F800040F26C4140F2714440F27045C2F20001FF
:100F9000C2F20004C2F20005087007E0FFF7B4FADD
:100FA000FFF78CFA4FF42F70FFF7F2FD2046202157
:100FB0004FF49672FFF72EFC207C00282870EFD0AB
:100FC0006528EBD8FFF7A8FAEAE700004EF60C5CBC
:100FD000CEF2000CDCF8003003F4E063B3F5E06F10
:100FE00001D1042328E0DCF8003003F4E063B3F51A
:100FF000C06F01D103231FE0DCF8003003F4E0638D
:10100000B3F5A06F17D0DCF8003003F4E063B3F55C
:10101000806F01D101230FE0DCF8003003F4E063BE
:10102000B3F5407F01D1002306E040F20053C0F247
:10103000FA53CCF80030022301FA03FCC3F1040395
:101040000F21D94011404EF2001241EA0C01CEF2BC
:101050000002090140EA020383F8001300F01F01B7
:10106000012303FA01F11C2303EAD00081507047E9
:1010700040F080604EF60C5140F0FD70CEF2000161
:101080000860704710B543F60402C4F202025368C8
:101090000146C3F3810342F20040022BC0F2F40088
:1010A00006D0012B1FD147F64000C0F27D101AE098
:1010B000D2F800C013680CF03F0CC3F3881E13680D
:1010C0001468C3F30143640247F64004C0F27D1480
:1010D00058BF0446B4FBFCF4022000EB430004FBC1
:1010E0000EF3B3FBF0F0536811A4C3F30313E35CF6
:1010F000546841F64A0CC4F38224C0F6000C1CF874
:1011000004E05268032907D820FA03F3DFE801F06E
:101110000F020609184610BD002010BD23FA0EF07C
:1011200010BDC2F342301CF8000023FA00F010BDDD
:101130000000000000000000010203040607080987
:1011400043F6000300F01F018009C4F202034FF0D0
:10115000010CC2580CFA01F11143C1507047000054
:1011600043F6000300F01F018009C4F202034FF0B0
:10117000010CC2580CFA01F122EA0101C15070477A
:1011800043F6000300F01F018009C4F202034FF090
:10119000010CC2580CFA01F11143C1507047000014
:1011A00010B584B041F20200FFF7CAFF40F6000418
:1011B000C4F20004204600F01BF841F267000090E2
:1011C00014200290002001908DF80C006946204602
:1011D00000F0B8F81E2001210122FFF7F7FE20469B
:1011E000012100F005F9204600F0A6F804B010BD7A
:1011F00010B541F6FF31C4F2000188421BDC40F615
:10120000FF31C4F20001884230DD41F2FF31C4F207
:101210000001884250DC40F60041C4F200018842DF
:1012200069D041F20001C4F20001884240F082809E
:1012300040F6040476E040F2FF31C4F20101884236
:1012400026DD44F2FF31C4F20101884243DC40F262
:101250000041C4F20101884250D044F20001C4F2BE
:101260000101884266D14FF411645BE0B0F1804F18
:1012700047D040F20041C4F20001884244D040F619
:101280000001C4F20001884254D140F6020449E052
:1012900041F60041C4F20001884238D042F2000118
:1012A000C4F20001884235D00021C4F20101884215
:1012B00040D14FF4106435E041F20041C4F2000126
:1012C00088422AD041F60001C4F20001884231D19F
:1012D00040F6060426E044F20041C4F201018842CF
:1012E0001ED044F60001C4F20101884218BF10BDAF
:1012F00040F6121416E040F6030413E040F6011421
:1013000010E04FF400640DE040F601040AE040F6FE
:10131000070407E040F6080404E040F6050401E095
:1013200040F611142046FFF72BFF2046BDE8104081
:10133000FFF716BF10BD0000016841F00101016018
:10134000704700000A8840F2004C826240F6FF328B
:10135000C4F200029042C4F2010C0FDCB0F1804FE5
:1013600019D040F20043C4F20003984213D040F673
:101370000003C4F2000398420DD018E040F6004389
:10138000C4F20003984206D0604504D00023C4F2A2
:10139000010398420BD1036823F0700303604B886C
:1013A00002681A4302608A8803681A43026080B5A3
:1013B00041F20002D1F808E020F48063C4F2000298
:1013C0009342C0F82CE007D0026822F44072026019
:1013D000CA8803681A43026040F48062624504BF11
:1013E000097B0163416941F00101416180BD000059
:1013F000C2681143C1607047C94301617047000072
:10140000C26800690A40084018BF0120002A18BFBE
:101410000122104070470000B0B5044644F60000B9
:10142000C4F2000084423DD041F20000C4F2010049
:10143000844218BFB0BD252000210022FFF7C6FD61
:101440004FF44060FFF77CFE41F20410FFF778FE96
:101450000025C4F20205284607214FF40072FFF769
:10146000A5FB284607214FF48062FFF79FFB284623
:10147000022101224FF40073FFF7D6FB284600211A
:1014800002224FF40073FFF7F9FB284602210122E4
:101490004FF48063FFF7C8FB2846002102224FF477
:1014A000806337E0272000210022FFF78FFD40F600
:1014B0000340FFF745FE41F21200FFF741FE002016
:1014C000C4F2020000F54065284607214FF48072FF
:1014D000FFF76CFB284607214FF40072FFF766FB0D
:1014E0002846022101224FF48073FFF79DFB284616
:1014F000002102224FF48073FFF7C0FB284602212F
:1015000001224FF40073FFF78FFB284600210222CF
:101510004FF40073FFF7B2FB204600F0E1F82046DD
:101520004FF4E13100F074F82046042100F074F922
:101530002046082100F076F9204600F035F92046D3
:1015400040F20531BDE8B04000F03CB970B540F262
:10155000684440F2622544F60006C2F20004C2F27A
:101560000005C4F20006B04208BF254640F2600400
:1015700040F2662CC2F20004C2F2000C08BF6446BE
:10158000B04240F2642640F26A4CC2F20006C2F257
:10159000000C08BF6646C3B1287803280ED13088F6
:1015A000904238BF024608462146FEF789FE318840
:1015B0002046FEF7CAFE00203080287040F26E40C0
:1015C000C2F2000001210180FEE7002070BD000092
:1015D0002DE9F0419046054682B10E4600240027D1
:1015E0002846062100F0E6F80028F9D0315D2846AB
:1015F00000F072F80137FCB24445F1D328460621C9
:1016000000F0D8F80028F9D04046BDE8F08100008D
:10161000B0B5044647F2FF70C4F200000D468442A4
:101620004FF000000EDC44F6FF31C4F200018C42A2
:1016300017DC44F20041C4F200018C421DD044F694
:10164000000116E040F6FF71C4F201018C422FDC6C
:1016500047F60001C4F200018C420ED047F600416B
:1016600007E044F60041C4F200018C4205D045F287
:101670000001C4F200018C4203D102210846FFF7A9
:1016800001FDE168090406D400EB5500B0FBF5F05C
:1016900080B2A060B0BD400000EB5500B0FBF5F09B
:1016A0004FF6F0710140C0F342000844A060B0BDA5
:1016B00041F20001C4F201018C424FF00301DDD080
:1016C00041F20042C4F201029442D7D0D9E70000AF
:1016D00040686FF35F2070476FF35F214160704790
:1016E00010B547F2FF71C4F20001884214DC44F6E1
:1016F000FF31C4F20001884224DC44F20041C4F20C
:10170000000188423CD044F60001C4F20001884246
:1017100049D140F612043EE040F6FF71C4F20101E7
:1017200088421EDC47F60001C4F2000188422AD03C
:1017300047F60041C4F20001884218BF10BD40F6D0
:101740001F0428E044F60041C4F2000188421DD085
:1017500045F20001C4F20001884224D140F614048D
:1017600019E041F20001C4F20101884211D041F2B6
:101770000041C4F20101884215D140F605140AE087
:1017800040F6110407E040F61E0404E040F613049E
:1017900001E040F604142046FFF7F2FC2046BDE8C5
:1017A0001040FFF7DDBC10BDC16841F40051C160BD
:1017B000704700008A09105801F01F01C84000F06E
:1017C0000100704701F01F0289094FF0010C0B580E
:1017D0000CFA02F21A430A5070470000C1F30442A7
:1017E000890D4FF0010C0B580CFA02F223EA0202A9
:1017F0000A507047C1F3891252F800C08A0D105880
:1018000001F01F03C1F30441C8402CFA03F1084062
:1018100000F0010070470000C26822F0040211438A
:10182000C1607047C26822F008021143C16070476E
:10183000F1EE100A4FF6FF71C0F2C03120EA01004C
:1018400040F04070E1EE100A704700000000010215
:10185000030441542B424C455350504346473D31BD
:101860002C312C362C312C350D0A004F4B0000004A
:101870008018000800000020980C000014020008E6
:04000005080001AD41
:00000001FF
