:020000040800F2
:1000000028040020C1010008C9010008CB01000834
:10001000CD010008CF010008D10100080000000058
:10002000000000000000000000000000D3010008F4
:10003000D501000800000000D7010008D901000820
:10004000DB010008DB010008DB010008DB01000820
:10005000DB010008DB010008DB010008DB01000810
:10006000DB010008DB010008DB010008DB01000800
:10007000DB010008DB010008DB010008DB010008F0
:10008000DB010008DB010008DB010008DB010008E0
:10009000DB010008DB010008DB010008DB010008D0
:1000A000DB010008B5030008DB010008DB010008E4
:1000B000F9030008DB010008DB010008DB01000890
:1000C000DB010008DB010008DB010008DB010008A0
:1000D000DB010008DB010008DB010008DB01000890
:1000E000DB010008DB010008DB010008DB01000880
:1000F000DB010008DB010008DB010008DB01000870
:10010000DB010008DB010008DB010008DB0100085F
:10011000DB010008DB010008DB010008DB0100084F
:10012000DB010008DB010008DB010008DB0100083F
:10013000DB010008DB010008DB010008DB0100082F
:10014000DB010008DB010008DB010008DB0100081F
:10015000DB010008DB010008DB010008DB0100080F
:10016000DB010008DB010008DB010008DB010008FF
:10017000DB010008DB010008DB01000800000000D3
:10018000DB010008DB010008DB010008DB010008DF
:10019000DB010008DB010008DB01000800000000B3
:1001A000DB010008DB010008DB010008DFF80CD0F0
:1001B00000F036F800480047410E000828040020EF
:1001C0000648804706480047FEE7FEE7FEE7FEE7F1
:1001D000FEE7FEE7FEE7FEE7FEE7FEE75102000866
:1001E000AD010008421C10F8011B0029FBD1801A48
:1001F000704730B50B46014600202022012409E05B
:1002000021FA02F59D4205D303FA02F5491B04FACF
:1002100002F52844151EA2F10102F1DC30BD0000F8
:100220001CB509480090094801900546009C06E06D
:10023000E06840F0010394E8070098471034AC42AE
:10024000F6D3FFF7B7FF000080120008A0120008E5
:1002500081B04EF68851CEF200010A6843F60800DC
:1002600042F47002C4F202000A6050F8081C41F027
:10027000010140F8081C00BF50F8081C8907FBD595
:10028000016841F08001016000210091009A4F2A2D
:1002900006D800BF009A01320092009A502AF9D382
:1002A000026842F090020260009100994F2905D83F
:1002B00000990131009100995029F9D301684FF656
:1002C000FF7221F00301016050F8081CCFF6F662BE
:1002D000114040F8081C50F8081C4FF0000C21F4A5
:1002E000802140F8081CC0F800C0026843F21002E8
:1002F000C2F2004240F8042CC0F804C050F8082CA8
:1003000042F4803240F8082C4FF6FE7250F8081C78
:10031000013A4CF10003890301D4002BF6D150F8C7
:10032000081C890301D400BFFEE7826B47F200017D
:1003300042F08052C4F2000182630A6842F44042F3
:100340000A6002680260026842F4004202600268C9
:1003500042F4A052026046F21942C0F6401240F840
:10036000042C50F8082C42F0807240F8082C00BF92
:1003700050F8082C9201FBD50A6842F480320A60DA
:100380004A68D203FCD50A6842F400320A6000BF12
:100390004A689203FCD5016821F0030101600168FD
:1003A00041F00201016000BF01680907FCD501B0FE
:1003B0007047000010B50024C4F20104204601215A
:1003C00000F048FE002808BF10BD40F20000C2F255
:1003D00000000168B1FA81F25209026029B904F5FE
:1003E00086304FF4004100F0EDF920460121BDE8D0
:1003F000104000F02BBE000080B54FF0804001217E
:1004000000F028FE002808BF80BD4FF08040012189
:1004100000F01CFE40F22000C2F20000018840F211
:10042000DC534A1C9942028005D300210180BDE8BB
:10043000804000F01BBE80BD002808BF704700212F
:1004400046F66052013A00BFFCD101318142F7D13A
:1004500070470000F0B581B00C46511ECAB2032AA5
:1004600005461ED841F2222C0698C0F6000C0CEB73
:100470004302567800284FF0020018BF04361CF8DB
:10048000133000EB4100032202EB4107C2B22846C1
:10049000214600F079FBF3B2FAB22846214600F07B
:1004A00073FB28462146812201B0BDE8F04000F0F0
:1004B000E5B900002DE9F04782B0044600F0BCFA2F
:1004C00041F278284FF00009C0F600080FF2480A00
:1004D0006D4658F8296000271AF80720284631464B
:1004E00000F068FCDDE90001C4E90001607950B961
:1004F0000137042FF0D1B9F1000F09F10109E8D05B
:1005000002B0BDE8F087D4E900010022002300F02A
:100510003BFB02B0BDE8F087C0C2C4C62DE9F04382
:1005200081B099461746DDF8208016010A220F2374
:100530000C46054600F028FB284621460B220023E6
:1005400000F022FB06F10F00C3B2284621460C2220
:1005500000F01AFB3B09284621460D2200F014FB4F
:100560002846214606220F234FEA091600F00CFB0D
:10057000284621460722002300F006FB06F10F0063
:10058000C3B228462146082200F0FEFA4FEA1913AA
:1005900028462146092200F0F7FA284621460E2275
:1005A0000F234FEA081600F0EFFA284621460F22E3
:1005B000002300F0E9FA06F10F00C3B228462146F5
:1005C000102200F0E1FA4FEA1813284621461122C2
:1005D00001B0BDE8F04300F0D7BA00002DE9F047C4
:1005E00082B0044600F028FA41F278284FF0000962
:1005F000C0F600080FF2B40A6D4658F829600027CB
:100600001AF807202846314600F0D4FBDDE9000146
:10061000C4E90001607950B90137042FF0D1B9F174
:10062000000F09F10109E8D002B0BDE8F087D4E974
:10063000005421222846214600F020F92846214670
:100640000222002300F0A0FA2846214603220023BC
:1006500000F09AFA284621460422002300F094FA7A
:10066000284621460522002300F08EFA284621461E
:100670000622002300F088FA28462146072200239C
:1006800000F082FA284621460822002300F07CFA76
:10069000284621460922002300F076FA2846214602
:1006A000812200F0EBF802B0BDE8F087E0E2E4E67A
:1006B0002DE9F04782B00646104614468846FFF7FB
:1006C00091FD2044471E04254FF000094FF0010A18
:1006D0000AE000BFEAB2304641462523CDF800903B
:1006E000FFF7B8FE013D32DDA742F3D33878A0F121
:1006F0003001CBB2092B09D87878EAB22E2814D170
:1007000030464146CDF800A013E000BFA0F16101E2
:10071000C9B2192901D8573805E0A0F14101C9B281
:1007200019290AD83738EAB2C3B230464146CDF863
:100730000090FFF78FFE013FD4E72D2804D1EAB2E5
:10074000304641462423F2E70135013FCAE702B0B3
:10075000BDE8F087F0B5D0F820E0D0F824C0002341
:100760000F27002505E000BF0135082D03F1040324
:100770000CD022FA05F6F607F6D007FA03F62EEAB1
:10078000060601FA03F446EA040EEDE70823002406
:100790000F2504E00133102B04F104040CD022FADD
:1007A00003F6F607F6D005FA04F62CEA060701FA76
:1007B00004F647EA060CEDE7C0F820E0C0F824C0D4
:1007C000F0BD0000C16270472DE9F041D0F800E0B3
:1007D000D0F80CC000244FF00308002605E000BF4D
:1007E0000136102E04F1020412D023FA06F7FF0797
:1007F000F6D008FA04F72EEA070E01FA04F54EEADD
:10080000050E2CEA070702FA04F547EA050CE7E7AC
:10081000C0F800E0C0F80CC0BDE8F08101294168D3
:1008200014BF994319434160B0B5D0F808C0002106
:100830004FF0030E002404E00134102C01F10201FA
:100840000CD023FA04F5ED07F6D00EFA01F52CEAE8
:10085000050C02FA01F54CEA050CEDE7C0F808C0FA
:10086000B0BD0000026822F480621143016070474D
:10087000026822F4006211430160704770B51546AA
:100880000E460446204640F2016100F0CDF80028F3
:10089000F8D1204600F0C8FA20464FF4A06100F0DD
:1008A000C3F80028F8D0F1B220466FF0010200F042
:1008B00055F948F2A166C0F2010600BF204640F299
:1008C000015100F0B1F818B9013EF7D1002519E047
:1008D000204640F2015100F093F800BF204640F25C
:1008E000075100F0A1F80128F8D12046294600F070
:1008F0007FF800BF204640F2025100F095F8002832
:10090000F8D00125204600F095FA284670BD000079
:10091000F0B581B00446022017460D4600F0E4FA17
:100920004DF68361C4F21B31A0FB0112910C48F219
:10093000FF62C0F2933290420A4688BF3C2263684D
:1009400048F2A066C0F2010623F03F03B54243EA35
:100950000203636007D844F2C042C0F2843290427E
:100960002BD33C2131E041F68021C0F206018D42BB
:1009700037D84FF49671514348F63812C0F241020D
:10098000A1FB0212511C2162E169192221F480416C
:10099000002F18BF01F5804108BF0322E161E16922
:1009A0006A4341F40041B0FBF2F0E161E169020504
:1009B00008BF41F00101084312E048F27F42C0F253
:1009C0001E0290428CBF0131022121626900B0FBFE
:1009D000F1F0042898BF0420E1696FF31F30084349
:1009E000E06101B0F0BD00000069C0B270470000D6
:1009F00001617047016841F001010160704700002A
:100A000040F20152914202D141698069704701F080
:100A10001F0289094FF0010C0B580CFA02F223EA6D
:100A200002020A50704700008A09105801F01F01A5
:100A3000C84000F00100704770B540F6014000F07A
:100A4000B1FA40F20044C4F202042046022101221D
:100A50004FF48073FFF7B8FE2046012102224FF4C5
:100A60008073FFF7DBFE204604214FF48072FFF70E
:100A700071FE2046022101224FF40073FFF7A4FE0D
:100A80002046012102224FF40073FFF7C7FE2046E3
:100A900004214FF40072FFF75DFE41F2150000F0F3
:100AA00081FA48F2A065A4F5D836C0F201053046B7
:100AB00029460022FFF72CFF304600210022A02308
:100AC00000F054F830464FF48061FFF7CBFE30461B
:100AD000FFF790FF40F6054000F064FA04F58056F9
:100AE0003046022101220223FFF76EFE304601212B
:100AF00002220223FFF792FE304604210222FFF772
:100B000029FE3046022101220123FFF75DFE304617
:100B1000012102220123FFF781FE30460421012238
:100B2000FFF718FE41F2160000F03CFAA4F5D634A7
:100B3000204629460022FFF7EBFE20460021002236
:100B4000A02300F013F820464FF48061FFF78AFEDF
:100B50002046BDE87040FFF74DBF000021F00101C5
:100B6000023218BF0131016170470000D0F800C0A7
:100B70006FF39F232CF0020C41EA0C01016043EA61
:100B80000201816070470000F0B581B01D46164635
:100B90000F460446204640F20161FFF745FF00285A
:100BA000F8D1204600F040F920464FF4A061FFF74D
:100BB0003BFF0028F8D0F9B220466FF00102FFF7A2
:100BC000CDFF48F2A167C0F2010700BF204640F206
:100BD0000151FFF729FF18B9013FF7D100252DE09A
:100BE000204640F20151FFF70BFF00BF204640F2C4
:100BF0000751FFF719FF0128F8D120463146FFF7CA
:100C0000F7FE00BF204640F20251FFF70DFF00281B
:100C1000F8D000BF204640F20751FFF705FF01283A
:100C2000F8D120462946FFF7E3FE00BF204640F2F8
:100C30000251FFF7F9FE0028F8D00125204600F008
:100C4000F9F8284601B0F0BD2DE9F04381B0089DC8
:100C5000984691460E460446204640F20161FFF751
:100C6000E3FE0028F8D1204600F0DEF820464FF4DD
:100C7000A061FFF7D9FE0028F8D0F6B22046314631
:100C80006FF00102FFF76AFF48F2A167C0F20107A7
:100C9000204640F20151FFF7C7FE10B9013FF7D1DE
:100CA0002EE0204640F20151FFF7AAFE204640F216
:100CB0000751FFF7B9FE0128F8D120464946FFF752
:100CC00097FE00BF204640F20251FFF7ADFE00281C
:100CD000F8D0204600F0A8F820464FF4A061FFF7B6
:100CE000A3FE0028F8D0204631460122FFF736FF48
:100CF000204640F20151FFF797FE40B9013FF7D17E
:100D0000204600F097F8002001B0BDE8F0832046AF
:100D100040F20151FFF774FE022D03D82046002156
:100D2000FFF7A0FD012D07D0022D10D120464FF472
:100D30000061FFF79DFD0AE0204600F07BF806E029
:100D400056B3204640F20651FFF76EFEE8B9EEB208
:100D5000022E0FD0032EF3D1204640F20251FFF7AE
:100D600063FE0028F8D020460021FFF77BFD022E0D
:100D7000E7D100BF204640F20251FFF755FE0028A0
:100D8000F8D0204600F056F8DBE72046FFF72CFEAF
:100D900008F8010B013DDAE720464FF48061FFF7C8
:100DA00061FD20460021FFF763FD012001B0BDE891
:100DB000F083000070B516460D46044601600271CE
:100DC00000206071284640F20161FFF72DFE0028E7
:100DD000F8D1284600F028F828464FF4A061FFF724
:100DE00023FE0028F8D0284631466FF00102FFF7B5
:100DF000B5FE48F2A166C0F2010600BF284640F2E7
:100E00000151FFF711FE18B9013EF7D1002605E0A8
:100E1000284640F20151FFF7F3FD0126284600F075
:100E200009F8667170BD0000016841F480710160CD
:100E300070470000016841F40071016070470000D4
:100E400088B04FF0000802A8ADF81C80CDE90588F5
:100E5000FFF7C4FBDDE9020140F21009C2F200090C
:100E6000C9E9000102A8FFF725FBDDE9020140F214
:100E7000080AC2F2000ACAE9000102A800F0B8F8A4
:100E8000DDE9020140F21807C2F2000715A405AD22
:100E9000C7E900010FE000BFDAE900016423B6F5FD
:100EA0007A7F8CBF00226422CDF80080FFF736FBEA
:100EB0006420FFF7C1FAD7E9000100F083F8064685
:100EC00028462146324600F0D9F8D9E900012A46E1
:100ED000FFF7EEFBB6F5FA7FDED8DAE9000164220F
:100EE0000023E1E72564000010B543F60402C4F2D4
:100EF000020253680146C3F3810342F20040022B11
:100F0000C0F2F40006D0012B1FD147F64000C0F21A
:100F10007D101AE0D2F800C013680CF03F0CC3F348
:100F2000881E13681468C3F30143640247F6400443
:100F3000C0F27D1458BF0446B4FBFCF4022000EB61
:100F4000430004FB0EF3B3FBF0F0536811A4C3F3AA
:100F50000313E35C546841F26E2CC4F38224C0F6A0
:100F6000000C1CF804E05268032907D820FA03F3A8
:100F7000DFE801F00F020609184610BD002010BD81
:100F800023FA0EF010BDC2F342301CF8000023FA21
:100F900000F010BD0000000000000000010203048A
:100FA0000607080943F6000300F01F018009C4F298
:100FB00002034FF0010CC2580CFA01F11143C15069
:100FC0007047000080B582B00022ADF806204FF0D7
:100FD000020C0DF10603AA22CDF800C0FFF734FE83
:100FE000BDF80610002809BA18BF080C02B080BD71
:100FF0002DE9F04782B00446FFF71EFD4FF00009CF
:101000000FF23C080FF2400A6D4658F8296000279D
:101010001AF8072028463146FFF7CCFEDDE900012B
:10102000C4E90001607938B90137042FF0D1B9F172
:10103000000F09F10109E8D002B0BDE8F08700BF58
:101040000054004000580040585A5C5EC94301619A
:1010500070470000C26800690A40084018BF0120BC
:10106000002A18BF012210407047000040F60040DF
:10107000C4F202004FF40041FFF7A4BB0FB4084BC9
:1010800010B504A902AA039800F01CF8044602A9AE
:10109000002000F0C1F8204610BC5DF814FB0000F1
:1010A0001912000802E008C8121F08C1002AFAD16C
:1010B00070477047002001E001C1121F002AFBD1D8
:1010C000704700002DE9FF4F89B09B46044600257C
:1010D00006E025280BD05A460B999047641C6D1CDE
:1010E00020780028F5D10DB02846BDE8F08F002704
:1010F000B8460122474900E0074314F8013F203B6E
:1011000002FA03F00842F7D120782E2819D114F8FA
:10111000010F47F004072A280ED06FF02F02207825
:10112000A0F1300109290CD808EB880102EB41013C
:1011300000EB0108641CF2E70A98641C50F8048B69
:101140000A9020780028CED0642808D0692806D0DC
:1011500075281ED05A460B9990476D1C58E00A9985
:101160004FF00A0901C90A91002802DA40422D21F4
:1011700002E0390504D52B218DF82010012103E070
:10118000F90704D02021F7E78A4608AE0DE00021D8
:10119000FAE70A994FF00A0901C90A91F7E74946A7
:1011A000FFF727F8303106F8011D0028F7D1ADEB25
:1011B000060000F12009780701D44FF00108C84566
:1011C00002DDA8EB090000E000208046002706E0D1
:1011D00008A85A46C05D0B9990476D1C7F1C574567
:1011E000F6DB04E030205A460B9990476D1CB8F1AD
:1011F0000001A8F10108F5DC05E016F8010B5A46DC
:101200000B9990476D1CB9F10001A9F10109F4DCBB
:10121000641C65E7092801000A68531C0B60107004
:101220007047F8013000D802780230036803E80301
:101230003800F8037803B803E003C801F002C803DC
:101240008803E801B00320007000D003C001A802A9
:10125000A002E0029803380380022003C003F001DB
:1012600010035003B00170034802000200000000A8
:101270000000010203040000005400400058004038
:10128000A01200080000002008000000A4100008C0
:10129000A81200080800002020040000B410000874
:0812A000010000000000000045
:04000005080001AD41
:00000001FF
